:020000040800F2
:10000000881E002021020008171F00082D1B000871
:10001000151F0008A9040008AF2200080000000016
:10002000000000000000000000000000890100083E
:10003000C904000800000000CD010008211F0008CD
:100040003B0200083B0200083B0200083B0200089C
:100050003B0200083B0200083B0200083B0200088C
:100060003B0200083B0200083B0200083B0200087C
:100070003B0200083B0200083B0200083B0200086C
:10008000C5040008C70400083B0200083B02000842
:10009000AD2200083B0200083B0200083B020008BA
:1000A0003B0200083B0200083B0200083B0200083C
:1000B000AD1F00083B0200083B0200083B0200089D
:1000C0003B0200083B0200083B0200083B0200081C
:1000D0003B0200083B020008A9220008AB220008EE
:1000E0003B0200083B0200083B02000800F002F857
:1000F00000F03AF80AA090E8000C82448344AAF188
:100100000107DA4501D100F02FF8AFF2090EBAE885
:100110000F0013F0010F18BFFB1A43F0010318473B
:10012000FC3800001C390000103A24BF78C878C1A0
:10013000FAD8520724BF30C830C144BF04680C60ED
:10014000704700000023002400250026103A28BF35
:1001500078C1FBD8520728BF30C148BF0B60704739
:100160001FB51FBD10B510BD00F045F91146FFF7D2
:10017000F7FF02F0ADF800F063F903B4FFF7F2FF08
:1001800003BC00F06BF90000224B19680868B0E866
:10019000F00F80F30988BFF36F8F4FF0000080F3FA
:1001A00011884EF00D0E70470000000006480068F0
:1001B000006880F3088862B661B6BFF34F8FBFF363
:1001C0006F8F00DF00BF00BF08ED00E0EFF3098094
:1001D000BFF36F8F0F4B1A6820E9F00F106008B55E
:1001E0004FF0500080F31188BFF34F8FBFF36F8F34
:1001F00002F0E4FE4FF0000080F31188BDE80840F3
:1002000019680868B0E8F00F80F30988BFF36F8FB2
:10021000704700BF20000020EFF30580704700000A
:100220000948804709480047FEE7FEE7FEE7FEE78A
:10023000FEE7FEE7FEE7FEE7FEE7FEE704480549C6
:10024000054A064B70470000AB1F0008ED00000890
:1002500088180020881E0020881A0020881A002094
:10026000032A40F2308010F0030C00F0158011F8E2
:10027000013BBCF1020F624498BF11F801CB00F8BA
:10028000013B38BF11F8013BA2F1040298BF00F80E
:1002900001CB38BF00F8013B11F0030300F02580CB
:1002A000083AC0F0088051F8043B083A51F804CBF2
:1002B000A0E80810F5E7121D5CBF51F8043B40F8B8
:1002C000043BAFF30080D20724BF11F8013B11F8C3
:1002D00001CB48BF11F8012B24BF00F8013B00F807
:1002E00001CB48BF00F8012B704710B5203AC0F091
:1002F0000B80B1E81850203AA0E81850B1E8185027
:10030000A0E81850BFF4F5AF5FEA027C24BFB1E863
:100310001850A0E8185044BF18C918C0BDE81040D4
:100320005FEA827C24BF51F8043B40F8043B08BFDD
:100330007047D20728BF31F8023B48BF11F8012BA4
:1003400028BF20F8023B48BF00F8012B704702F09D
:10035000FF0343EA032242EA024200F02CB84FF0C6
:10036000000200B5134694469646203922BFA0E805
:100370000C50A0E80C50B1F12001BFF4F7AF090711
:1003800028BFA0E80C5048BF0CC05DF804EB890002
:1003900028BF40F8042B08BF704748BF20F8022B45
:1003A00011F0804F18BF00F8012B7047704770475D
:1003B00070474FF000020429C0F0128010F0030CC7
:1003C0003FF4CFAFCCF1040CBCF1020F18BF00F822
:1003D000012BA8BF20F8022BA1EB0C01FFF7C1BF36
:1003E0005FEAC17C24BF00F8012B00F8012B48BF55
:1003F00000F8012B7047754600F02CF8AE4605005A
:100400006946534620F00700854618B020B5FFF72F
:1004100015FFBDE820404FF000064FF000074FF0F9
:1004200000084FF0000B21F00701AC46ACE8C00912
:10043000ACE8C009ACE8C009ACE8C0098D4670471B
:1004400010B50446AFF300802046BDE81040FFF72A
:1004500094BE000000487047281800200149182069
:10046000ABBEFEE72600020070470000FEB50C4A56
:1004700005260C4D07CA8DE8070000246F46296841
:10048000C8204863296837F914008862C82000F042
:100490003DF9641CE4B2B442F1DB00F00BF8FEBDA0
:1004A000F839000868080020FEE7012001F04AFF43
:1004B000FBE700000249002009684863704700001C
:1004C0006808002070477047704772B6FEE770B545
:1004D000040003D094F8200010B104E0012070BDA6
:1004E000204600F081F82068016841F001010160B8
:1004F00000F014FA0546052604E000F00FFA401B50
:100500000A2811D820684068C007F6D02068016822
:1005100021F00201016000F001FA05460BE000F055
:10052000FDF9401B0A2806D9606A40F40030606279
:1005300084F82060D2E7206840688007EFD4207EEE
:100540000128206801683DD021F080010160607EB3
:1005500001282068016838D021F040010160A07EA8
:1005600001282068016833D021F020010160E07E7D
:100570000128206801682ED041F010010160207F21
:1005800001282068016829D021F008010160607FFE
:1005900001282068016824D021F004010160D4E919
:1005A00002010843D4E90412114308436168491E5B
:1005B00008432168C86100206062012084F820009F
:1005C000002070BD41F08001C0E741F04001C5E767
:1005D00041F02001CAE721F01001CFE741F0080106
:1005E000D4E741F00401D9E710B586B000210091AD
:1005F0000191029103910068174988422AD1174856
:10060000C16941F00071C161C16901F000710491DB
:10061000816941F0040181618069114C00F004009E
:1006200004904FF4006000906946204600F080F886
:10063000A0140090022001900320039069462046F8
:1006400000F076F800220121142000F0F7FA1420BF
:1006500000F0E6FA06B010BD006400400010024051
:100660000008014010B5040002D0607910B106E026
:10067000012010BD00202071204600F005F8012067
:100680006071002010BD000008B50068064988426E
:1006900008D10648416941F040014161406900F0DC
:1006A0004000009008BD00000030024000100240F1
:1006B00030B528B308C8134914221944B1FBF2F12C
:1006C0008900C16310498163022141771A6843F6AA
:1006D000F0718A43D0E900142143D0E902452C434C
:1006E000214304692143446921438469214311431F
:1006F000196000214163012242770177084630BD2D
:10070000012030BDF8FFFDBF0000024070B5044677
:1007100000F004F90546601C02D004480078044447
:1007200000F0FCF8401BA042FAD370BD140000207A
:100730002DE9F84FDFF8B891002409F1040A0AF115
:10074000040B23460F270BF1040EC9E00125A54039
:100750002A40AA427DD1674ED1F804C0ACEB06080E
:10076000B44532D014DCBCF1030F3AD009DCBCF143
:10077000000F2AD0BCF1010F1CD0BCF1020F31D107
:100780001DE0BCF1110F17D0BCF1120F2AD119E0F6
:10079000B8F5881F19D006DCB8F5803F15D0B8F53C
:1007A000801F1FD111E0B8F5001F0ED0B8F5041F4F
:1007B00018D10AE0CB6815E0CB681B1D12E0CB68AE
:1007C00008330FE0CB680C330CE08B682BB1012BA6
:1007D0004FF0080303D0456104E0042302E0056103
:1007E00000E00023FF2A01D8064601E000F10406DC
:1007F0004FEA840501D9A5F12005D6F8008007FA53
:1008000005FC28EA0C0803FA05F548EA0508C6F8CD
:1008100000804D68ED0062D5374DAE6946F00106A7
:10082000AE61AD6924F0030605F001050095334D76
:1008300006EB050CDCF80850A607360F07FA06F899
:1008400025EA0805DFF8B880404503D14FF00008DD
:1008500017E044E0DFF8AC80404502D14FF00108DA
:100860000FE0DFF8A480404502D14FF0020808E015
:10087000DFF89880404502D14FF0030801E04FF0C7
:10088000040808FA06F848EA0508CCF808804D681C
:10089000D9F80060ED034D4601D5164300E09643BC
:1008A0002E604D68DAF80060AD03554601D5164359
:1008B00000E096432E604D68DBF80060ED025D4677
:1008C00001D5164300E096432E604D68DEF80060C7
:1008D000AD02754601D5164300E096432E60641CB8
:1008E0000D682A46E5407FF431AFBDE8F88F00007F
:1008F00000040140000011100010024000000140FF
:1009000000080140000C01400010014000140140AB
:100910000AB1016170470904FBE7000001488068E3
:10092000704700001400002070B5040025D094F832
:100930003D00002520B984F83C50204600F0B8F86E
:10094000242084F83D002068016821F00101016045
:100950002068016841F4004101602068016821F4C9
:100960000041016000F052FA4D4A6168914201D89D
:100970004C4900E04C49884201D2012070BD4B49EE
:100980002368B0FBF1F15E6826F03F060E435E601F
:100990006368934206D94FF4967359434FF47A73C0
:1009A000B1FBF3F12368491C1E6A26F03F06314370
:1009B00019626168914210D84900401EB0FBF1F203
:1009C000521CC2F30B02042A01D2042022E0B0FB25
:1009D000F1F0401CC0F30B001CE0A268F2B301EB85
:1009E000C10303EB0116431EB3FBF6F35B1C43F498
:1009F00080431B0549D092B301EBC10202EB011108
:100A0000401EB0FBF1F0401CC0F30B0040F48040EE
:100A100040F400402168CA694CF6FF739A431043C2
:100A2000C861D4E9071001432068026822F0C002BF
:100A300011430160D4E9030101432068826848F250
:100A4000FF339A4311438160D4E9050108432168CB
:100A5000CA6822F0FF021043C86001E00EE016E011
:100A60002068016841F0010101602564202084F8BC
:100A70003D00256384F83E50002070BD01EB410627
:100A8000431EB3FBF6F35B1CB3E70120C2E701EBA7
:100A90004101401EB0FBF1F0401CC0F30B00B7E772
:100AA000A086010080841E0000093D0040420F0026
:100AB00010B586B000210091019102910391006868
:100AC0000F4988421AD10F4CA06940F00800A0617C
:100AD000A069694600F008000490C0200090122030
:100AE0000190032003900848FFF722FEE06940F4DC
:100AF0000010E061E06900F40010049006B010BD41
:100B00000054004000100240000C0140024881687F
:100B1000027811448160704714000020074810B526
:100B2000016841F010010160032000F0A7F80F20D8
:100B300000F006F800F050F8002010BD0020024040
:100B400030B50546204887B0C16941F00101C16157
:100B5000C06906A900F00100009001A800F036F974
:100B60000498B8B100F052F9400018494FF08042A3
:100B7000B0FBF1F11648491E0260416040F2E732D5
:100B80000021C0E903218160816100F017FC0400AD
:100B900003D015E000F03AF9E7E70D4800F050FC0B
:100BA00004000DD11C2000F03BF8102D07D20022CC
:100BB00029461C2000F042F80648056000E00124A8
:100BC00007B0204630BD00000010024040420F0038
:100BD000C0090020180000200F4808B5816941F0C5
:100BE00001018161816901F001010091C16941F058
:100BF0008051C161C069002200F0805000900F2137
:100C0000901E00F01BF80548416821F0E06141F0BA
:100C10000071416008BD000000100240000001406A
:100C2000002809DB00F01F020121914040098000EB
:100C300000F1E020C0F8001170470000F0B40E4B46
:100C40001B680C46C3F30223C3F10705042D00D92A
:100C50000425191D072901D2002300E0DB1E01260F
:100C600006FA05F1491E214099409E40761E164025
:100C70003143F0BC01F01CBB0CED00E0064900F074
:100C8000070208684FF6FF03184040EA0220034AB3
:100C900010430860704700000CED00E00000FA050A
:100CA0002DE9F0470F46050061D0434E306800F053
:100CB0000700B84209D2306820F00700384330609E
:100CC000306800F00700B84251D128683B4C8107DA
:100CD00012D5400703D5606840F4E0606060287872
:100CE000000703D5606840F4605060606068A968E0
:100CF00020F0F000084360602878C00728D06868BA
:100D0000012810D02168022810D0890700292EDA86
:100D1000616821F0030101436160FFF7FFFD804638
:100D200041F288390DE021688903EFE78901EDE799
:100D3000FFF7F4FDA0EB0801494502D90320BDE807
:100D4000F0876068696800F00C00B0EB810FEFD1AC
:100D5000306800F00700B8420BD9306820F0070077
:100D600038433060306800F00700B84201D00120FD
:100D7000E5E72878400705D56068E96820F4E06079
:100D8000084360602878000706D56068296920F468
:100D9000605040EAC100606000F058F86168084A9D
:100DA000C1F30311515CC840064908600648006859
:100DB000FFF7C6FE0020C2E70020024000100240FC
:100DC000E039000810000020180000200F22026007
:100DD0000C4A536803F003034360536803F0F003C5
:100DE0008360536803F4E063C36052684FF4E063C8
:100DF00003EAD20202610448006800F007000860BC
:100E000070470000001002400020024004480549DD
:100E100000684968044AC1F30221515CC840704728
:100E20001000002000100240F03900080448054975
:100E300000684968044AC1F3C221515CC840704748
:100E40001000002000100240F039000812A185B007
:100E50000FC98DE80F0014A0144A0068049051686F
:100E6000134801F00C03042B10D0082B0ED1C1F352
:100E70008343C9031DF803000AD5516804AAC1F3CE
:100E80004041515C0A4A5043B0FBF1F005B0704755
:100E900008494843FAE70000020304050607080969
:100EA0000A0B0C0D0E0F1010010200000010024082
:100EB00000127A0000093D002DE9F84F040070D0BF
:100EC0002078C04DC00749D06868C0F38100012870
:100ED00007D06868C0F38100022809D16868C003A0
:100EE00006D52868800339D560680028E7D035E04A
:100EF0006068B0F5803F0BD010B1B0F5A02F11D0D5
:100F0000286820F480302860286820F4802002E0DF
:100F1000286840F480302860606890B1FFF7FEFCDC
:100F200006460AE0286840F480202860F0E700BF09
:100F3000FFF7F4FC801B642873D828688003F7D57A
:100F40000CE0FFF7EBFC064605E000BFFFF7E6FC10
:100F5000801B6428F0D828688003F7D420789A4E44
:100F600080074FF001094FF0000839D5686810F08C
:100F70000C0F07D06868C0F38100022809D16868A7
:100F8000C00306D42868800714D52069012808D139
:100F900010E02069B0B1C6F80090FFF7BFFC07462B
:100FA00005E00AE1FFF7BAFCC01B0228C4D8286894
:100FB0008007F7D52868616920F0F80040EAC10091
:100FC00028600DE0C6F80080FFF7A8FC074604E0A3
:100FD000FFF7A4FCC01B022823D828688007F7D499
:100FE000207800072CD57948A169D9B1C0F80090C4
:100FF000FFF794FC074604E0FFF790FCC01B0228B3
:101000000FD8686A8007F7D571484FF4FA51006825
:10101000B0FBF1F0009000BF0098411E0091FAD2A1
:101020000EE080E0C0F80080FFF778FC074604E09F
:10103000FFF774FCC01B022875D8686A8007F7D4D4
:101040002078400760D5E8690027C00008D4E86927
:1010500040F08050E861E869012700F0805000907E
:101060005C480168C90513D40168834641F4807166
:101070000160FFF753FC824606E000BFFFF74EFC1D
:10108000A0EB0A0064284ED8DBF80000C005F5D5B7
:10109000E06801280AD008B1052813D0286A20F09A
:1010A00001002862286A20F0040002E0286A40F06B
:1010B00001002862E06841F2883B98B1FFF72EFCFE
:1010C00082460BE0286A40F004002862EEE700BF89
:1010D000FFF724FCA0EB0A0159455AD8286A80077B
:1010E000F6D50CE0FFF71AFC824605E0FFF716FC88
:1010F000A0EB0A0159454CD8286A8007F6D41FB1E5
:10110000E86920F08050E861E06988B36968C1F35C
:101110008101022944D00228C6F8608004D0FFF77C
:10112000FDFB044638E034E0FFF7F8FB074604E037
:10113000FFF7F4FBC01B02282BD828688001F7D4E6
:10114000206AB0F5803F05D16868A16820F40030BE
:1011500008436860D4E908010843696821F4741100
:1011600008436860C6F86090FFF7D8FB044606E0C5
:1011700025E000BFFFF7D2FB001B022809D8286832
:101180008001F7D51BE000BFFFF7C8FB001B02285A
:1011900002D90320BDE8F88F28688001F4D40EE05E
:1011A0000128F7D06868226A00F48031914204D1A6
:1011B000616A00F47010884201D00120EAE7002043
:1011C000E8E7000000100240000042428004424272
:1011D000100000200070004070B5040009D0606A63
:1011E000002540B125616561A56294F8510040B1C8
:1011F0000CE0012070BD6068B0F5827FF4D0E5613D
:10120000F2E784F85050204600F040F8022084F8BD
:1012100051002068016821F040010160A088218907
:1012200000F4827001F404410843A18901F40061D3
:101230000843217C01F002010843217D01F00101F6
:101240000843218B01F400710843217F01F038012C
:10125000084394F8201001F080010843218D01F427
:101260000051084321680860A069042101EA104088
:10127000216848602068C16921F40061C161656529
:10128000012084F85100002070BD000030B585B009
:101290000024009401940294039400681449884245
:1012A00023D11448816941F480518161816901F43D
:1012B00080510491816941F00401816180690E4D82
:1012C00000F004000490A020009002200190032070
:1012D000039069462846FFF72BFA4020CDE9000429
:1012E000694628460294FFF723FA05B030BD000096
:1012F0000030014000100240000801407047704774
:1013000010B590F83C20012A22D0012280F83C2020
:10131000CA688C6822F4407222434C6822F48062CE
:1013200022430C6822F4006222430C6922F48052AA
:1013300022434C6922F400522243C969002322F45B
:1013400080420A4301684A6480F83C30002010BDA6
:10135000022010BD70B590F83C20012A26D001244F
:1013600080F83C40022280F83D2003685A689D685E
:1013700022F070060A6832435A600D4B02689A42A6
:1013800008D0B2F1804F05D00A4B9A4202D00A4BE6
:101390009A4204D1496825F080031943916080F88E
:1013A0003D40002180F83C10084670BD022070BD11
:1013B000002C0140000400400008004010B504006B
:1013C00003D094F83D0010B107E0012010BD0020CB
:1013D00084F83C00204600F01FF8022084F83D000D
:1013E000211D206800F0E8FD012084F8460084F803
:1013F0003E0084F83F0084F8400084F8410084F8FF
:10140000420084F8430084F8440084F8450084F8DE
:101410003D00002010BD000008B500680649884264
:1014200008D10648816941F400618161806900F456
:101430000060009008BD0000002C01400010024038
:1014400090F83D10012901D001207047022180F859
:101450003D100168CA6842F00102CA6000680B4989
:10146000884208D0B0F1804F05D00949884202D0A7
:101470000849884204D1816801F00701062903D098
:10148000016841F00101016000207047002C01401B
:10149000000400400008004070B5044690F83C008D
:1014A000012817D0012584F83C50022084F83D0023
:1014B0002068826822F0770222F47F428260086806
:1014C000502830D00DDC20284DD005DC98B31028F2
:1014D0003BD148E0022070BD302844D0402834D1B0
:1014E00039E0602828D0702806D0B0F5805F2CD075
:1014F000B0F5005F29D10AE0CB68D1E9012120686D
:1015000000F09DFD2068816841F0770109E0CB681B
:10151000D1E90121206800F092FD2068816841F442
:101520008041816011E0CA684968206800F03CFE93
:101530005021206807E016E0CA684968206800F07A
:1015400044FE6021206800F084FD84F83D500020B6
:1015500084F83C0070BDCA684968206800F024FE29
:1015600040212068EFE7226801461046EBE770470C
:1015700070B50446006801694FF00005C94389074A
:1015800015D4C168C943890711D4E91E016101203E
:101590002077206880698007204602D0FFF7E7FFA8
:1015A00004E000F0F3F8204600F096F92577206873
:1015B0000169C943490717D4C168C943490713D40E
:1015C0006FF004010161022020772068806910F427
:1015D000407F204602D0FFF7CAFF04E000F0D6F8B3
:1015E000204600F079F9257720680169C943090789
:1015F00016D4C168C943090712D46FF0080101610C
:10160000042020772068C0698007204602D0FFF7B9
:10161000AEFF04E000F0BAF8204600F05DF925774F
:1016200020680169C943C90617D4C168C943C906FE
:1016300013D46FF010010161082020772068C06981
:1016400010F4407F204602D0FFF791FF04E000F045
:101650009DF8204600F040F9257720680169C943CC
:10166000C90708D1C168C943C90704D1891E0161EE
:10167000204600F081F920680169C943090609D4B0
:10168000C168C943090605D46FF080010161204695
:10169000FFF734FE20680169C943490609D4C168CF
:1016A000C943490605D46FF040010161204600F0AE
:1016B0006AF920680169C94389060BD4C168C94326
:1016C000890607D46FF0200101612046BDE8704013
:1016D000FFF715BE70BD000010B586B00021009167
:1016E000019102910391234B02682349022423486C
:1016F0009A4222D18A6942F008028A618A6902F01C
:10170000080204928A6942F004028A61896903949A
:1017100001F0040104914FF44041CDE90014694601
:10172000FFF706F84FF4E060CDE90004694614487D
:101730000394FEF7FDFF06B010BD124B9A42FAD19A
:101740008A6942F008028A618969039401F00801FC
:1017500004911021CDE900146946FEF7E9FF0A481B
:10176000416821F4406141F0E06141F40061416071
:10177000E1E70000002C014000100240000C014095
:10178000000801400004004000000140704770B5AF
:10179000044690F83C000D4601280AD0012084F848
:1017A0003C0042B1042A18D0082A2AD00C2A4DD174
:1017B00039E0022070BD206800F054FC2068816987
:1017C00041F0080181612068816921F00401816193
:1017D000206881692A69114311E0206800F06AFCE1
:1017E0002068816941F4006181612068816921F488
:1017F00080618161206881692A6941EA02218161F1
:1018000024E0206800F082FC2068C16941F00801F2
:10181000C1612068C16921F00401C1612068C1690A
:101820002A69114311E0206800F09CFC2068C1691E
:1018300041F40061C1612068C16921F48061C16126
:101840002068C1692A6941EA0221C161002084F847
:101850003C0070BD10B5040003D094F83D0010B1F9
:1018600007E0012010BD002084F83C00204600F075
:101870001FF8022084F83D00211D206800F09CFB29
:10188000012084F8460084F83E0084F83F0084F884
:10189000400084F8410084F8420084F8430084F852
:1018A000440084F8450084F83D00002010BD00008D
:1018B00008B500680649884208D10648C16941F068
:1018C0000201C161C06900F00200009008BD000083
:1018D00000040040001002407047000010B50446AC
:1018E000022249B104290ED0082913D094F84100EE
:1018F000012816D0012010BD94F83E000128F9D12E
:1019000084F83E200FE094F83F000128F2D184F8DB
:101910003F2008E094F840000128EBD184F84020F3
:1019200001E084F841200122206800F07BFB0F4990
:101930002068884203D1426C42F40042426420682D
:10194000884208D0B0F1804F05D00949884202D0C2
:101950000849884204D1816801F00701062903D0B3
:10196000016841F001010160002010BD002C014020
:1019700000040040000800400068B0F1804F01D131
:10198000FFF7C4B87047704770B5040004D094F8EE
:101990003D00002510B106E0012070BD84F83C50E8
:1019A000204600F023F8242084F83D002068C16818
:1019B00021F40051C160204600F01AFC2068016942
:1019C00021F4904101612068416921F02A014161BF
:1019D0002068C16841F40051C1602564202084F86A
:1019E0003D0084F83E00002070BD00002DE9F0416C
:1019F00086B0002400940194029403940646444D5A
:101A00000368444902200322AB4252D1CB6943F41C
:101A10000033CB61CB6903F4003304938B6943F04B
:101A200004038B6189693C4D01F004010491042198
:101A3000CDE90010039269462846FEF779FE08209A
:101A4000CDE90004694628460294FEF771FE344D44
:101A500032484FF08008C5E90004C5E902482C610E
:101A600087146C61C5E906472846FEF721FE08B1D8
:101A7000FEF72BFDB5636E62294D284844351430BE
:101A800001C51020A5E81101254845F8104944304A
:101A90006C61C5E90647FEF70BFE08B1FEF715FDC0
:101AA00075630022012126206E62FFF7C7F8262009
:101AB00029E01C4DAB4228D1CB6943F48023CB6194
:101AC000CB6903F4802304938B6943F008038B6193
:101AD0008969039201F0080104912915CDE90010EC
:101AE000114D69462846FEF723FEE814CDE90004AF
:101AF000694628460294FEF71BFE00220221272099
:101B0000FFF79CF82720FFF78BF806B0BDE8F081BF
:101B10000044004000100240000801406C000240F8
:101B20003809002000480040000C0140FEE700009A
:101B3000104810B50E4901600421416000214FF0AA
:101B40004072C0E902124FF4003202615201426158
:101B50000176417601228276C17601774177FEF7E0
:101B6000B6FC002803D0BDE81040FEF7AEBC10BDA7
:101B7000006400404C070020074910B50548086084
:101B80000846FEF76FFD002803D0BDE81040FEF7C1
:101B90009CBC10BD00300240080000200D4808B574
:101BA000416941F0010141614069002200F00100FA
:101BB000009001211020FFF741F81020FFF730F8C6
:101BC000002202211120FFF739F8BDE8084011205A
:101BD000FFF726B80010024010B58EB01C220B494A
:101BE0006846FEF782FB0021684600F0B7FB084C10
:101BF00006491C2220601C3107A8FEF776FB002155
:101C000007A800F0ABFB60600EB010BDA83900085B
:101C100000000020F0B585B000242648009401940F
:101C200002940394816941F020018161816901F08E
:101C300020010491816941F004018161816901F011
:101C400004010491816941F00801816180691A4EA3
:101C500000F008000490012240F203313046FEF704
:101C600057FE0125CDE90054144F694638460294C9
:101C7000FEF75EFD122000901148CDE9010469468F
:101C80003846FEF755FD0320CDE90005029569466B
:101C900030460395FEF74CFD4FF44070CDE900054A
:101CA0000220CDE9024069463046FEF741FD05B00D
:101CB000F0BD000000100240000C0140000801408F
:101CC000000011100D4810B50B4901600C4941602E
:101CD00000214FF480428160C0E9031241618161BB
:101CE000C1610162FEF720FE002803D0BDE810406C
:101CF000FEF7EBBB10BD000000540040740700204D
:101D0000A0860100104810B50E4901604FF48271A1
:101D10004160002102228160C0E903120122426178
:101D2000520282613822C0E90721416281620A21A0
:101D3000C162FFF751FA002803D0BDE81040FEF75A
:101D4000C4BB10BD00300140C807002010B596B0DC
:101D500000240F9410941194129413941C2168463B
:101D60001494FEF7FCFA202107A8FEF7F8FA304891
:101D70002E4901600121C0E9011440F2E731C0E9B8
:101D8000031444618461FFF719FB08B1FEF79DFB62
:101D90004FF480500F900FA92548FFF77DFB08B145
:101DA000FEF793FB2248FFF755FD08B1FEF78DFBC8
:101DB000139413A91E481494FFF7CCFA08B1FEF748
:101DC00084FB6020CDE900040294039404940594FC
:101DD0000022694616480694FFF7D9FC08B1FEF7C1
:101DE00074FB042269461248FFF7D1FC08B1FEF7E4
:101DF0006CFB082269460E48FFF7C9FC08B1FEF7E4
:101E000064FB0794089409944FF400500A94CDE9B8
:101E10000B4007A906480E94FFF772FA08B1FEF7C7
:101E200054FB0348FFF758FC16B010BD002C0140CE
:101E30002008002010B58AB0002407941C216846B1
:101E40000894FEF78CFA1648144901604721C0E94E
:101E5000011440F2E731C0E903148461FFF7FAFC92
:101E600008B1FEF732FB079407A90D480894FFF765
:101E700071FA08B1FEF729FB6020CDE90004029455
:101E80000022694606480494FFF781FC08B1FEF77A
:101E90001CFB0348FFF720FC0AB010BD0004004003
:101EA000680800200C4810B50A4901604FF4E13180
:101EB0004160002181600C22C160C0E9041281618F
:101EC000C161FFF761FD002803D0BDE81040FEF7B7
:101ED000FCBA10BD00440040B00800200C4810B50A
:101EE0000A4901604FF4E1314160002181600C2218
:101EF000C160C0E904128161C161FFF745FD00289E
:101F000003D0BDE81040FEF7E0BA10BD0048004025
:101F1000F4080020FEE7FEE7012000F013FAFBE7DB
:101F200010B5502080F31188BFF34F8FBFF36F8F30
:101F300001F08EFB18B104494FF08050086000207A
:101F400080F3118810BD000004ED00E030B58FB0C3
:101F500028216846FEF703FA14210AA8FEF7FFF9C4
:101F600001210804CDE90010002402940225049107
:101F7000CDE907504FF4E01009906846FEF79CFF4A
:101F800008B172B6FEE70F20CDE90A054FF4806074
:101F9000CDE90C4002210AA80E94FEF781FE00282C
:101FA00001D072B6FEE70FB030BD70470148FFF7B1
:101FB000DFBA0000C0090020F0B50268164B174CCC
:101FC000174D4FF08047984205D0B84203D0A04249
:101FD00001D0A84203D122F070064A6832439842E9
:101FE00005D0B84203D0A04201D0A84203D122F4C8
:101FF0004074CA6822434C6922F080022243026086
:102000008A68C2620A688262984201D109690163E2
:1020100001214161F0BD0000002C0140000400409E
:102020000008004010B501F01F030121046A994027
:102030008C430462016A9A401143016210BD10B5DD
:10204000846842EA032224F47F440A4322438260E4
:1020500010BD826822F070020A4342F007018160DD
:102060007047000030B5026A22F001020262026A83
:102070004368846924F073050C682C4322F0020540
:102080008A682A430A4DA8420BD122F00805CA6883
:1020900023F440732A434D6922F004021D438B69E7
:1020A0002B434360846149684163026230BD000094
:1020B000002C014030B5026A22F010020262026A6E
:1020C000436884690D6824F4E64444EA05248D6875
:1020D00022F0200242EA05120B4DA8420ED1CD6833
:1020E00022F0800242EA05124D6923F4406343EA7C
:1020F00085038D6922F0400243EA850343608461D1
:1021000049688163026230BD002C014030B5026A2B
:1021100022F480720262036A4268C46923F4007385
:1021200024F073050C682C438D6843EA05230C4D9D
:10213000A8420ED1CD6823F4006343EA05234D691C
:1021400022F4405242EA05128D6923F4806342EA88
:1021500005124260C4614968C163036230BD00007A
:10216000002C014030B5026A22F480520262046AF7
:102170004268C3690D6823F4E64343EA05238D688A
:1021800024F4005444EA0534064DA84204D14D69B4
:1021900022F4804242EA85124260C36149680164C8
:1021A000046230BD002C014010B5036A046A24F0BB
:1021B00001040462846924F0F00444EA021423F068
:1021C0000A020A438461026210BD10B5036A23F05B
:1021D000100303628369046A23F4704343EA023202
:1021E00024F0A00343EA01118261016210BD0000E6
:1021F00070B5044600680169E26821F4405111435A
:1022000001612169A0680843616908432168CA68BF
:1022100041F20C639A430243CA6020684169A26993
:1022200021F44071114341611E492068884202D166
:10223000FEF7FCFD01E0FEF7E9FD00EBC00101EB5C
:102240000012606864218000B2FBF0F3B3FBF1F38D
:102250006FF018067343B2FBF0F5B2FBF0F605EB36
:102260008305322303EB0515B5FBF1F5B6FBF1F65B
:1022700005F0F00505EB0615B2FBF0F6B2FBF0F049
:10228000B0FBF1F06FF01802504306EB800003EB57
:102290000010B0FBF1F0216800F00F0028448860C6
:1022A00070BD000000380140704770477047FEE77E
:1022B0000907090E002804DB00F1E02080F8001473
:1022C000704700F00F0000F1E02080F8141D704707
:1022D000FEF724FCFFF73AFEFFF79CFCFFF75EFCDD
:1022E000FFF726FCFFF7EEFCFFF70CFDFFF72EFDD6
:1022F000FFF7A0FDFFF7D6FDFFF7F0FDFFF73CFC71
:1023000000210B48FFF7EAFA04210948FFF7E6FA33
:1023100008210748FFF7E2FA00210648FFF7DEFA36
:10232000FEF7A4F8FFF758FC00F013F8FEE70000F2
:10233000200800206808002001460020842900D0E1
:10234000C81C704710B500B9012000F083FD0020C3
:1023500010BD10B500F0E6FD002010BD7FB50D46A4
:1023600004464169B0F9080081B1A16971B1FFF774
:10237000E3FFD4E905128DE80700D4E900102B46ED
:10238000226901F026F9039004B070BDFFF7D4FF75
:1023900003A9CDE90001208A2B4682B2D4E90010BE
:1023A00001F0EAF8012801D00020EDE70398EBE7FF
:1023B0002DE9F041184C0F46054666692068001D5E
:1023C00000F018FC38B9206890F82C1001208840E3
:1023D000A1698143A161681C07D137B12168BDE8BB
:1023E000F0410E48091D00F055BC20683544B54247
:1023F0004560216805D2A068BDE8F041091D00F0E4
:1024000031BC6068091D00F02DFC206B854200D2B4
:102410002563BDE8F081000020000020240B00208F
:102420002DE9F041054600F041FC2E4C2069401C8E
:10243000206120682C4F10B1E06940B32DE0256089
:102440002069012829D1002606EB860007EB8000D1
:1024500000F0FAFB761C072EF6D323488C3000F0F0
:10246000F3FB2148A03000F0EFFB1F48B43000F030
:10247000EBFB1D48C83000F0E7FB1B48DC3000F0E8
:10248000E3FB19488C3060601430A06005E02068E0
:10249000E96AC06A884200D82560E06A401CE062B0
:1024A0006864E96A0120A26988401043A06101EBD9
:1024B000810007EB8000291D00F0ECFB00F016FC0A
:1024C000E06900280CD02068E96AC06A884207D217
:1024D00006494FF080500860BFF34F8FBFF36F8FF6
:1024E000BDE8F08120000020480A002004ED00E053
:1024F00038B500F0DBFB104CA068C8B90F4800F0FD
:10250000A3FB0E48143000F09FFB0C4820601430F1
:1025100060600A4B00202833009003F150020C2128
:102520000A2000F0CDFDA06010B105A100F05CFC18
:10253000BDE8384000F0DABB5C000020380B00201A
:10254000546D72510000000030B4026C0B46002A3A
:102550000BD0C1681144C1604468A14201D3016835
:10256000C16030BC1846FDF77BBE30BC70472DE91A
:10257000F041856B174604460026026C82B1C7B154
:10258000E068FDF76DFEE168206C091AE1602268E1
:10259000914202D26168081AE060022F16D017E05B
:1025A0002068A8B9606801F0B7F8064600206060AE
:1025B0000EE0A068FDF754FE216CA0680844A060FE
:1025C0006168884204D32068A06001E005B16D1EF7
:1025D0006D1CA5633046BDE8F08110B5044690F847
:1025E000590058B101280CD002280FD0502080F398
:1025F0001188BFF34F8FBFF36F8FFEE7206B00F0A2
:1026000089FB2046BDE8104000F084BB10BD0000EF
:1026100010484FF44061420706D0C01D0D4920F01C
:102620000700411AC1F540610B4A00230144C2E989
:1026300000030839103A21F0070111604B600B606C
:102640000B1AC0E9001393604FF000405360D06054
:1026500070470000280C002080000020144E154C0C
:10266000A6F1C8074FF08058DFF84C9012E000BF89
:1026700000F01CFBF068C568281D00F0BBFA20695B
:10268000401E2061E068401EE06000F02FFB2846FD
:10269000FFF7A3FFE0680028EAD138680128F9D9DC
:1026A000C9F80080BFF34F8FBFF36F8FF2E70000D0
:1026B000100B00202000002004ED00E070B51D4646
:1026C000049C51B1C4F80020C4E90F010121204647
:1026D00000F02AFD84F84C5070BD2460F4E72DE929
:1026E000F0470E46DDE90984174682469100994677
:1026F000089DA522206BFDF72AFE6FF00301206BD9
:1027000001EB8701084420F00707780707D0502025
:1027100080F31188BFF34F8FBFF36F8FFEE722184E
:10272000315C82F83410315C11B1401C1028F6D3B2
:10273000002684F84360072D00D30625E562C4E92E
:102740001356201D00F08BFA04F1180000F087FAF0
:102750002461C5F107006462A061666584F8586071
:102760004A465146384600F033FA2060B8F1000F6F
:1027700001D0C8F80040BDE8F087000030B511492D
:1027800000E011460A688242FBD34B685C18844221
:1027900003D1406818444860084643681C189442B6
:1027A00009D1084C103C2468A24209D052681A444E
:1027B00042600A6812680260814200D0086030BD41
:1027C0000460F9E78000002070B5002441600B4DE3
:1027D0000061914206D8D11A8269914206D2011D48
:1027E000686807E09A4203D2994201D3012403E0CA
:1027F000011D286800F036FA204670BD5C000020FC
:1028000010B5044600F052FAA06B28B15FF0000446
:1028100000F06CFA204610BD0124F9E730B587B00E
:102820002C4D4EE0049800284BDB069C606910B1EB
:10283000201D00F0DFF902A800F0B8F80246049865
:102840000A283ED2DFE800F00505053D26370505DC
:102850003D260598A169034601442046FFF7B4FFD1
:1028600000B3616A20468847E069012829D1002029
:1028700000900598A169002342181946204601F0EE
:1028800063F878B9502080F31188BFF34F8FBFF3FE
:102890006F8FFEE70598A06128B181181346204686
:1028A000FFF792FF0DE0502080F31188BFF34F8FA8
:1028B000BFF36F8FFEE794F82C0010B9204600F0AC
:1028C00029FA002204A9A86800F080FD0028A9D1F7
:1028D00007B030BD5C0000202DE9FC410F460546E5
:1028E00000F064FB01A800F061F80446019818B1FB
:1028F00000F098FFBDE8FC81224EAFB1706800681F
:10290000A8B30027291B3A46B06800F081FA00F00E
:1029100089FF0028EED11C494FF080500860BFF3BA
:102920004F8FBFF36F8FE5E7A542EBD800F07AFF3A
:1029300030682746C068C468201D00F05BF9E06974
:10294000012810D1A0692B4641193A462046FFF7CD
:102950003BFF40B100200346014600902A46204636
:1029600000F0F2FF20B1616A20468847C2E707E025
:10297000502080F31188BFF34F8FBFF36F8FFEE7B6
:102980000127BFE75C00002004ED00E00648416835
:10299000096829B14168C968C96849680163704715
:1029A0004FF0FF31FAE700002000002070B5054627
:1029B00000F048FE064E04463069844203D200F01F
:1029C00009F8012000E0002028602046346170BD35
:1029D0005C000020F8B5194D1FE0C068C4680668A7
:1029E000201D00F007F9616A20468847E069012848
:1029F00013D1A0693044B04206D924616060211D22
:102A0000286800F02FF908E00020034601460090F6
:102A10003246204600F098FF38B128680168002946
:102A2000DBD16968C5E90010F8BD502080F311883A
:102A3000BFF34F8FBFF36F8FFEE700005C000020F5
:102A400008484068401C4FF0500080F3118804D0C3
:102A5000BFF34F8FBFF36F8FFEE7BFF34F8FBFF30F
:102A60006F8FFEE788000020074C2068016841B1A5
:102A7000C0680021D0F80000FFF72EFFFFF7CEFE60
:102A8000F3E701210020F7E75C0000202DE9F04189
:102A9000044600F00BF994F9455004F1240609E0CE
:102AA000606A48B1304600F083FE08B100F000FAD9
:102AB0006D1E6DB2002DF3DC4FF0FF3684F84560DB
:102AC00000F014F900F0F2F894F9445004F1100702
:102AD00009E0206948B1384600F06AFE08B100F00C
:102AE000E7F96D1E6DB2002DF3DC84F84460BDE89B
:102AF000F04100F0FBB800002DE9F0410546002749
:102B000000F054FA314E306808B9FFF781FDF068E3
:102B100005424BD1C5B3083568070ED005F0070054
:102B2000C0F108000544680707D0502080F31188E1
:102B3000BFF34F8FBFF36F8FFEE72DB370688542F1
:102B400034D82248103001460C6801E020460C467B
:102B50006168A94202D221680029F7D131688C420C
:102B600024D007682168016060680837411B10297C
:102B70000FD96019420708D0502080F31188BFF3A5
:102B80004F8FBFF36F8FFEE710E041606560FFF786
:102B9000F5FD61687068401A7060B268904200D2BA
:102BA000B060F06801430020C4E9000100F03AFE83
:102BB000780707D0502080F31188BFF34F8FBFF301
:102BC0006F8FFEE73846BDE8F081000070000020FE
:102BD00010B5031F4FF080741C601B1F21F0010112
:102BE0001960191F024B0B60143940380A6010BD80
:102BF000412A0008D0E9013201699A60D0E9012335
:102C00005A604A68824201D182684A6000220261A9
:102C10000868401E0860086870470000034B0360A6
:102C200003F15C0008608020106070479400002071
:102C3000044B036003F15C0008604FF48070106087
:102C400070470000F002002000F108014FF0FF3251
:102C5000C0E90112C16001610021016070470021DB
:102C60000161704730B50B685A1C02D000F10802B0
:102C700002E0026904E02246546825689D42FAD9C0
:102C800053684B6099608A60516008610168491C13
:102C9000016030BD42684A6093688B6093685960F8
:102CA000916008610168491C01607047502080F301
:102CB0001188BFF34F8FBFF36F8F0A494868401CDC
:102CC000486001280CD10848006810F0FF0F07D0B9
:102CD000502080F31188BFF34F8FBFF36F8FFEE753
:102CE000704700008800002004ED00E008494868B3
:102CF00028B1401E486001D180F3118870475020F0
:102D000080F31188BFF34F8FBFF36F8FFEE7000092
:102D10008800002070B5002827D0144DA0F10804C9
:102D20006168E868014207D1502080F31188BFF341
:102D30004F8FBFF36F8FFEE722683AB1502080F3C8
:102D40001188BFF34F8FBFF36F8FFEE78143616040
:102D500000F02CF960686968084468602046FFF755
:102D60000DFDBDE8704000F05DBD70BD700000203D
:102D70004FF0E02000210161816105494FF47A7232
:102D80000968B1FBF2F1491E4161072101617047F9
:102D90001000002010B5FDF73FFA114910280ED39E
:102DA00000F1E02090F8F0030A78904207D250201A
:102DB00080F31188BFF34F8FBFF36F8FFEE7094891
:102DC0000068896800F4E060884207D9502080F3E9
:102DD0001188BFF34F8FBFF36F8FFEE710BD000068
:102DE000880000200CED00E010B5084B002200BF69
:102DF00053F832401CB1521C082AF9D310BD43F8D5
:102E0000321003EBC201486010BD0000080A002028
:102E100070B515460E460446FFF748FF94F9441076
:102E20000020491C01D184F8440094F94510491C44
:102E300001D184F84500FFF759FFA06B28B92A4655
:102E4000314604F1240000F051F82046BDE87040FE
:102E5000FFF71CBE10B5020014D00F48806B38B1CC
:102E6000502080F31188BFF34F8FBFF36F8FFEE7C1
:102E700000F09CF800211046FFF79AFA00F0D2FC0F
:102E8000002807D105494FF080500860BFF34F8FED
:102E9000BFF36F8F10BD00002000002004ED00E0A4
:102EA00002498A6A02604969416070472000002037
:102EB00001490120486270472000002010B50C46EF
:102EC00050B1094909681831FFF7CCFE2046BDE82A
:102ED00010400121FFF76CBA502080F31188BFF336
:102EE0004F8FBFF36F8FFEE72000002070B51446B0
:102EF0000D4668B10A4909681831FFF7CBFE0CB1DD
:102F00004FF0FF3521462846BDE87040FFF750BA24
:102F1000502080F31188BFF34F8FBFF36F8FFEE710
:102F20002000002030B587B00024039405AA04A92E
:102F300003A80494FFF772FEDDE903010094CDE9D4
:102F40000110002315A11748059A00F042FB164D09
:102F5000002868631FD000F0C7FC012809D0401C7E
:102F600019D1502080F31188BFF34F8FBFF36F8FBB
:102F7000FEE7502080F31188BFF34F8FBFF36F8FB0
:102F80004FF0FF3028630120E8616C6107B0BDE8B5
:102F9000304000F041B807B030BD000049444C4516
:102FA000000000005D260008200000200248816B20
:102FB000491C816370470000200000201448816B89
:102FC00011B1012141627047002141628169B1FA6A
:102FD00081F1C1F11F0101EB81020E4951F822304C
:102FE0006BB101EB820101F108034A6852684A6043
:102FF0009A4201D152684A60D168016070475020FE
:1030000080F31188BFF34F8FBFF36F8FFEE700008F
:1030100020000020480A00201CB5264908780190AD
:10302000FF20087008788DF800009DF800009DF8DA
:10303000002000F0F000904207D0502080F311886B
:10304000BFF34F8FBFF36F8FFEE79DF800001A4B61
:1030500000F0500018700720986005E09DF80020EF
:1030600052008DF80020401E9DF800201206F5D475
:103070009860032807D0502080F31188BFF34F8F4A
:10308000BFF36F8FFEE74FF44070986001980870AF
:103090000A48016841F470010160016841F0704123
:1030A0000160FFF765FE00205860FDF77FF8002003
:1030B0001CBD000000E400E08800002020ED00E0DE
:1030C00038B5049D18B153B1CAB181B120E0502088
:1030D00080F31188BFF34F8FBFF36F8FFEE750204F
:1030E00080F31188BFF34F8FBFF36F8FFEE750203F
:1030F00080F31188BFF34F8FBFF36F8FFEE739B1B5
:10310000502080F31188BFF34F8FBFF36F8FFEE71E
:1031100050241C46012384F846302B460094FFF7C8
:10312000CDFA204638BD000070B50D46040025D00C
:10313000FFF7BCFDD4E90F20216802FB001161609C
:103140000021A1632168A1600A46D4E90F01401E55
:1031500000FB0121E16021464FF0FF3001F8440FF0
:10316000487004F110008DB1FFF76EFD04F12400EA
:10317000FFF76AFDFFF7BAFD012070BD502080F314
:103180001188BFF34F8FBFF36F8FFEE721690029CE
:10319000F0D000F00DFB0028ECD004494FF0805037
:1031A0000860BFF34F8FBFF36F8FE3E704ED00E0DC
:1031B0002DE9FF4782B01D468A464FF00008040003
:1031C00003D0BAF1000F08D011E0502080F311882D
:1031D000BFF34F8FBFF36F8FFEE7206C38B15020E5
:1031E00080F31188BFF34F8FBFF36F8FFEE7022D7F
:1031F0000AD1E06B012807D0502080F31188BFF37B
:103200004F8FBFF36F8FFEE700F00EFA3F4F4FF086
:1032100000094FF0805648B9049838B1502080F327
:103220001188BFF34F8FBFF36F8FFEE7FFF73EFDAF
:10323000A06BE16B884207D3022D05D00498D0B172
:10324000B8F1000F1AD01EE02A4651462046FFF77B
:103250008EF9616A19B104F1240000F0A9FA20B1D5
:103260003E60BFF34F8FBFF36F8FFFF73FFD01202D
:1032700006B0BDE8F087FFF739FD22E06846FFF7AA
:103280000FFE4FF00108FFF731FDFFF78FFEFFF74C
:103290000DFD94F94400401C01D184F8449094F948
:1032A0004500401C01D184F84590FFF71FFD04A99B
:1032B000684600F027F930B12046FFF7E7FB00F041
:1032C000B1FA0020D4E7FFF7F1FCA06BE16B884274
:1032D00013D1FFF70BFD04F110000499FFF7EEFD89
:1032E0002046FFF7D3FB00F09DFA00289ED13E60F8
:1032F000BFF34F8FBFF36F8F98E7FFF7F7FC2046C0
:10330000FFF7C4FB00F08EFA90E7000004ED00E048
:103310002DE9F0471F4690468946040003D0B9F1D5
:10332000000F08D011E0502080F31188BFF34F8FB9
:10333000BFF36F8FFEE7206C38B1502080F3118807
:10334000BFF34F8FBFF36F8FFEE7022F0AD1E06B01
:10335000012807D0502080F31188BFF34F8FBFF3AF
:103360006F8FFEE7FFF716FD5020EFF3118680F315
:103370001188BFF34F8FBFF36F8FA06BE16B884253
:1033800006D3022F04D0002086F31188BDE8F08711
:1033900094F945503A4649462046FFF7E8F8681C3C
:1033A00004D06D1C84F845500120EDE7606A0028C8
:1033B000FAD004F1240000F0FBF90028F4D0B8F1B1
:1033C000000FF1D00121C8F80010EDE72DE9F74713
:1033D000002683B08A46040003D0BAF1000F08D05B
:1033E00011E0502080F31188BFF34F8FBFF36F8F30
:1033F000FEE7206C38B1502080F31188BFF34F8F67
:10340000BFF36F8FFEE700F00FF9DFF8F4804FF0A5
:1034100000094FF0805748B9059838B1502080F323
:103420001188BFF34F8FBFF36F8FFEE7FFF73EFCAE
:10343000A56BC5B151462046FFF786F86D1EA56302
:10344000206950B104F1100000F0B2F928B1C8F8B9
:103450000070BFF34F8FBFF36F8FFFF747FC012062
:1034600006B0BDE8F087059808B11EB106E0FFF789
:103470003DFC27E06846FFF713FD0126FFF736FC09
:10348000FFF794FDFFF712FC94F94400401C01D1B2
:1034900084F8449094F94500401C01D184F845908B
:1034A000FFF724FC05A9684600F02CF80028204608
:1034B0000AD0FFF7EBFA00F0B5F92046FFF7A0F9C4
:1034C0000028B3D00020CBE7FFF79AF990B104F1C0
:1034D00024000599FFF7F2FC2046FFF7D7FA00F029
:1034E000A1F90028A2D1C8F80070BFF34F8FBFF335
:1034F0006F8F9BE72046FFF7C9FA00F093F995E735
:1035000004ED00E02DE9F0410C46050011D0C4B1F6
:10351000FFF7CCFB174B5A696E682068911B471C5C
:1035200017D02F689B6A9F4219D0964217D8012462
:1035300010E0502080F31188BFF34F8FBFF36F8FDF
:10354000FEE7502080F31188BFF34F8FBFF36F8FDA
:10355000FEE70024FFF7CAFB2046BDE8F081884261
:1035600005D9401A20602846FFF79AFCF1E70020B1
:103570002060DCE7200000202DE9FF5F8346DDE9C5
:103580000E87994616468A469000FFF7B5FA050061
:103590001CD05C20FFF7B0FA040014D00020256393
:1035A00084F85900CDE90240CDE900874B46324608
:1035B00051465846FFF793F82046FEF731FF0120A9
:1035C00004B0BDE8F09F2846FFF7A4FB4FF0FF30A2
:1035D000F6E7F0B585B0DDE90B640A9DA6B1DCB174
:1035E0005C2700972663022684F85960002604AF02
:1035F000CDE90246CDE90057FFF771F82046FEF706
:103600000FFF049805B0F0BD502080F31188BFF380
:103610004F8FBFF36F8FFEE7502080F31188BFF309
:103620004F8FBFF36F8FFEE70548C16919B1806BFB
:1036300018B1002070470120704702207047000039
:103640002000002001484069704700002000002051
:103650002DE9F0412E4C0027A06B40B1206A401CA0
:103660002062606A00B101273846BDE8F0816669D2
:10367000761C666113D16068006838B1502080F311
:103680001188BFF34F8FBFF36F8FFEE76068A168AB
:103690006160A060A06A401CA062FFF777F9206B10
:1036A000DFF87080864209D36068006880B1606886
:1036B000C068C568686886420DD220632068C06A09
:1036C00000EB800158F821000128CAD90127C8E77A
:1036D0004FF0FF30F1E7281DFFF78CFAA86A18B108
:1036E00005F11800FFF786FAE86A0121A269814016
:1036F0001143A16100EB800108EB8100291DFFF758
:10370000C9FAE86A2168C96A8842CDD30127CBE7A4
:1037100020000020480A002070B504004FF000018E
:1037200040D0214D2868844207D0502080F3118872
:10373000BFF34F8FBFF36F8FFEE7206D38B1401E90
:103740002065E36CE26A9A422CD040B12AE0502016
:1037500080F31188BFF34F8FBFF36F8FFEE7201DFB
:10376000FFF748FA114A012150B9E06A00EB8003E3
:1037700052F8233023B9AB6901FA00F08343AB61FF
:10378000E06CE062C0F10700A061E06AAB698140D3
:103790001943A96100EB800002EB8000211DFFF7B7
:1037A00079FA0121084670BD20000020480A002057
:1037B0002DE9F041C068C468ACB104F118000746B7
:1037C000FFF718FA154DA86B0126A0B13946144829
:1037D000FFF760FAE06A2968C96A88421CD90120AB
:1037E0006E62BDE8F081502080F31188BFF34F8FE7
:1037F000BFF36F8FFEE7201DFFF7FCF9E16AAA69AE
:1038000006FA01F01043A86101EB81000449B439C4
:1038100001EB8000211DDBE70020E2E72000002013
:10382000FC0A00202DE9F0472C4D00242746A86B08
:1038300038B1FFF73BFAA86B401EA863A86B40B1F4
:1038400046E0502080F31188BFF34F8FBFF36F8F96
:10385000FEE72969224E0120D1B3A6F1B4098046C2
:103860003068E8B1F068C46804F11800FFF7C2F9E5
:10387000201DFFF7BFF9E06AAA6908FA00F11143B9
:10388000A96100EB800109EB8100211DFFF702FA1D
:10389000E06A2968C96A8842E2D3C5F82480DFE774
:1038A0000CB1FFF773F82C6A44B14646FFF7D0FE1F
:1038B00000B16E62641EF9D100202862686A38B1D6
:1038C0000849012738070860BFF34F8FBFF36F8F98
:1038D000FFF70CFA3846BDE8F08700002000002012
:1038E000FC0A002004ED00E010B586B0FEF700FEF3
:1038F000114CA068B8B100200390049005AA04A957
:1039000003A8FFF795F9DDE9032102208DE8070000
:1039100000230AA10B48059AFFF75BFEE06010B197
:1039200006B0012010BD502080F31188BFF34F8FE7
:10393000BFF36F8FFEE700005C000020546D722023
:1039400053766300692A0008FEB51E46134602003E
:10395000089D4FF0000014D0124CA768002F0FD024
:10396000CDE900130292062915DAFFF75DFE022861
:103970004FF000030DD000226946A068FFF718FC45
:10398000FEBD502080F31188BFF34F8FBFF36F8FC0
:10399000FEE72A46F0E70023324669463846FFF73D
:1039A000B7FCFEBD5C000020043A0008191F0008A7
:1039B000FEFF00000000000080000000000000008A
:1039C00000000000103A0008AB040008FFFF0000F0
:1039D0000000000080000000000000000000000067
:1039E00000000000000000000102030406070809AF
:1039F0000000000001020304880035005A0079002D
:103A0000430000005461736B5F4F4C45440000005D
:103A10005461736B5F42757A7A6572003C3A0008B4
:103A2000000000209400000028010008D03A00089F
:103A300094000020F41D0000440100080000000074
:103A40000000000000000000000000000024F4005E
:103A50000100000010000000000000000000000055
:103A60000000000000000000000000000000000056
:103A70000000000000000000000000000000000046
:103A80000000000000000000000000000000000036
:103A90000000000000000000000000000000000026
:103AA0000000000000000000000000000000000016
:103AB0000000000000000000000000000000000006
:103AC0000000000000000000AAAAAAAA000000004E
:04000005080000ED02
:00000001FF
