:020000040800F2
:10000000C020002021020008EF2E00085F22000817
:10001000E12D0008A90400080538000800000000D0
:10002000000000000000000000000000890100083E
:100030003F05000800000000CD0100081D32000847
:100040003B0200083B0200083B0200083B0200089C
:100050003B0200083B0200083B0200083B0200088C
:100060003B0200083B0200083B0200083B0200087C
:100070003B0200083B0200083B0200083B0200086C
:1000800011050008130500083B0200083B020008A8
:10009000BD3700083B0200083B0200083B02000895
:1000A0003B0200083B0200083B0200083B0200083C
:1000B0003B0200083B020008A93200083B0200088E
:1000C0003B0200083B0200083B0200083B0200081C
:1000D0003B0200083B02000879370008B9370008E6
:1000E0003B0200083B0200083B02000800F002F857
:1000F00000F03AF80AA090E8000C82448344AAF188
:100100000107DA4501D100F02FF8AFF2090EBAE885
:100110000F0013F0010F18BFFB1A43F0010318473B
:10012000C85F0000E85F0000103A24BF78C878C1BB
:10013000FAD8520724BF30C830C144BF04680C60ED
:10014000704700000023002400250026103A28BF35
:1001500078C1FBD8520728BF30C148BF0B60704739
:100160001FB51FBD10B510BD00F045F91146FFF7D2
:10017000F7FF03F06DFB00F063F903B4FFF7F2FF44
:1001800003BC00F06BF90000224B19680868B0E866
:10019000F00F80F30988BFF36F8F4FF0000080F3FA
:1001A00011884EF00D0E70470000000006480068F0
:1001B000006880F3088862B661B6BFF34F8FBFF363
:1001C0006F8F00DF00BF00BF08ED00E0EFF3098094
:1001D000BFF36F8F0F4B1A6820E9F00F106008B55E
:1001E0004FF0500080F31188BFF34F8FBFF36F8F34
:1001F00004F0EEF94FF0000080F31188BDE80840EC
:1002000019680868B0E8F00F80F30988BFF36F8FB2
:10021000704700BF2C000020EFF3058070470000FE
:100220000948804709480047FEE7FEE7FEE7FEE78A
:10023000FEE7FEE7FEE7FEE7FEE7FEE704480549C6
:10024000054A064B70470000A7320008ED00000881
:10025000C01A0020C0200020C01C0020C01C0020AC
:10026000032A40F2308010F0030C00F0158011F8E2
:10027000013BBCF1020F624498BF11F801CB00F8BA
:10028000013B38BF11F8013BA2F1040298BF00F80E
:1002900001CB38BF00F8013B11F0030300F02580CB
:1002A000083AC0F0088051F8043B083A51F804CBF2
:1002B000A0E80810F5E7121D5CBF51F8043B40F8B8
:1002C000043BAFF30080D20724BF11F8013B11F8C3
:1002D00001CB48BF11F8012B24BF00F8013B00F807
:1002E00001CB48BF00F8012B704710B5203AC0F091
:1002F0000B80B1E81850203AA0E81850B1E8185027
:10030000A0E81850BFF4F5AF5FEA027C24BFB1E863
:100310001850A0E8185044BF18C918C0BDE81040D4
:100320005FEA827C24BF51F8043B40F8043B08BFDD
:100330007047D20728BF31F8023B48BF11F8012BA4
:1003400028BF20F8023B48BF00F8012B704702F09D
:10035000FF0343EA032242EA024200F02CB84FF0C6
:10036000000200B5134694469646203922BFA0E805
:100370000C50A0E80C50B1F12001BFF4F7AF090711
:1003800028BFA0E80C5048BF0CC05DF804EB890002
:1003900028BF40F8042B08BF704748BF20F8022B45
:1003A00011F0804F18BF00F8012B7047704770475D
:1003B00070474FF000020429C0F0128010F0030CC7
:1003C0003FF4CFAFCCF1040CBCF1020F18BF00F822
:1003D000012BA8BF20F8022BA1EB0C01FFF7C1BF36
:1003E0005FEAC17C24BF00F8012B00F8012B48BF55
:1003F00000F8012B7047754600F02CF8AE4605005A
:100400006946534620F00700854618B020B5FFF72F
:1004100015FFBDE820404FF000064FF000074FF0F9
:1004200000084FF0000B21F00701AC46ACE8C00912
:10043000ACE8C009ACE8C009ACE8C0098D4670471B
:1004400010B50446AFF300802046BDE81040FFF72A
:1004500094BE000000487047601A0020014918202F
:10046000ABBEFEE72600020070470000FEB50C4A56
:1004700005260C4D07CA8DE8070000246F46296841
:100480000A204863296837F914008862C82000F000
:10049000F7FB641CE4B2B442F1DB00F007F8FEBDE8
:1004A000AC60000854090020FEE70000024900206B
:1004B00009684863704700005409002030B589B0CE
:1004C00000240C9D02900094019408940494082048
:1004D000CDE90540080A8DF800008DF80110100ADA
:1004E0008DF80200180A8DF804008DF80530280AEE
:1004F0008DF806008DF803208DF8075008AB6A468A
:1005000002A9024800F0BDF809B030BD380800204B
:100510007047704730B590F840500124AC40C56B2F
:100520006C60046863604368102B036803D09960B3
:100530000068C26030BD9A600068C16030BD70471D
:10054000084C094D0121204600F09CFC20B12021DF
:10055000284600F097FC08B901F0D8FF012003F00D
:10056000FBF9EFE700080140000C014072B6FEE71E
:100570002DE9FC412E48304B012790F800C02D4951
:10058000407800251E1D40F6C14203F10C04BCF169
:10059000010F09D0BCF1020F16D0BCF1030F18D027
:1005A000BCF1040F1AD01BE0012819D1DFF88CC070
:1005B000002000BF0CF80050401CC0B20A28F9D33C
:1005C000316021601F700FE0012809D102F038F876
:1005D0001FE0012804D102F0F7F81AE0012824D026
:1005E0001878B0B131602160CDE900251248144B74
:1005F000144A1549001D00F02DF8206805F032F866
:10060000CDE900070C48114B114A0F490C3000F09E
:1006100021F80095B4F90420B6F9041000234FF432
:100620000070FFF74BFFBDE8FC8102F04BF9F0E7EB
:10063000B600002000104C45A000002094190020B6
:10064000C0190020A0190020201A0020001A002044
:10065000E01900202DE9F0410C46DDE906151746AA
:10066000064634F93520184601F0ACFF014604EB8C
:10067000C500B0F90220384602F096FDB080BDE812
:10068000F081F0B590F820500468A468012D05D0E1
:10069000022D03D0416A41F4802153E014F0406FF1
:1006A00001D1E5004BD5C4F30164022C03D9416AA2
:1006B00041F4000146E00125A5401D608D684FF41E
:1006C000C0739DB1CE6835434E6845EAC6050668DD
:1006D00003EB0417F5514FF4C275076805EB0415D9
:1006E0000E697E51097D012905D009E00E88CD688B
:1006F00045EA4655EBE701684E5946F480764E517F
:100700001179D2F805504FF4C67641EA0525016803
:1007100006EB04168D511178D2F801204FF4C47500
:1007200041EA0221026805EB04155151006803EB10
:100730000411425842F0010242500020F0BD416ACB
:1007400041F4001141620120F0BD000010B590F8A5
:1007500020300268012B07D0022B05D0416A41F4FA
:1007600080214162012010BDD2F8000240F001005A
:10077000C2F80002087D00F01F0301209840D2F863
:100780001C328343C2F81C32CB69B3B9D2F80C32A5
:100790008343C2F80C328C894B6864F31F434C6965
:1007A00002EBC404C4F840320C890B6864F31F43A5
:1007B0004C6902EBC404C4F84432CB69012B16D156
:1007C000D2F80C320343C2F80C320C884B6864F345
:1007D0001F434C6902EBC404C4F840320C89CB6857
:1007E00064F31F434C6902EBC404C4F844328B69C0
:1007F000002BD2F804320FD053EA0003C2F80432BF
:100800000B69002BD2F8143208D00343C2F814321B
:10081000096A012904D008E08343EFE78343F5E741
:10082000D2F81C120143C2F81C12D2F8000220F0C8
:100830000100C2F80002002010BD30B590F8204041
:10084000012C05D0022C03D0416A41F480215DE0E7
:100850000468002955D02469A40754D04FF4D874F3
:10086000056804EB01142D5915F004059560056821
:100870002D594ED0ED08556005682C5904F002043E
:10088000D4604FF4DA74056804EB01142D5905F0B7
:100890000F05156105682D59C5F307259561056894
:1008A0002C59240C54614FF4DC72046802EB0112E1
:1008B000A4581C700468A458240A5C700468A458E6
:1008C000240C9C700468A258120EDA704FF4DE7289
:1008D000046802EB0112A4581C710468A458240A8D
:1008E0005C710468A458240C9C710468A258120E10
:1008F000DA71006881B1016941F0200101610020D5
:1009000030BDE468A8E7416A41F40011416201206A
:1009100030BD6D0D1560AFE7C16841F02001C160C9
:10092000EDE770B5040003D094F8200010B104E0A6
:10093000012070BD204600F081F82068016841F078
:100940000101016000F0A8FA0546052604E000F068
:10095000A3FA401B0A2811D820684068C007F6D0C7
:100960002068016821F00201016000F095FA054657
:100970000BE000F091FA401B0A2806D9606A40F4A7
:100980000030606284F82060D2E720684068800709
:10099000EFD4207E0128206801683DD021F080013D
:1009A0000160607E01282068016838D021F0400194
:1009B0000160A07E01282068016833D021F0200169
:1009C0000160E07E0128206801682ED041F010010E
:1009D0000160207F01282068016829D021F00801EA
:1009E0000160607F01282068016824D021F00401A3
:1009F0000160D4E902010843D4E904121143084319
:100A00006168491E08432168C861002060620120B6
:100A100084F82000002070BD41F08001C0E741F063
:100A20004001C5E741F02001CAE721F01001CFE7FE
:100A300041F00801D4E741F00401D9E710B586B0D0
:100A40000021009101910291039100681A498842A6
:100A500030D11A48C16941F00071C161C16901F02A
:100A600000710491816941F0040181618069144C35
:100A700000F0040004904FF40060009069462046A6
:100A800000F010F9A01400900220019003200390C0
:100A90006946204600F006F900221146142000F0B5
:100AA00023FC142000F012FC06480068416941F064
:100AB0000201416106B010BD006400400010024018
:100AC000000801403808002070B5044690F8200066
:100AD000012804D0606A40F40020606218E002201F
:100AE00084F820002068016821F00101016000F015
:100AF000D3F905460EE000BF00F0CEF9401B0A28EE
:100B000008D9606A40F400306062052084F8200053
:100B1000012070BD20684068C007EDD1606270BDE3
:100B200010B5040002D0607910B106E0012010BDBC
:100B300000202071204600F005F80120607100209F
:100B400010BD000008B500680649884208D1064873
:100B5000416941F040014161406900F0400000906E
:100B600008BD0000003002400010024010B590F8AF
:100B700021100022022905D00421816380F8202061
:100B8000012010BD01680B6823F00E030B600168A3
:100B90000B6823F001030B6090F84030C46B012117
:100BA00001FA03F3636080F8211080F820201046DA
:100BB00010BD000030B528B308C8134914221944E9
:100BC000B1FBF2F18900C1631049816302214177D1
:100BD0001A6843F6F0718A43D0E900142143D0E942
:100BE00002452C432143046921434469214384691C
:100BF00021431143196000214163012242770177AB
:100C0000084630BD012030BDF8FFFDBF00000240A6
:100C100070B5044690F82000002501280CD0012072
:100C200084F8200094F821600020012E06D084F87A
:100C300020000225284670BD022070BD022684F8DF
:100C40002160A0632068066826F001060660204641
:100C5000FFF760FCE06A00282068016802D041F0DC
:100C60000E0106E021F0040101602068016841F0F6
:100C70000A0101602068016841F001010160D9E7C3
:100C800070B5044600F008F90546601C02D004481F
:100C90000078044400F000F9401BA042FAD370BD74
:100CA000200000202DE9F84FDFF8B891002409F169
:100CB000040A0AF1040B23460F270BF1040EC9E0C6
:100CC0000125A5402A40AA427DD1674ED1F804C033
:100CD000ACEB0608B44532D014DCBCF1030F3AD0BB
:100CE00009DCBCF1000F2AD0BCF1010F1CD0BCF113
:100CF000020F31D11DE0BCF1110F17D0BCF1120F62
:100D00002AD119E0B8F5881F19D006DCB8F5803F64
:100D100015D0B8F5801F1FD111E0B8F5001F0ED017
:100D2000B8F5041F18D10AE0CB6815E0CB681B1D8D
:100D300012E0CB6808330FE0CB680C330CE08B6813
:100D40002BB1012B4FF0080303D0456104E00423CD
:100D500002E0056100E00023FF2A01D8064601E019
:100D600000F104064FEA840501D9A5F12005D6F863
:100D7000008007FA05FC28EA0C0803FA05F548EAA2
:100D80000508C6F800804D68ED0062D5374DAE69A4
:100D900046F00106AE61AD6924F0030605F00105D9
:100DA0000095334D06EB050CDCF80850A607360F0E
:100DB00007FA06F825EA0805DFF8B880404503D1B0
:100DC0004FF0000817E044E0DFF8AC80404502D166
:100DD0004FF001080FE0DFF8A480404502D14FF04A
:100DE000020808E0DFF89880404502D14FF0030880
:100DF00001E04FF0040808FA06F848EA0508CCF8C4
:100E000008804D68D9F80060ED034D4601D51643C2
:100E100000E096432E604D68DAF80060AD03554659
:100E200001D5164300E096432E604D68DBF8006064
:100E3000ED025D4601D5164300E096432E604D68F5
:100E4000DEF80060AD02754601D5164300E096431A
:100E50002E60641C0D682A46E5407FF431AFBDE882
:100E6000F88F000000040140000011100010024043
:100E70000000014000080140000C0140001001404A
:100E8000001401408068084000D0012070470AB17A
:100E9000016170470904FBE7014880687047000062
:100EA0002000002070B5040025D094F83D000025F6
:100EB00020B984F83C50204600F050F9242084F8F2
:100EC0003D002068016821F001010160206801688F
:100ED00041F4004101602068016821F40041016093
:100EE00000F0EAFA4D4A6168914201D84C4900E0AD
:100EF0004C49884201D2012070BD4B492368B0FBA8
:100F0000F1F15E6826F03F060E435E60636893422F
:100F100006D94FF4967359434FF47A73B1FBF3F14A
:100F20002368491C1E6A26F03F0631431962616836
:100F3000914210D84900401EB0FBF1F2521CC2F39E
:100F40000B02042A01D2042022E0B0FBF1F0401C85
:100F5000C0F30B001CE0A268F2B301EBC10303EB8A
:100F60000116431EB3FBF6F35B1C43F480431B05E1
:100F700049D092B301EBC10202EB0111401EB0FB5C
:100F8000F1F0401CC0F30B0040F4804040F40040FE
:100F90002168CA694CF6FF739A431043C861D4E9CB
:100FA000071001432068026822F0C002114301606B
:100FB000D4E9030101432068826848F2FF339A4371
:100FC00011438160D4E9050108432168CA6822F011
:100FD000FF021043C86001E00EE016E020680168DF
:100FE00041F0010101602564202084F83D00256363
:100FF00084F83E50002070BD01EB4106431EB3FB58
:10100000F6F35B1CB3E70120C2E701EB4101401E90
:10101000B0FBF1F0401CC0F30B00B7E7A086010065
:1010200080841E0000093D0040420F002DE9FF4F63
:1010300083B09A46DDE9119793460446DDF8408077
:10104000FFF72AFF054694F83D0020287FD1192399
:10105000012240492046009501F094F9002876D1FC
:1010600094F83C00012872D0012084F83C002068EC
:101070000168C90703D1016841F0010101602068DE
:10108000016821F400610160212084F83D004020C6
:1010900084F83E0000262664C4F82480A4F82A9030
:1010A000608D20852C48E062CDE9007553465A4694
:1010B0002046049901F0ECF870B930E02A46394630
:1010C000204601F0DEF958B1206C042804D12068D4
:1010D000016841F400710160012007B0BDE8F08FA4
:1010E000606A216800780861606A401C6062218D36
:1010F000491E89B22185628D521E6285226853691C
:10110000DB435B070BD469B100781061606A401C57
:101110006062208D401E2085608D401E6085208D80
:101120000028CBD12A463946204601F005F900288F
:10113000CAD154F83D0B016841F4007101602020D0
:1011400004F81E09E67766770020C6E7FFE702206D
:10115000C3E70000020010000000FFFF10B586B0DA
:101160000021009101910291039100680F4988428A
:101170001AD10F4CA06940F00800A061A06969462F
:1011800000F008000490C02000901220019003207D
:1011900003900848FFF786FDE06940F40010E06125
:1011A000E06900F40010049006B010BD0054004047
:1011B00000100240000C014002488168027811448E
:1011C0008160704720000020074810B5016841F099
:1011D00010010160032000F0A7F80F2000F006F8CE
:1011E00000F050F8002010BD0020024030B5054648
:1011F0001F4887B0C16941F00401C161C06906A9F7
:1012000000F00400009001A800F036F90498B0B195
:1012100000F052F940001749174AB0FBF1F11748A6
:10122000491E0260416040F2E7320021C0E903211B
:101230008160816100F018FC040003D015E000F02B
:101240003BF9E8E70D4800F051FC04000DD11E20E9
:1012500000F03CF8102D07D2002229461E2000F095
:1012600043F80748056000E0012407B0204630BD80
:101270000010024040420F00000800402C0B0020EC
:10128000240000200F4808B5816941F00101816107
:10129000816901F001010091C16941F08051C16192
:1012A000C069002200F0805000900F21901E00F0D5
:1012B0001BF80548416821F0E06141F00071416090
:1012C00008BD00000010024000000140002809DBBA
:1012D00000F01F02012191404009800000F1E02050
:1012E000C0F8001170470000F0B40E4B1B680C46AC
:1012F000C3F30223C3F10705042D00D90425191DEA
:10130000072901D2002300E0DB1E012606FA05F1C1
:10131000491E214099409E40761E16403143F0BC44
:1013200002F086BA0CED00E0064900F007020868FA
:101330004FF6FF03184040EA0220034A10430860BA
:10134000704700000CED00E00000FA052DE9F047C1
:101350000F46050061D0434E306800F00700B842E8
:1013600009D2306820F0070038433060306800F060
:101370000700B84251D128683B4C810712D540077D
:1013800003D5606840F4E06060602878000703D50A
:10139000606840F4605060606068A96820F0F00008
:1013A000084360602878C00728D06868012810D0FA
:1013B0002168022810D0890700292EDA616821F0FF
:1013C000030101436160FFF767FD804641F2883900
:1013D0000DE021688903EFE78901EDE7FFF75CFD88
:1013E000A0EB0801494502D90320BDE8F0876068F9
:1013F000696800F00C00B0EB810FEFD1306800F0AD
:101400000700B8420BD9306820F00700384330603D
:10141000306800F00700B84201D00120E5E72878E5
:10142000400705D56068E96820F4E0600843606023
:101430002878000706D56068296920F4605040EAE2
:10144000C100606000F058F86168084AC1F30311F8
:10145000515CC8400649086006480068FFF7C6FEB0
:101460000020C2E70020024000100240A05A0008FD
:101470001C000020240000200F2202600C4A536848
:1014800003F003034360536803F0F0038360536881
:1014900003F4E063C36052684FF4E06303EAD202EE
:1014A00002610448006800F007000860704700000F
:1014B00000100240002002400448054900684968C5
:1014C000044AC1F30221515CC84070471C0000204F
:1014D00000100240B05A00080448054900684968F5
:1014E000044AC1F3C221515CC84070471C0000206F
:1014F00000100240B05A000812A185B00FC98DE853
:101500000F0014A0144A006804905168134801F0B9
:101510000C03042B10D0082B0ED1C1F38343C90355
:101520001DF803000AD5516804AAC1F34041515C7B
:101530000A4A5043B0FBF1F005B0704708494843F0
:10154000FAE7000002030405060708090A0B0C0D60
:101550000E0F1010010200000010024000127A006D
:1015600000093D002DE9F84F040070D02078C04DEF
:10157000C00749D06868C0F38100012807D06868B7
:10158000C0F38100022809D16868C00306D5286825
:10159000800339D560680028E7D035E06068B0F591
:1015A000803F0BD010B1B0F5A02F11D0286820F4E7
:1015B00080302860286820F4802002E0286840F409
:1015C00080302860606890B1FFF766FC06460AE04C
:1015D000286840F480202860F0E700BFFFF75CFC3B
:1015E000801B642873D828688003F7D50CE0FFF7C8
:1015F00053FC064605E000BFFFF74EFC801B642845
:10160000F0D828688003F7D420789A4E80074FF0EE
:1016100001094FF0000839D5686810F00C0F07D0A9
:101620006868C0F38100022809D16868C00306D445
:101630002868800714D52069012808D110E02069A6
:10164000B0B1C6F80090FFF727FC074605E00AE1B5
:10165000FFF722FCC01B0228C4D828688007F7D5F2
:101660002868616920F0F80040EAC10028600DE0B8
:10167000C6F80080FFF710FC074604E0FFF70CFCFB
:10168000C01B022823D828688007F7D420780007D9
:101690002CD57948A169D9B1C0F80090FFF7FCFBBF
:1016A000074604E0FFF7F8FBC01B02280FD8686A62
:1016B0008007F7D571484FF4FA510068B0FBF1F09C
:1016C000009000BF0098411E0091FAD20EE080E029
:1016D000C0F80080FFF7E0FB074604E0FFF7DCFB03
:1016E000C01B022875D8686A8007F7D420784007A5
:1016F00060D5E8690027C00008D4E86940F0805050
:10170000E861E869012700F0805000905C480168BA
:10171000C90513D40168834641F480710160FFF765
:10172000BBFB824606E000BFFFF7B6FBA0EB0A005A
:1017300064284ED8DBF80000C005F5D5E068012824
:101740000AD008B1052813D0286A20F001002862C9
:10175000286A20F0040002E0286A40F001002862B4
:10176000E06841F2883B98B1FFF796FB82460BE0B8
:10177000286A40F004002862EEE700BFFFF78CFB08
:10178000A0EB0A0159455AD8286A8007F6D50CE023
:10179000FFF782FB824605E0FFF77EFBA0EB0A0124
:1017A00059454CD8286A8007F6D41FB1E86920F063
:1017B0008050E861E06988B36968C1F3810102295A
:1017C00044D00228C6F8608004D0FFF765FB0446C9
:1017D00038E034E0FFF760FB074604E0FFF75CFB0E
:1017E000C01B02282BD828688001F7D4206AB0F5E6
:1017F000803F05D16868A16820F400300843686024
:10180000D4E908010843696821F474110843686049
:10181000C6F86090FFF740FB044606E025E000BFF5
:10182000FFF73AFB001B022809D828688001F7D58A
:101830001BE000BFFFF730FB001B022802D903208A
:10184000BDE8F88F28688001F4D40EE00128F7D0B5
:101850006868226A00F48031914204D1616A00F420
:101860007010884201D00120EAE70020E8E700007C
:101870000010024000004242800442421C0000204E
:101880000070004070B5040009D0606A002540B1C6
:1018900025616561A56294F8510040B10CE001201A
:1018A00070BD6068B0F5827FF4D0E561F2E784F83E
:1018B0005050204600F040F8022084F85100206883
:1018C000016821F040010160A088218900F4827044
:1018D00001F404410843A18901F400610843217C1B
:1018E00001F002010843217D01F001010843218B31
:1018F00001F400710843217F01F03801084394F896
:10190000201001F080010843218D01F400510843AB
:1019100021680860A069042101EA1040216848603C
:101920002068C16921F40061C1616565012084F806
:101930005100002070BD000030B585B00024009437
:1019400001940294039400681449884223D11448F6
:10195000816941F480518161816901F48051049170
:10196000816941F00401816180690E4D00F004003D
:101970000490A0200090022001900320039069466B
:101980002846FFF78FF94020CDE900046946284634
:101990000294FFF787F905B030BD00000030014028
:1019A00000100240000801407047704710B590F8E1
:1019B0003C20012A22D0012280F83C20CA688C6891
:1019C00022F4407222434C6822F4806222430C6865
:1019D00022F4006222430C6922F4805222434C69B3
:1019E00022F400522243C969002322F480420A43B0
:1019F00001684A6480F83C30002010BD022010BD10
:101A000070B590F83C20012A26D0012480F83C4093
:101A1000022280F83D2003685A689D6822F0700613
:101A20000A6832435A600D4B02689A4208D0B2F1FC
:101A3000804F05D00A4B9A4202D00A4B9A4204D1F9
:101A4000496825F080031943916080F83D400021EA
:101A500080F83C10084670BD022070BD002C01408B
:101A6000000400400008004010B5040003D094F8C2
:101A70003D0010B107E0012010BD002084F83C00BB
:101A8000204600F01FF8022084F83D00211D206848
:101A900001F010FC012084F8460084F83E0084F830
:101AA0003F0084F8400084F8410084F8420084F844
:101AB000430084F8440084F8450084F83D00002089
:101AC00010BD000008B500680649884208D10648E4
:101AD000816941F400618161806900F400600090D7
:101AE00008BD0000002C01400010024090F83D109D
:101AF000012901D001207047022180F83D100168C2
:101B0000CA6842F00102CA6000680B49884208D0E6
:101B1000B0F1804F05D00949884202D00849884277
:101B200004D1816801F00701062903D0016841F062
:101B30000101016000207047002C014000040040BA
:101B40000008004070B5044690F83C00012817D00A
:101B5000012584F83C50022084F83D00206882680A
:101B600022F0770222F47F4282600868502830D049
:101B70000DDC20284DD005DC98B310283BD148E07F
:101B8000022070BD302844D0402834D139E060288C
:101B900028D0702806D0B0F5805F2CD0B0F5005F5B
:101BA00029D10AE0CB68D1E90121206801F0C5FB09
:101BB0002068816841F0770109E0CB68D1E9012113
:101BC000206801F0BAFB2068816841F4804181609F
:101BD00011E0CA684968206801F064FC502120685F
:101BE00007E016E0CA684968206801F06CFC6021D3
:101BF000206801F0ACFB84F83D50002084F83C00E4
:101C000070BDCA684968206801F04CFC402120681A
:101C1000EFE7226801461046EBE7704770B50446CF
:101C2000006801694FF00005C943890715D4C168F0
:101C3000C943890711D4E91E01610120207720687A
:101C400080698007204602D0FFF7E7FF04E000F03C
:101C5000F3F8204600F096F9257720680169C9431A
:101C6000490717D4C168C943490713D46FF0040169
:101C70000161022020772068806910F4407F2046AF
:101C800002D0FFF7CAFF04E000F0D6F8204600F0CB
:101C900079F9257720680169C943090716D4C16815
:101CA000C943090712D46FF00801016104202077AD
:101CB0002068C0698007204602D0FFF7AEFF04E02D
:101CC00000F0BAF8204600F05DF925772068016938
:101CD000C943C90617D4C168C943C90613D46FF0F4
:101CE00010010161082020772068C06910F4407F4E
:101CF000204602D0FFF791FF04E000F09DF8204657
:101D000000F040F9257720680169C943C90708D167
:101D1000C168C943C90704D1891E0161204600F08A
:101D200081F920680169C943090609D4C168C9431A
:101D3000090605D46FF0800101612046FFF734FEEB
:101D400020680169C943490609D4C168C9434906E5
:101D500005D46FF040010161204600F06DF9206864
:101D60000169C94389060BD4C168C943890607D4F0
:101D70006FF0200101612046BDE87040FFF715BEFD
:101D800070BD000010B586B0002100910191029154
:101D90000391234B02682349022423489A4222D10B
:101DA0008A6942F008028A618A6902F00802049294
:101DB0008A6942F004028A618969039401F004018E
:101DC00004914FF44041CDE900146946FEF76AFFE3
:101DD0004FF4E060CDE90004694614480394FEF72F
:101DE00061FF06B010BD124B9A42FAD18A6942F0E7
:101DF00008028A618969039401F0080104911021A5
:101E0000CDE900146946FEF74DFF0A48416821F408
:101E1000406141F0E06141F400614160E1E70000B0
:101E2000002C014000100240000C0140000801405D
:101E30000004004000000140704770B5044690F86F
:101E40003C000D4601280AD0012084F83C0042B134
:101E5000042A18D0082A2AD00C2A4DD139E00220B1
:101E600070BD206801F07CFA2068816941F00801AA
:101E700081612068816921F00401816120688169A4
:101E80002A69114311E0206801F092FA2068816903
:101E900041F4006181612068816921F48061816180
:101EA000206881692A6941EA0221816124E0206871
:101EB00001F0AAFA2068C16941F00801C1612068F7
:101EC000C16921F00401C1612068C1692A69114317
:101ED00011E0206801F0C4FA2068C16941F4006192
:101EE000C1612068C16921F48061C1612068C16954
:101EF0002A6941EA0221C161002084F83C0070BDDA
:101F000010B5040003D094F83D0010B107E00120A3
:101F100010BD002084F83C00204600F01FF802208D
:101F200084F83D00211D206801F0C4F9012084F8E7
:101F3000460084F83E0084F83F0084F8400084F8AE
:101F4000410084F8420084F8430084F8440084F897
:101F5000450084F83D00002010BD000008B5006871
:101F60000649884208D10648C16941F00201C161B1
:101F7000C06900F00200009008BD000000040040AD
:101F8000001002407047000010B50446022249B11B
:101F900004290ED0082913D094F84100012816D046
:101FA000012010BD94F83E000128F9D184F83E20AC
:101FB0000FE094F83F000128F2D184F83F2008E0B8
:101FC00094F840000128EBD184F8402001E084F827
:101FD00041200122206801F0A3F90F4920688842BE
:101FE00003D1426C42F4004242642068884208D027
:101FF000B0F1804F05D00949884202D00849884293
:1020000004D1816801F00701062903D0016841F07D
:1020100001010160002010BD002C014000040040BF
:102020000008004000680349884201D1FFF7C4B8A6
:1020300070470000000800407047704710B5044624
:102040000068416994F83D20C1F3C011212A0BD1E9
:1020500051B1416921F080014161606B08B1FEF727
:1020600085FD204601F0B8FA2068416994F83E20C9
:10207000C1F38011222A0BD151B1416921F04001F5
:102080004161A06B08B1FEF771FD204601F08CFAAA
:10209000002010BD704770B5040004D094F83D00D6
:1020A000002510B106E0012070BD84F83C502046A8
:1020B00000F022F8242084F83D002068C16821F453
:1020C0000051C160204601F091FA2068016921F4B5
:1020D000904101612068416921F02A014161206835
:1020E000C16841F40051C1602564202084F83D009E
:1020F00084F83E00002070BDF0B585B00024009447
:102100000194029403940646424D0368424902201A
:102110000322AB4250D1CB6943F40033CB61CB698E
:1021200003F4003304938B6943F004038B618969E2
:102130003A4D01F0040104910421CDE9001003920D
:1021400069462846FEF7AEFD0820CDE90004694641
:1021500028460294FEF7A6FD324D31488027C5E996
:102160000004C5E902472C6180146C61C5E9064092
:102170002846FEF71FFD08B1FEF7F8F9B5636E6259
:10218000284D27484435143001C5102091C52548F5
:1021900045F8104944306C61AC61EC61FEF70AFD12
:1021A00008B1FEF7E3F975630022012126206E6273
:1021B000FFF79AF8262029E01B4DAB4228D1CB69C6
:1021C00043F48023CB61CB6903F4802304938B69B0
:1021D00043F008038B618969039201F008010491BF
:1021E0002915CDE90010114D69462846FEF75AFD24
:1021F000E814CDE90004694628460294FEF752FD32
:10220000002202212720FFF76FF82720FFF75EF852
:1022100005B0F0BD0044004000100240000801403D
:102220006C000240240A002000480040000C0140DD
:1022300090F83E30202B0ED159B152B190F83C307D
:10224000012B08D0012380F83C300023036301F008
:1022500029BA012070470220704770477047FEE797
:1022600001684A69D24352050FD46FF480624A6113
:10227000002140F8301F202242738173026942F02E
:1022800004020261017301207047002070470000C2
:102290002DE9F843044600680D46DDE9089701681A
:1022A0009846164641F4807101604B4600224FF07B
:1022B00001112046009700F065F848B120680068D9
:1022C000C00502D54FF4007020640320BDE8F883F8
:1022D000216805F0FE0008613B464A461549204644
:1022E00000F084F888B920684169806900903A4616
:1022F0004946204600F0C5F848B1206C042804D1B6
:102300002068016841F4007101600120DEE7F5B248
:10231000B8F1010F09D02168300A08613A464946F0
:10232000204600F0AEF80028E7D1206805610020C3
:10233000CCE700000200010070B516460D460446C9
:102340000DE02046FFF78CFF08B1012070BD681C2E
:1023500005D0FEF7A1FD801BA84207D835B1206843
:102360004069C0434007ECD4002070BD002044F811
:10237000300F20216173A073216941F02001216198
:102380002073E2E72DE9F0471E4690460D460446CD
:10239000C1F30747DDF8209008E0701C06D0FEF777
:1023A0007BFDA0EB0900B0420FD876B12068012F69
:1023B00018D0806925EA00000004000C14D0002128
:1023C0004145EAD00020BDE8F087002044F8300FF6
:1023D00020216173A073216941F0200121612073E4
:1023E0000120F0E74069E5E70121E9E72DE9F04741
:1023F0009A4691460E46044600254FF02008C1F348
:10240000074725E020684069C043400514D4206890
:10241000016841F40071016021686FF480604861D7
:10242000256384F83D8084F83E50206C40F0040021
:10243000206484F83C501FE0B9F1FF3F08D0FEF75C
:102440002BFDA0EB0A0149450CD8B9F1000F09D0CA
:102450002068012F13D0806926EA00000004000CD8
:102460000BD0CFE744F8305F84F80D80A573206966
:1024700040F02000206125730120BDE8F08740690D
:10248000EAE770B516460D4604460DE02046FFF714
:10249000E7FE08B1012070BD681C05D0FEF7FCFC0A
:1024A000801BA84207D835B120684069C0430006A8
:1024B000ECD4002070BD002044F8300F202161735F
:1024C000A073216941F0200121612073E2E70068D7
:1024D00020280BD0212808D1088840BAD08048880D
:1024E00040BA1081888840BA50817047088840BA45
:1024F0001080488840BA5080888840BA90807047E1
:10250000FEF736F8012001F027FAF9E7F8B50C4894
:1025100001260C4D006800246F46009029680A20AF
:102520004863296837F9140088620120FEF7A8FB88
:10253000641CE4B2B442F1DBFDF7B8FFF8BD000063
:10254000A8600008540900202DE9F041184C054608
:10255000184E2078287001213046FEF793FC164F64
:1025600028B120213846FEF78DFC00281ED12021FD
:102570003846FEF787FC30B9607890B10020607073
:10258000687000F0B5FC687800280FD10121304652
:10259000FEF778FC002809D12078042803D2401CDB
:1025A00002E00120EBE7012020702870BDE8F081F7
:1025B000B400002000080140000C0140012001F09F
:1025C000CBF9FBE72DE9F04104460026881A03F019
:1025D00065F80546E0602946304602F0D5FF06461C
:1025E0002946084603F0AEF907463046616900F017
:1025F0009AFD06463846A16900F095FD0746294632
:10260000206803F097F880463146606803F092F83E
:1026100006463946A06803F08DF80746284621692A
:1026200000F081FD3146404602F0AEFF394602F02F
:10263000ABFFE16900F077FDBDE8F04103F012B8AF
:102640002DE9FC5F534C554EDFF84C81A0780127F3
:10265000A6F1080520B9C5F80080C6F80080A7706B
:102660002078DFF83C91DFF83CB168B96078002849
:1026700076D15A464846296800F068FD28604845EA
:1026800002D12770677005E02078012810D16078AA
:10269000012865D1DFF810A15A465046316800F094
:1026A00055FD3060504503D102202070607005E078
:1026B0002078022810D16078022851D1DFF8ECA0F0
:1026C0005A465046296800F041FD2860504503D124
:1026D00003202070607005E02078032810D1607816
:1026E00003283DD1DFF8C8A05A465046316800F0B3
:1026F0002DFD3060504503D104202070607005E04E
:10270000207804280ED16078042829D15A464846FA
:10271000296800F01BFD2860484503D10520207082
:10272000607005E0207805280ED16078052817D163
:102730005A464046316800F009FD3060404503D1FB
:1027400006202070607005E02078062808D16078A7
:10275000062805D15A464046296800F0F7FC286053
:10276000286802F07FFF0021CDE900010B48114BE2
:10277000114A12490838FDF76DFF306802F072FF08
:10278000CDE900070E4B0F4A0C490448FDF762FFE4
:10279000BDE8FC9F9419002000104C45AC000020BF
:1027A00000B06045CDCC4C3E00B0384500103845F7
:1027B00000705A45C0190020A0190020201A0020DE
:1027C000001A0020E01900202DE9FC5F314D354E44
:1027D000DFF8C490A878314FDFF8C4B04FF001089B
:1027E00006F10804B0B9304A4846316800F0AEFC42
:1027F0003060DFF8B8A04FF07E525046216800F0FC
:10280000A5FC206032684A4504D1504502D185F8C4
:10281000028002E0A87801280AD15A463846316879
:1028200000F094FC3060B84202D10220A87002E0AF
:10283000A87802280AD15A463846216800F086FC5A
:102840002060B84202D10320A87004E0A8780328D1
:1028500001D0306805E05A464846216800F076FC11
:10286000306002F0FFFE0021CDE90001104B114A5B
:1028700011490C48FDF7EEFE206802F0F3FECDE9A9
:10288000000808480D4B0E4A0B490830FDF7E2FEE0
:10289000BDE8FC9F941900200010384500B0514558
:1028A000CDCCCC3DA40000209A99193F009058450A
:1028B000C0190020A0190020201A0020001A0020B2
:1028C000E01900207CB52448244DC07805F10804A7
:1028D00038BB234EB6F9000002F04AFC4FF0333209
:1028E000204B02F05DFC00221F4B02F099FB02F02E
:1028F00065FB1E4A296800F029FC2860B6F9020031
:1029000002F036FC1A4A1B4B02F04AFC00221A4B1A
:1029100002F044FD02F052FB184A216800F016FC58
:102920002060286802F09EFE0021CDE90001144BD2
:10293000144A15490948FDF78DFE206802F092FE01
:102940000121CDE900010548104B114A0E4908301C
:10295000FDF780FE7CBD000094190020A40000203B
:10296000BC0000203333F33F0020A7406666663F7B
:10297000E9263108AC1CF03F0080AB403333333FD5
:10298000C0190020A0190020201A0020001A0020E1
:10299000E019002030B518488BB0164901600421B9
:1029A0000024C0E901144FF04071C1604FF40031C0
:1029B0000161490141610476447601258576C4763A
:1029C00004774477FDF7ADFF08B1FDF7CFFDCDE902
:1029D00005540294039400940194079569460648AF
:1029E00008950494FDF7B2FE002801D0FDF7BEFD66
:1029F0000BB030BD0064004038080020074910B516
:102A0000054808600846FEF78BF8002803D0BDE8AB
:102A10001040FDF7ABBD10BD003002401400002097
:102A20000D4808B5416941F001014161406900224A
:102A300000F00100009001211020FEF755FC10204D
:102A4000FEF744FC002201211120FEF74DFCBDE8F9
:102A500008401120FEF73ABC0010024010B59CB0AF
:102A60001C2216496846FDF740FC0021684600F02C
:102A70007FFF134C11491C2220601C3107A8FDF771
:102A800034FC002107A800F073FF0C4960601C2291
:102A900038310EA8FDF729FC00210EA800F068FFD0
:102AA0000649A0601C22543115A8FDF71EFC002128
:102AB00015A800F05DFFE0601CB010BD305A0008A2
:102AC000000000202DE9F04186B000242A4800943F
:102AD000019402940394816941F02001816181692C
:102AE00001F020010491816941F004018161816953
:102AF00001F004010491816941F00801816180695C
:102B0000DFF8788000F008000490012240F20331E1
:102B10004046FEF7BCF90125194FCDE900540226C5
:102B2000694638460296FEF7BDF812200090154817
:102B3000CDE9010469463846FEF7B4F80320CDE933
:102B400000050295694640460395FEF7ABF8202044
:102B50008DE8510069464046FEF7A4F84FF44070F6
:102B6000CDE90005CDE9024669464046FEF79AF8F0
:102B700006B0BDE8F081000000100240000C0140EA
:102B800000080140000011100D4810B50B4901600C
:102B90000C49416000214FF480428160C0E903127A
:102BA00041618161C1610162FEF77CF9002803D0B7
:102BB000BDE81040FDF7DABC10BD00000054004035
:102BC00060080020A0860100104810B50E49016081
:102BD0004FF482714160002102228160C0E903123A
:102BE00001224261520282613822C0E9072141621A
:102BF00081620A21C162FEF745FE002803D0BDE8CC
:102C00001040FDF7B3BC10BD00300140B4080020F7
:102C100010B596B000240F9410941194129413944C
:102C20001C2168461494FDF79AFB202107A8FDF7A4
:102C300096FB30482E4901604721C0E9011440F25B
:102C4000F311C0E9031444618461FEF70DFF08B17C
:102C5000FDF78CFC4FF480500F900FA92548FEF72C
:102C600071FF08B1FDF782FC2248FFF749F908B16E
:102C7000FDF77CFC139413A91E481494FEF7C0FEC4
:102C800008B1FDF773FC6020CDE9000402940394C1
:102C9000049405940022694616480694FFF7CDF87F
:102CA00008B1FDF763FC042269461248FFF7C5F836
:102CB00008B1FDF75BFC082269460E48FFF7BDF836
:102CC00008B1FDF753FC0794089409944FF40050A1
:102CD0000A94CDE90B4007A906480E94FEF766FE5C
:102CE00008B1FDF743FC0348FFF74CF816B010BDE0
:102CF000002C01400C09002010B58AB00024079474
:102D00001C2168460894FDF72AFB16481449016007
:102D10004721C0E9011440F2E731C0E9031484619E
:102D2000FFF7EEF808B1FDF721FC079407A90D485D
:102D30000894FEF765FE08B1FDF718FC6020CDE9A8
:102D4000000402940022694606480494FFF775F8CF
:102D500008B1FDF70BFC0348FFF714F80AB010BDEB
:102D6000000400405409002010B50E4C0C480C2102
:102D700020604FF4E13060600020A060E060C4E9B2
:102D80000401A061E0612046FFF785F908B1FDF775
:102D9000EDFB2068C16841F01001C16010BD00006A
:102DA000004400409C0900200C4810B50A4901600D
:102DB0004FF4E1314160002181600C22C160C0E923
:102DC00004128161C161FFF766F9002803D0BDE8F4
:102DD0001040FDF7CBBB10BD00480040E0090020CB
:102DE000FEE7000030B5046800233548A4F50075FF
:102DF000013D22D0A4F50075023D28D0A4F5007550
:102E0000033D2FD0B4F5017F43D0A4F50075053DF7
:102E100033D0A4F50075063D46D0A4F50075073DF6
:102E20000AD10370DBB2D518CC5C5B1CDBB285F831
:102E300030400370062BF5D330BD0370DBB2CC5CA1
:102E4000D4545B1CDBB20370062BF7D330BD037088
:102E5000DBB2D518CC5C5B1CDBB22C720370062B8A
:102E6000F6D330BD0370DBB2D518CC5C5B1CDBB293
:102E70002C740370062BF6D330BD0370DBB2D5186B
:102E8000CC5C5B1CDBB285F820400370062BF5D3CD
:102E900030BD0370DBB2D518CC5C5B1CDBB22C768A
:102EA0000370062BF6D330BD0370DBB2D518CC5CB3
:102EB0005B1CDBB285F828400370062BF5D330BDD0
:102EC0001000002030B5002201EBC2031C8864BA58
:102ED00020F832405C8865BA00EBC204521C658061
:102EE0009B88D2B25BBAA380082AEDD330BDFEE73F
:102EF00070B500240021204600F06CF80025002069
:102F000000F0F4F86D1CEDB2802DF8D3641CE4B22F
:102F1000082CEFD370BD10B500204FF47A72002159
:102F2000491C9142FCD3401C9042F8D3AE2000F0E3
:102F3000CBF8D52000F0C8F8802000F0C5F8A82014
:102F400000F0C2F83F2000F0BFF8D32000F0BCF83A
:102F5000002000F0B9F8402000F0B6F8A12000F001
:102F6000B3F8C82000F0B0F8DA2000F0ADF8122075
:102F700000F0AAF8812000F0A7F8CF2000F0A4F814
:102F8000D92000F0A1F8F12000F09EF8DB2000F03D
:102F90009BF8302000F098F8A42000F095F8A620C7
:102FA00000F092F88D2000F08FF8142000F08CF8DB
:102FB000AF2000F089F8BDE81040FFF799BF024646
:102FC000012004E0CB0700D05043524349080029B8
:102FD000F8D1704710B50C4640F0B00000F074F81E
:102FE000102040EA141000F06FF804F00F00BDE864
:102FF000104000F069B800002DE9F0410746CE000E
:103000004000083E801E15464FF0FF38F1B2C0B2B6
:10301000FFF7E0FF1148002400EB05152819A0F583
:10302000805090F8000E00F061F8641CE4B2082CA7
:10303000F4D308EB4700F1B2C0B2FFF7CBFF002496
:103040002819A0F5805090F8080E00F04FF8641C85
:10305000E4B2082CF4D3BDE8F0810000B85A0008AF
:103060002DE9F04700241E468846814615460A276A
:1030700013E0311B0A20491EFFF7A1FFB5FBF0F05A
:10308000B0FBF7F107FB110208EB0400C1B24846A0
:103090003032FFF7B1FF641CE4B2B442E9D3BDE8BB
:1030A000F0872DE9F04115460E460746002406E05C
:1030B0003019C1B23846FFF79FFF641CE4B22A5DA5
:1030C000002AF5D1BDE8F08101B584B001214FF4AB
:1030D0007A7204A88DE807000B4600227821024886
:1030E000FDF7A4FF05B000BD6008002001B584B065
:1030F00001214FF47A7204A88DE807000B464022A4
:1031000078210248FDF792FF05B000BD600800205D
:1031100070B50DF1100C9CE87000456180E80E0060
:10312000C0E9066470BD70B50E46054681F00044E6
:1031300002F0CCFB01D2354605E02046294602F0DC
:10314000C5FB00D22546284670BD00002DE9F041A0
:1031500015460F46804602F0F5FB124EB0F5000F03
:1031600001DB012005E0B04202D34FF0FF3000E068
:10317000002002F093FA0446294602F0DBFA3946B1
:1031800002F002FA05460146404602F0D0FB214615
:1031900002F0D0FAB04202D24046BDE8F0812846A3
:1031A000FBE70000000080802DE9F0410446002686
:1031B000881A02F073FA0546E0602946304602F0AC
:1031C000E3F906462946084602F0BCFB07463046AE
:1031D0006169FFF7A8FF06463846A169FFF7A3FF1C
:1031E00007462946206802F0A5FA05463146606880
:1031F00002F0A0FA06463946A06802F09BFA07469C
:103200003146284602F0C0F9394602F0BDF9E169BD
:10321000FFF789FFBDE8F04102F024BA10B5502055
:1032200080F31188BFF34F8FBFF36F8F01F01AFD4A
:1032300018B104494FF080500860002080F31188D5
:1032400010BD000004ED00E030B58FB028216846C5
:10325000FDF785F814210AA8FDF781F8012108047B
:10326000CDE900100024029402250491CDE9075015
:103270004FF4E01009906846FEF774F908B172B691
:10328000FEE70F20CDE90A054FF48060CDE90C4040
:1032900002210AA80E94FEF759F8002801D072B650
:1032A000FEE70FB030BD70470148FEF7B7BC000025
:1032B0002C0B0020F0B50268164B174C174D4FF041
:1032C0008047984205D0B84203D0A04201D0A8421E
:1032D00003D122F070064A683243984205D0B842C2
:1032E00003D0A04201D0A84203D122F44074CA689E
:1032F00022434C6922F08002224302608A68C26243
:103300000A688262984201D1096901630121416121
:10331000F0BD0000002C0140000400400008004007
:1033200010B501F01F030121046A99408C43046227
:10333000016A9A401143016210BD10B5846842EAE7
:10334000032224F47F440A432243826010BD826832
:1033500022F070020A4342F00701816070470000CA
:1033600030B5026A22F001020262026A436884698F
:1033700024F073050C682C4322F002058A682A4366
:103380000A4DA8420BD122F00805CA6823F4407305
:103390002A434D6922F004021D438B692B4343608D
:1033A000846149684163026230BD0000002C014025
:1033B00030B5026A22F010020262026A4368846930
:1033C0000D6824F4E64444EA05248D6822F02002C6
:1033D00042EA05120B4DA8420ED1CD6822F08002C0
:1033E00042EA05124D6923F4406343EA85038D697F
:1033F00022F0400243EA85034360846149688163A7
:10340000026230BD002C014030B5026A22F48072A5
:103410000262036A4268C46923F4007324F07305EE
:103420000C682C438D6843EA05230C4DA8420ED14D
:10343000CD6823F4006343EA05234D6922F440522A
:1034400042EA05128D6923F4806342EA0512426064
:10345000C4614968C163036230BD0000002C0140B3
:1034600030B5026A22F480520262046A4268C3697B
:103470000D6823F4E64343EA05238D6824F40054E1
:1034800044EA0534064DA84204D14D6922F4804235
:1034900042EA85124260C36149680164046230BD3A
:1034A000002C014010B5036A046A24F00104046290
:1034B000846924F0F00444EA021423F00A020A4367
:1034C0008461026210BD10B5036A23F01003036229
:1034D0008369046A23F4704343EA023224F0A003B0
:1034E00043EA01118261016210BD70B5446A20682F
:1034F000406994F83D10C0F3C0100025212904D183
:1035000018B1E584204600F067F82068406994F817
:103510003E10C0F38010222904D118B1E585204661
:1035200000F042F8206C40F0100020642046FEF7C6
:10353000B1FD70BD10B50146406A09680968890689
:103540001BD40021C1850168CA6822F48072CA6058
:1035500001684A6922F001024A6101684A6922F061
:1035600040024A61202180F83E10016B012904D1FC
:103570000168CA6822F01002CA60016B012902D0FA
:10358000FEF76BFE10BD818DFEF757FD10BD10B527
:10359000406A016B012902D0FEF760FE10BD818DEB
:1035A0004908FEF74AFD10BD0168CA6822F490720E
:1035B000CA6001684A6922F001024A61016B01296F
:1035C00004D10168CA6822F01002CA60202180F884
:1035D0003E100021016370470168CA6822F0C002F2
:1035E000CA60202180F83D107047000070B5044685
:1035F00000680169E26821F44051114301612169C9
:10360000A0680843616908432168CA6841F20C63F5
:103610009A430243CA6020684169A26921F440715B
:10362000114341611E492068884202D1FDF754FFD1
:1036300001E0FDF741FF00EBC00101EB0012606803
:1036400064218000B2FBF0F3B3FBF1F36FF01806D6
:103650007343B2FBF0F5B2FBF0F605EB83053223C2
:1036600003EB0515B5FBF1F5B6FBF1F605F0F0053A
:1036700005EB0615B2FBF0F6B2FBF0F0B0FBF1F093
:103680006FF01802504306EB800003EB0010B0FB14
:10369000F1F0216800F00F002844886070BD000040
:1036A0000038014038B58162828500251346044602
:1036B0000564222084F83E00A26B13489062A26B3E
:1036C0001248D062A26B12481063A06B0A46456391
:1036D0002168A06B091DFDF79BFA2068016841680D
:1036E000009184F83C50C16841F48071C160206849
:1036F000416941F0010141612068416941F04001A7
:103700004161002038BD0000353500088F350008C4
:10371000EB3400080F4C0F48FEF716FF0EA20421F1
:103720000120FFF7BEFC0FA201210220FFF7B9FC28
:103730002278012306210220FFF792FC607820B155
:103740000AA208210220FFF7ACFC012000F004F9D6
:10375000E1E70000B60000204544435F47696D6221
:10376000616C00004D4F443A0000000072756E6EAF
:10377000696E67210000000038B50C4C20680068B5
:10378000C043C00611D414252046FEF757FC084953
:103790002A460D462046FEF74BFD0649284600F016
:1037A00032F8206801684068009038BD9C0900200C
:1037B00024010020BC0000207047000010B50B4B16
:1037C0000B4A00210B48FDF738F80B4A0749084817
:1037D000FFF708FB094A05490548FEF778FEBDE8F2
:1037E000104005490648FFF76DBB0000100100209E
:1037F0001C08002038080020AC0A002056010020D8
:10380000201A0020FEE70278AF2A10D142784388C0
:103810005BBA21F82230838801EB82025BBA5380C5
:10382000C28852BA21F8502F008940BA48807047A8
:103830000907090E002804DB00F1E02080F80014DD
:10384000704700F00F0000F1E02080F8141D704771
:103850000EB5FDF7B9FC2F48304E2F4D0096CDE93F
:10386000015000231A462E492E48FFF751FC2E48DE
:103870002E4C0095CDE9014000234FF07C571A46AD
:1038800039462B48FFF744FCCDE90064294E00235C
:103890001A46314628480294FFF73AFC0095CDE9D4
:1038A000016400231A4639462448FFF731FCFFF72C
:1038B000CBFCFFF707F9FFF7B3F8FFF76BF8FFF75B
:1038C00063F9FFF781F9FFF7A3F9FFF715FAFFF79F
:1038D0004BFAFFF769FAFFF791F800211848FEF755
:1038E00053FB04211648FEF74FFB08211448FEF74E
:1038F0004BFB00211348FEF747FB1348FDF7E4F8A4
:10390000FFF709FBFCF7B2FDFFF7A8F800F02BF872
:10391000FEE700000080BB450000FA4300007A4645
:1039200000007042A019002000007A440000C84244
:10393000C019002000004842E0190020001A0020B1
:103940000C090020540900203808002001460020FE
:10395000842900D0C81C704710B500B9012000F0C0
:1039600083FD002010BD10B500F0E6FD002010BD65
:103970007FB50D4604464169B0F9080081B1A169DF
:1039800071B1FFF7E3FFD4E905128DE80700D4E930
:1039900000102B46226901F026F9039004B070BD97
:1039A000FFF7D4FF03A9CDE90001208A2B4682B29C
:1039B000D4E9001001F0EAF8012801D00020EDE779
:1039C0000398EBE72DE9F041184C0F460546666970
:1039D0002068001D00F018FC38B9206890F82C1001
:1039E00001208840A1698143A161681C07D137B1DA
:1039F0002168BDE8F0410E48091D00F055BC206863
:103A00003544B5424560216805D2A068BDE8F04163
:103A1000091D00F031BC6068091D00F02DFC206B11
:103A2000854200D22563BDE8F08100002C00002013
:103A3000900C00202DE9F041054600F041FC2E4C91
:103A40002069401C206120682C4F10B1E06940B310
:103A50002DE025602069012829D1002606EB86008B
:103A600007EB800000F0FAFB761C072EF6D3234804
:103A70008C3000F0F3FB2148A03000F0EFFB1F4832
:103A8000B43000F0EBFB1D48C83000F0E7FB1B48EA
:103A9000DC3000F0E3FB19488C3060601430A0602B
:103AA00005E02068E96AC06A884200D82560E06ABB
:103AB000401CE0626864E96A0120A2698840104302
:103AC000A06101EB810007EB8000291D00F0ECFBF9
:103AD00000F016FCE06900280CD02068E96AC06A92
:103AE000884207D206494FF080500860BFF34F8FDD
:103AF000BFF36F8FBDE8F0812C000020B40B0020D5
:103B000004ED00E038B500F0DBFB104CA068C8B94C
:103B10000F4800F0A3FB0E48143000F09FFB0C4848
:103B20002060143060600A4B00202833009003F1BD
:103B300050020C210A2000F0CDFDA06010B105A1BB
:103B400000F05CFCBDE8384000F0DABB6800002003
:103B5000A40C0020546D72510000000030B4026CBF
:103B60000B46002A0BD0C1681144C1604468A142D1
:103B700001D30168C16030BC1846FCF771BB30BC92
:103B800070472DE9F041856B174604460026026C0C
:103B900082B1C7B1E068FCF763FBE168206C091AE9
:103BA000E1602268914202D26168081AE060022F47
:103BB00016D017E02068A8B9606801F0B7F806468B
:103BC000002060600EE0A068FCF74AFB216CA06852
:103BD0000844A0606168884204D32068A06001E0C6
:103BE00005B16D1E6D1CA5633046BDE8F08110B5B2
:103BF000044690F8590058B101280CD002280FD083
:103C0000502080F31188BFF34F8FBFF36F8FFEE713
:103C1000206B00F089FB2046BDE8104000F084BB1B
:103C200010BD000010484FF44061420706D0C01D8F
:103C30000D4920F00700411AC1F540610B4A0023ED
:103C40000144C2E900030839103A21F0070111606C
:103C50004B600B600B1AC0E9001393604FF00040FB
:103C60005360D06070470000940D00208C0000204D
:103C7000144E154CA6F1C8074FF08058DFF84C9051
:103C800012E000BF00F01CFBF068C568281D00F0C2
:103C9000BBFA2069401E2061E068401EE06000F031
:103CA0002FFB2846FFF7A3FFE0680028EAD1386819
:103CB0000128F9D9C9F80080BFF34F8FBFF36F8F88
:103CC000F2E700007C0C00202C00002004ED00E056
:103CD00070B51D46049C51B1C4F80020C4E90F0121
:103CE0000121204600F02AFD84F84C5070BD24606C
:103CF000F4E72DE9F0470E46DDE9098417468246D0
:103D000091009946089DA522206BFCF720FB6FF0DF
:103D10000301206B01EB8701084420F007077807B7
:103D200007D0502080F31188BFF34F8FBFF36F8F00
:103D3000FEE72218315C82F83410315C11B1401C6E
:103D40001028F6D3002684F84360072D00D30625FB
:103D5000E562C4E91356201D00F08BFA04F1180047
:103D600000F087FA2461C5F107006462A06166650E
:103D700084F858604A465146384600F033FA2060CD
:103D8000B8F1000F01D0C8F80040BDE8F08700008E
:103D900030B5114900E011460A688242FBD34B68F6
:103DA0005C18844203D14068184448600846436860
:103DB0001C18944209D1084C103C2468A24209D036
:103DC00052681A4442600A6812680260814200D058
:103DD000086030BD0460F9E78C00002070B5002455
:103DE00041600B4D0061914206D8D11A826991421F
:103DF00006D2011D686807E09A4203D2994201D3B6
:103E0000012403E0011D286800F036FA204670BD49
:103E10006800002010B5044600F052FAA06B28B1EB
:103E20005FF0000400F06CFA204610BD0124F9E7B1
:103E300030B587B02C4D4EE0049800284BDB069C33
:103E4000606910B1201D00F0DFF902A800F0B8F899
:103E5000024604980A283ED2DFE800F00505053D39
:103E6000263705053D260598A169034601442046ED
:103E7000FFF7B4FF00B3616A20468847E069012874
:103E800029D1002000900598A16900234218194605
:103E9000204601F063F878B9502080F31188BFF311
:103EA0004F8FBFF36F8FFEE70598A06128B181188F
:103EB00013462046FFF792FF0DE0502080F3118853
:103EC000BFF34F8FBFF36F8FFEE794F82C0010B94C
:103ED000204600F029FA002204A9A86800F080FD1D
:103EE0000028A9D107B030BD680000202DE9FC41B1
:103EF0000F46054600F064FB01A800F061F8044697
:103F0000019818B100F098FFBDE8FC81224EAFB1D6
:103F100070680068A8B30027291B3A46B06800F013
:103F200081FA00F089FF0028EED11C494FF0805043
:103F30000860BFF34F8FBFF36F8FE5E7A542EBD863
:103F400000F07AFF30682746C068C468201D00F082
:103F50005BF9E069012810D1A0692B4641193A4666
:103F60002046FFF73BFF40B100200346014600908A
:103F70002A46204600F0F2FF20B1616A20468847B9
:103F8000C2E707E0502080F31188BFF34F8FBFF3E3
:103F90006F8FFEE70127BFE76800002004ED00E017
:103FA00006484168096829B14168C968C968496813
:103FB000016370474FF0FF31FAE700002C0000204A
:103FC00070B5054600F048FE064E0446306984424E
:103FD00003D200F009F8012000E00020286020460C
:103FE000346170BD68000020F8B5194D1FE0C0684D
:103FF000C4680668201D00F007F9616A20468847FA
:10400000E069012813D1A0693044B04206D9246187
:104010006060211D286800F02FF908E000200346A9
:10402000014600903246204600F098FF38B12868DB
:1040300001680029DBD16968C5E90010F8BD50208E
:1040400080F31188BFF34F8FBFF36F8FFEE700003F
:104050006800002008484068401C4FF0500080F382
:10406000118804D0BFF34F8FBFF36F8FFEE7BFF30C
:104070004F8FBFF36F8FFEE794000020074C20683E
:10408000016841B1C0680021D0F80000FFF72EFFA1
:10409000FFF7CEFEF3E701210020F7E768000020DC
:1040A0002DE9F041044600F00BF994F9455004F174
:1040B000240609E0606A48B1304600F083FE08B18A
:1040C00000F000FA6D1E6DB2002DF3DC4FF0FF36EC
:1040D00084F8456000F014F900F0F2F894F94450C7
:1040E00004F1100709E0206948B1384600F06AFE83
:1040F00008B100F0E7F96D1E6DB2002DF3DC84F815
:104100004460BDE8F04100F0FBB800002DE9F0414B
:104110000546002700F054FA314E306808B9FFF721
:1041200081FDF06805424BD1C5B3083568070ED054
:1041300005F00700C0F108000544680707D05020CB
:1041400080F31188BFF34F8FBFF36F8FFEE72DB35E
:104150007068854234D82248103001460C6801E06E
:1041600020460C466168A94202D221680029F7D195
:1041700031688C4224D00768216801606068083784
:10418000411B10290FD96019420708D0502080F335
:104190001188BFF34F8FBFF36F8FFEE710E04160D0
:1041A0006560FFF7F5FD61687068401A7060B2687D
:1041B000904200D2B060F06801430020C4E90001E1
:1041C00000F03AFE780707D0502080F31188BFF343
:1041D0004F8FBFF36F8FFEE73846BDE8F0810000D8
:1041E0007C00002010B5031F4FF080741C601B1F63
:1041F00021F001011960191F024B0B60143940387E
:104200000A6010BD55400008D0E9013201699A608A
:10421000D0E901235A604A68824201D182684A602B
:10422000002202610868401E0860086870470000AC
:10423000034B036003F15C0008608020106070474E
:1042400064010020044B036003F15C0008604FF43C
:104250008070106070470000C003002000F108016A
:104260004FF0FF32C0E90112C1600161002101601D
:10427000704700210161704730B50B685A1C02D0AD
:1042800000F1080202E0026904E022465468256851
:104290009D42FAD953684B6099608A605160086109
:1042A0000168491C016030BD42684A6093688B60B8
:1042B00093685960916008610168491C016070470A
:1042C000502080F31188BFF34F8FBFF36F8F0A49DF
:1042D0004868401C486001280CD10848006810F06C
:1042E000FF0F07D0502080F31188BFF34F8FBFF32B
:1042F0006F8FFEE7704700009400002004ED00E09F
:104300000849486828B1401E486001D180F31188EF
:104310007047502080F31188BFF34F8FBFF36F8F2A
:10432000FEE700009400002070B5002827D0144D4F
:10433000A0F108046168E868014207D1502080F3C9
:104340001188BFF34F8FBFF36F8FFEE722683AB13A
:10435000502080F31188BFF34F8FBFF36F8FFEE7BC
:104360008143616000F02CF9606869680844686006
:104370002046FFF70DFDBDE8704000F05DBD70BD4B
:104380007C0000204FF0E02000210161816105499F
:104390004FF47A720968B1FBF2F1491E41610721BD
:1043A000016170471C00002010B5FBF735FF114973
:1043B00010280ED300F1E02090F8F0030A78904224
:1043C00007D2502080F31188BFF34F8FBFF36F8F58
:1043D000FEE709480068896800F4E060884207D970
:1043E000502080F31188BFF34F8FBFF36F8FFEE72C
:1043F00010BD0000940000200CED00E010B5084B4B
:10440000002200BF53F832401CB1521C082AF9D3D5
:1044100010BD43F8321003EBC201486010BD00002C
:10442000740B002070B515460E460446FFF748FF92
:1044300094F944100020491C01D184F8440094F9F7
:104440004510491C01D184F84500FFF759FFA06BC6
:1044500028B92A46314604F1240000F051F82046DC
:10446000BDE87040FFF71CBE10B5020014D00F4825
:10447000806B38B1502080F31188BFF34F8FBFF3AA
:104480006F8FFEE700F09CF800211046FFF79AFAC4
:1044900000F0D2FC002807D105494FF08050086099
:1044A000BFF34F8FBFF36F8F10BD00002C000020B3
:1044B00004ED00E002498A6A026049694160704780
:1044C0002C00002001490120486270472C00002088
:1044D00010B50C4650B1094909681831FFF7CCFEF8
:1044E0002046BDE810400121FFF76CBA502080F350
:1044F0001188BFF34F8FBFF36F8FFEE72C000020B2
:1045000070B514460D4668B10A4909681831FFF7BD
:10451000CBFE0CB14FF0FF3521462846BDE8704078
:10452000FFF750BA502080F31188BFF34F8FBFF3CD
:104530006F8FFEE72C00002030B587B00024039475
:1045400005AA04A903A80494FFF772FEDDE903019C
:104550000094CDE90110002315A11748059A00F039
:1045600042FB164D002868631FD000F0C7FC0128ED
:1045700009D0401C19D1502080F31188BFF34F8F10
:10458000BFF36F8FFEE7502080F31188BFF34F8F8A
:10459000BFF36F8F4FF0FF3028630120E8616C613B
:1045A00007B0BDE8304000F041B807B030BD0000B2
:1045B00049444C4500000000713C00082C000020DC
:1045C0000248816B491C8163704700002C00002069
:1045D0001448816B11B10121416270470021416291
:1045E0008169B1FA81F1C1F11F0101EB81020E492C
:1045F00051F822306BB101EB820101F108034A68E6
:1046000052684A609A4201D152684A60D16801609A
:104610007047502080F31188BFF34F8FBFF36F8F27
:10462000FEE700002C000020B40B00201CB526493A
:1046300008780190FF20087008788DF800009DF838
:1046400000009DF8002000F0F000904207D05020BC
:1046500080F31188BFF34F8FBFF36F8FFEE79DF894
:1046600000001A4B00F0500018700720986005E019
:104670009DF8002052008DF80020401E9DF800207B
:104680001206F5D49860032807D0502080F31188D3
:10469000BFF34F8FBFF36F8FFEE74FF4407098600A
:1046A000019808700A48016841F4700101600168CE
:1046B00041F070410160FFF765FE00205860FBF794
:1046C00075FD00201CBD000000E400E09400002007
:1046D00020ED00E038B5049D18B153B1CAB181B1E5
:1046E00020E0502080F31188BFF34F8FBFF36F8F0E
:1046F000FEE7502080F31188BFF34F8FBFF36F8F19
:10470000FEE7502080F31188BFF34F8FBFF36F8F08
:10471000FEE739B1502080F31188BFF34F8FBFF30C
:104720006F8FFEE750241C46012384F846302B4649
:104730000094FFF7CDFA204638BD000070B50D4655
:10474000040025D0FFF7BCFDD4E90F20216802FB4F
:10475000001161600021A1632168A1600A46D4E9CB
:104760000F01401E00FB0121E16021464FF0FF30A8
:1047700001F8440F487004F110008DB1FFF76EFD91
:1047800004F12400FFF76AFDFFF7BAFD012070BDB8
:10479000502080F31188BFF34F8FBFF36F8FFEE778
:1047A00021690029F0D000F00DFB0028ECD004496D
:1047B0004FF080500860BFF34F8FBFF36F8FE3E778
:1047C00004ED00E02DE9FF4782B01D468A464FF018
:1047D0000008040003D0BAF1000F08D011E0502007
:1047E00080F31188BFF34F8FBFF36F8FFEE7206C0C
:1047F00038B1502080F31188BFF34F8FBFF36F8F14
:10480000FEE7022D0AD1E06B012807D0502080F38B
:104810001188BFF34F8FBFF36F8FFEE700F00EFAE2
:104820003F4F4FF000094FF0805648B9049838B117
:10483000502080F31188BFF34F8FBFF36F8FFEE7D7
:10484000FFF73EFDA06BE16B884207D3022D05D038
:104850000498D0B1B8F1000F1AD01EE02A46514694
:104860002046FFF78EF9616A19B104F1240000F0C7
:10487000A9FA20B13E60BFF34F8FBFF36F8FFFF7F0
:104880003FFD012006B0BDE8F087FFF739FD22E0CB
:104890006846FFF70FFE4FF00108FFF731FDFFF705
:1048A0008FFEFFF70DFD94F94400401C01D184F800
:1048B000449094F94500401C01D184F84590FFF7DD
:1048C0001FFD04A9684600F027F930B12046FFF724
:1048D000E7FB00F0B1FA0020D4E7FFF7F1FCA06B92
:1048E000E16B884213D1FFF70BFD04F1100004992E
:1048F000FFF7EEFD2046FFF7D3FB00F09DFA0028FE
:104900009ED13E60BFF34F8FBFF36F8F98E7FFF7E5
:10491000F7FC2046FFF7C4FB00F08EFA90E700009A
:1049200004ED00E02DE9F0471F469046894604005B
:1049300003D0B9F1000F08D011E0502080F31188A6
:10494000BFF34F8FBFF36F8FFEE7206C38B150205D
:1049500080F31188BFF34F8FBFF36F8FFEE7022FF5
:104960000AD1E06B012807D0502080F31188BFF3F3
:104970004F8FBFF36F8FFEE7FFF716FD5020EFF369
:10498000118680F31188BFF34F8FBFF36F8FA06B39
:10499000E16B884206D3022F04D0002086F31188F1
:1049A000BDE8F08794F945503A4649462046FFF75E
:1049B000E8F8681C04D06D1C84F845500120EDE730
:1049C000606A0028FAD004F1240000F0FBF9002806
:1049D000F4D0B8F1000FF1D00121C8F80010EDE7D4
:1049E0002DE9F747002683B08A46040003D0BAF1C8
:1049F000000F08D011E0502080F31188BFF34F8FD3
:104A0000BFF36F8FFEE7206C38B1502080F3118820
:104A1000BFF34F8FBFF36F8FFEE700F00FF9DFF8A2
:104A2000F4804FF000094FF0805748B9059838B12D
:104A3000502080F31188BFF34F8FBFF36F8FFEE7D5
:104A4000FFF73EFCA56BC5B151462046FFF786F83F
:104A50006D1EA563206950B104F1100000F0B2F999
:104A600028B1C8F80070BFF34F8FBFF36F8FFFF707
:104A700047FC012006B0BDE8F087059808B11EB1DB
:104A800006E0FFF73DFC27E06846FFF713FD01262F
:104A9000FFF736FCFFF794FDFFF712FC94F9440092
:104AA000401C01D184F8449094F94500401C01D188
:104AB00084F84590FFF724FC05A9684600F02CF81F
:104AC000002820460AD0FFF7EBFA00F0B5F920469F
:104AD000FFF7A0F90028B3D00020CBE7FFF79AF941
:104AE00090B104F124000599FFF7F2FC2046FFF78E
:104AF000D7FA00F0A1F90028A2D1C8F80070BFF3DE
:104B00004F8FBFF36F8F9BE72046FFF7C9FA00F086
:104B100093F995E704ED00E02DE9F0410C4605001E
:104B200011D0C4B1FFF7CCFB174B5A696E682068EF
:104B3000911B471C17D02F689B6A9F4219D0964241
:104B400017D8012410E0502080F31188BFF34F8F55
:104B5000BFF36F8FFEE7502080F31188BFF34F8FB4
:104B6000BFF36F8FFEE70024FFF7CAFB2046BDE8C6
:104B7000F081884205D9401A20602846FFF79AFC48
:104B8000F1E700202060DCE72C0000202DE9FF5F2A
:104B90008346DDE90E87994616468A469000FFF760
:104BA000B5FA05001CD05C20FFF7B0FA040014D061
:104BB0000020256384F85900CDE90240CDE9008743
:104BC0004B46324651465846FFF793F82046FEF7CB
:104BD00031FF012004B0BDE8F09F2846FFF7A4FB99
:104BE0004FF0FF30F6E7F0B585B0DDE90B640A9DC4
:104BF000A6B1DCB15C2700972663022684F85960D1
:104C0000002604AFCDE90246CDE90057FFF771F861
:104C10002046FEF70FFF049805B0F0BD502080F34A
:104C20001188BFF34F8FBFF36F8FFEE7502080F3E3
:104C30001188BFF34F8FBFF36F8FFEE70548C1693F
:104C400019B1806B18B10020704701207047022015
:104C5000704700002C0000200148406970470000A8
:104C60002C0000202DE9F0412E4C0027A06B40B114
:104C7000206A401C2062606A00B101273846BDE806
:104C8000F0816669761C666113D16068006838B18E
:104C9000502080F31188BFF34F8FBFF36F8FFEE773
:104CA0006068A1686160A060A06A401CA062FFF714
:104CB00077F9206BDFF87080864209D3606800685E
:104CC00080B16068C068C568686886420DD220639C
:104CD0002068C06A00EB800158F821000128CAD979
:104CE0000127C8E74FF0FF30F1E7281DFFF78CFAE6
:104CF000A86A18B105F11800FFF786FAE86A0121E1
:104D0000A26981401143A16100EB800108EB8100A1
:104D1000291DFFF7C9FAE86A2168C96A8842CDD31C
:104D20000127CBE72C000020B40B002070B5040055
:104D30004FF0000140D0214D2868844207D0502018
:104D400080F31188BFF34F8FBFF36F8FFEE7206DA5
:104D500038B1401E2065E36CE26A9A422CD040B123
:104D60002AE0502080F31188BFF34F8FBFF36F8F7D
:104D7000FEE7201DFFF748FA114A012150B9E06A09
:104D800000EB800352F8233023B9AB6901FA00F03D
:104D90008343AB61E06CE062C0F10700A061E06AB0
:104DA000AB6981401943A96100EB800002EB8000F0
:104DB000211DFFF779FA0121084670BD2C00002063
:104DC000B40B00202DE9F041C068C468ACB104F117
:104DD00018000746FFF718FA154DA86B0126A0B179
:104DE00039461448FFF760FAE06A2968C96A8842C0
:104DF0001CD901206E62BDE8F081502080F311883B
:104E0000BFF34F8FBFF36F8FFEE7201DFFF7FCF955
:104E1000E16AAA6906FA01F01043A86101EB81007A
:104E20000449B43901EB8000211DDBE70020E2E7F3
:104E30002C000020680C00202DE9F0472C4D0024A8
:104E40002746A86B38B1FFF73BFAA86B401EA86352
:104E5000A86B40B146E0502080F31188BFF34F8F1C
:104E6000BFF36F8FFEE72969224E0120D1B3A6F16F
:104E7000B40980463068E8B1F068C46804F11800ED
:104E8000FFF7C2F9201DFFF7BFF9E06AAA6908FA27
:104E900000F11143A96100EB800109EB8100211DA4
:104EA000FFF702FAE06A2968C96A8842E2D3C5F8C6
:104EB0002480DFE70CB1FFF773F82C6A44B1464653
:104EC000FFF7D0FE00B16E62641EF9D100202862A7
:104ED000686A38B10849012738070860BFF34F8F67
:104EE000BFF36F8FFFF70CFA3846BDE8F08700007C
:104EF0002C000020680C002004ED00E010B586B006
:104F0000FEF700FE114CA068B8B100200390049099
:104F100005AA04A903A8FFF795F9DDE903210220FA
:104F20008DE8070000230AA10B48059AFFF75BFEF6
:104F3000E06010B106B0012010BD502080F3118850
:104F4000BFF34F8FBFF36F8FFEE7000068000020B4
:104F5000546D7220537663007D400008FEB51E46F6
:104F600013460200089D4FF0000014D0124CA768B1
:104F7000002F0FD0CDE900130292062915DAFFF7B2
:104F80005DFE02284FF000030DD000226946A068A4
:104F9000FFF718FCFEBD502080F31188BFF34F8F40
:104FA000BFF36F8FFEE72A46F0E7002332466946DB
:104FB0003846FFF7B7FCFEBD6800002021F0004234
:104FC000A2F16052B2F5801F01F0004328BFD2F178
:104FD0007F6C0BD95FEA001C43EAC20242EB5070BF
:104FE00018BF704728BF20F001007047B2F5801F3E
:104FF000BCBF184670474FEA410C1CF5001F02D297
:10500000084600F05EBC70B500F074F9000000893D
:10501000FFF7F6BF4FF00040A0F58000704700009A
:1050200010B591EA030F48BF83F0004300F1CA8135
:10503000841A71EB030C05D2121943EB0C03001B0D
:1050400061EB0C01DFF824E14FEA1154A4EB135C8F
:105050001EEA430F18BF9EEA445F73D023EA0E0393
:10506000DCF1200E21EA045143F4801332D322FAFA
:105070000CFE10EB0E0023FA0CFE41EB0E01CCF1FE
:10508000200E03FA0EFE10EB0E0051F10001B1F5F7
:10509000801FCCF1200E32D201EB045112FA0EF235
:1050A000BDE8104058BF7047401C38BF5FEA42025D
:1050B00018BF7047002814BF20F0010041F1000123
:1050C0004FEA410313F5001F38BF7047A1F1C041FB
:1050D00000F05EB9012A43EB0302ACF1200CDCF1D5
:1050E0001F0E32BF4FF0000E23FA0CF310EB03003B
:1050F00041EB0451B4EB115FD0D0A1EB045101F5A9
:10510000801149085FEA300001EB04510ED350F1E1
:10511000000038BF12FA0EFE08D1BDE81040C9E702
:10512000401C38BF5FEA4202CAD1C3E7BDE8104065
:105130004FEA410313F5001F38BF7047A1F1C0418A
:1051400000F026B99EEA445F08D011EA5E0FBDE880
:10515000104004BF01F0004100207047BDE810403E
:1051600070B500F0C7F800BF64FBBE3E0000E0FF72
:1051700010F0004248BF4042B0FA80F310FA03F149
:105180000AD0C3F11D0303F580634FEA415002EBDF
:10519000035202EBD12170474FF00000704700002E
:1051A000DFF848C170B51CEA111E1EBF1CEA1315BA
:1051B0009EEA0C0F95EA0C0F00F06F8081EA030461
:1051C00023EA4C134EEAD47E21EA4C1141F48011BB
:1051D00043F48013AE44A1FB024CA0FB0365AEF187
:1051E0007F7E361955EB0C05A1FB034C4CF10003F7
:1051F000A0FB021C16EB0C06654153F100030942AB
:1052000018BF46F0010613F4007F0BD14FEA0331BB
:105210004FEA0530340341EA155140EA16506FF069
:1052200003020AE04FEAC3214FEAC520F40241EA33
:10523000555140EA56506FF0020202EB2E4201EB4C
:10524000025585EACE710AD05FEA440C18BF24F0FB
:10525000004450F1000041F1000120EAD47040F216
:10526000FE7C624500D270BDA84214BF4FF080445E
:105270004FF04044002E08BF0024BEF1806FA8BF4D
:10528000A1F1C041BDE8704080F282804FF0000083
:1052900001F1C04101F0004170479EEA0C0F0CEA99
:1052A000131518BF95EA0C0F06D04FF0000081EAE5
:1052B000030E0EF0004170BD00F01CF88900013EA5
:1052C00000F007B800F009B84FEA430C5FEA5C5CF5
:1052D00008D081EA030100F05BB84FEA410C5FEAB5
:1052E0005C5CF6D14FF00000014970470000FF07F9
:1052F0000000F87F0EF1020E2EF0030E5EF8046B34
:10530000364205D4012A43EB030515F5001F12D8D8
:10531000012841EB010C1CF5001F0CD80ED14FEAFF
:10532000D17C15F5001F0CEB4C0C0CF1020C08BFE6
:105330004CEBD37C04E04FF0080C01E04FEAD37C47
:105340000CEB4C0526FA05F606F00706B6F1040C40
:1053500006D20EEB860CBDE870404CF0010C6047A5
:10536000DFE80CF0090B02024FF000414FF00000A3
:10537000A1F5002170BD19461046012851EB01042A
:1053800018BFD4F5001484BF002001F0004170BDA7
:105390000808A0F500114FEA3101704791EA030FA8
:1053A00010B581F000413FF543AE83F0004300F0BB
:1053B00009B8000010B591EA030F48BF83F000431D
:1053C0003FF536AE841A71EB030C07D212198CF03C
:1053D000004C43EB0C03001B61EB0C01DFF8A4E174
:1053E0004FEA1154A4EB135C1EEA430F18BF9EEA68
:1053F000445F00F0B08023EA6E03524221EA045178
:10540000C3EB6E0338BF5B1EDCF1200E25D322FAFE
:105410000CFE10EB0E0043FA0CFE41EB0E01CCF13A
:10542000200E03FA0EFE10EB0E0051F10001CCF13C
:10543000200E29D412FA0EF201EB0451BDE81040FF
:1054400058BF7047401C1CBFB2F1004F7047002886
:105450000CBF491C20F00100704712EB020E43EB19
:10546000030218BF4FF0010E4EEA4202ACF1200CCD
:10547000DCF11E0E54D943FA0CFE10EB0E0051F174
:10548000FF31CCF11E0ED5D50EF1010E12FA0EFE33
:10549000404141EB010101EB445C5FEA5C5C10D9E7
:1054A00010EBDE7001EB045138BFBEF1004FBDE8D8
:1054B000104018BF704700280CBF491C20F00100A5
:1054C000704730D24FEAD42C11F5001124F4006457
:1054D0001BD0B1FA81F20B3AA41AA41ED2F1200318
:1054E000914030FA03F31943904001EBCC71002C4A
:1054F00001EB0451BDE81040A8BF704701F1C04165
:105500004FF0000001F000417047B0FA80F310FA4C
:1055100003F100D110BDE41A173C4805C90AE4E7BD
:1055200001EB045110BD491001EB0451BDE81040DE
:105530004FEA300002E04FF0000170474A0008BF18
:105540000042F8D0B2F5001F28BF704701F00041BB
:105550004FF0000070479EEA445F07D011EA5E0FEB
:10556000BDE8104004BF002100207047BDE8104096
:1055700070B5FFF7BFFE00BF40DFF63E83F000418D
:10558000104670470000E0FF90EA010F48BF81F02D
:10559000004100F1DE81421A3CBF801A89184FEAAF
:1055A000D0524FF07F4C1CEA410FA2EBD15318BFF1
:1055B0009CEA026F00F03B804FF0004C4CEA002068
:1055C0004CEA012121FA03FC10EB0C0C1ED202F173
:1055D000FF325FEA1C2040EBC25038BF70471CF01E
:1055E0007F0F4FEA400C18BFBCF17F4F38BF7047A8
:1055F000C3F12003994008BF20F00100BCF17F4FA8
:1056000038BF7047A0F1C04000F05BB94FEA3C00E2
:10561000000A40EBC25028BF1CF0FF0F4FEA400CBD
:10562000E6D018BFBCF17F4F38BF7047EAE79CEA6D
:10563000026F05D010EA5C0F08BF00F00040704711
:1056400010B500F0F8F800BF64FBBE3E401058BF34
:10565000C0F14040491058BFC1F140418142EFF3D1
:105660000080704741000B0ED3F19E0208D950F420
:1056700000034FEA032323FA02F048BF4042704779
:1056800010B500F0D8F800BF499224800020704780
:105690006FF0004282EA20007047000010F00041E5
:1056A00048BF4042B0FA80F310FA03F2C3F19D0301
:1056B0000BD051EAC35101EB1220530638BF70479B
:1056C00000F1010008BF20F00100704750EA010C12
:1056D00000F113801CF5000F58BFBCF5000F01D47A
:1056E0008842704707D710F5000F58BF11F5000F1B
:1056F00015D488427047894270471CF5000F04D5C5
:10570000BCF5000FF7D5814270474FF0807C1CEB51
:10571000400F38BF1CEB410F01D28142704710B5DA
:1057200000F089F8922449004FF000504FF080516A
:10573000FFF78CBF4FF47F0C1CEAD0121EBF1CEA8F
:10574000D11392EA0C0F93EA0C0F00F0478090EA15
:10575000010F48BF42F480724FF0004C4CEA002029
:105760004CEA012102EB0302A0FB0113A2F50002A7
:10577000002918BF43F001035B0028BF4FEA330341
:1057800042EB22425FEA132C4CEBC2502EBFBCEB23
:10579000436FB2F57C0F70474FEA036CBCF1004FCA
:1057A00008BF20F00100B2F57C0F38BF70470BD561
:1057B00082F0FF0212F5803FC8BF704700F1C04081
:1057C000D8BF00F00040704700F5000C5FEA4C0CB9
:1057D00048BF7047B0F1C04000F073B890EA010FC5
:1057E0000CEAD11348BF42F48072624538BF63456A
:1057F00004D280EA010000F00040704710B500F0CC
:105800001AF800BF8900013E00F007B800F009B89F
:105810005FEA410C5FEA1C6C08D080EA010000F0EE
:1058200050B85FEA400C5FEA1C6CF6D14FF00040C4
:10583000A0F5800070470EF1020E2EF0030E5EF808
:10584000044B244204D44FEA4102B2F17F4F11D8F5
:105850004FEA4003B3F17F4F0CD80ED14FEAD07C12
:10586000B2F17F4F0CEB4C0C0CF1020C08BF4CEB6F
:10587000D17C04E04FF0080C01E04FEAD17C0CEB46
:105880004C0324FA03F404F00704B4F1040C06D228
:105890000EEB840CBDE810404CF0010C6047DFE8D3
:1058A0000CF0070802024FF00040A0F5800010BD88
:1058B0000846420018BFD2F1807288BF00F0004055
:1058C00010BDFF2141EAD050C005704751EA000CDD
:1058D00000F113801CF5000F58BFBCF5000F01D478
:1058E0008142704707D711F5000F58BF10F5000F20
:1058F00015D481427047894270471CF5000F04D5CA
:10590000BCF5000FF7D5884270474FF0807C1CEB48
:10591000410F38BF1CEB400F01D28842704780EA2C
:10592000010081EA000180EA0100FFF7F8BE80F083
:10593000004090EA010F7FF52EAE81F0004100F0AB
:1059400008B8000090EA010F48BF81F000413FF520
:1059500022AE421A04D882F00042A0EB02001144A9
:105960004FEAD0524FF07F4C1CEA410FA2EBD153CB
:1059700018BF9CEA026F4AD04FF0004C4CEA00205E
:105980004CEA012121FA03FCB0EB0C0C0FD412F00D
:10599000FE0F36D05FEA4C001DD5001240EBC2501E
:1059A00038BF70471CF03F0F18BF70470BE0A2F1E3
:1059B00001025FEA1C2040EBC25038BF70471CF068
:1059C0007F0F18BF7047C3F12003994014BF401EDA
:1059D00020F00100704780084FEA122308BF70478B
:1059E000B0FA80FCA2EB0C02CCF1280C60FA0CF0AF
:1059F00093EA122F04BF00EBC25070474FEAC37006
:105A00007047130A5FEADC1008BF7047F6E79CEAAC
:105A1000026F04D010EA5C0F08BF0020704710B579
:105A2000FFF709FF40DFF63E81F0004070470000BD
:105A3000C4600008153700080000000000000000E6
:105A4000800000000000000000000000DC60000892
:105A50000125000802000000000000008000000096
:105A60000000000000000000CC60000841050008B4
:105A7000FEFF0000000000008000000000000000A9
:105A800000000000B8600008BD250008FEFF00000F
:105A90000000000080000000000000000000000086
:105AA00000000000000000000102030406070809CE
:105AB00000000000010203040000000000000000DC
:105AC0000000000000000000000000F800000000DE
:105AD000000000333000000000100C06100C06001F
