:020000040800F2
:100000005007002055010008111000087D0F00085E
:1000100000000000000000000000000000000000E0
:1000200000000000000000000000000015100008A3
:100030000000000000000000131000081710000866
:100040006701000800000000670100086701000860
:1000500067010008670100086701000867010008E0
:100060000000000067010008670100086701000840
:100070006701000867010008670100080000000030
:100080006701000800000000000000006701000890
:100090000000000067010008670100086701000810
:1000A0000000000067010008000000006701000870
:1000B00000F002F800F03EF80CA030C80838241810
:1000C0002D18A246671EAB4654465D46AC4201D190
:1000D00000F030F87E460F3E0FCCB6460126334284
:1000E00000D0FB1AA246AB46334318472814000041
:1000F00048140000103A02D378C878C1FAD85207E1
:1001000001D330C830C101D504680C6070470000CD
:100110000023002400250026103A01D378C1FBD823
:10012000520700D330C100D50B6070471FB51FBD0B
:1001300010B510BD00F07BF91146FFF7F7FF01F095
:10014000B1F900F093F903B4FFF7F2FF03BC00F03C
:1001500099F900000748804707480047FEE7FEE797
:10016000FEE7FEE7FEE7FEE704480549054A064BC1
:100170007047000097100008B100000850010020EF
:10018000500700205003002050030020FEB5054614
:1001900010460C46184373D0AE468C460020AD1A6C
:1001A00001469C4167D36646002701243D46B61AA6
:1001B0009D4102D313463A462124654676462F04D4
:1001C000360C3E432D0CB61A9D4104D3150C1B046E
:1001D0002B4312041034654676462F06360A3E43FA
:1001E0002D0AB61A9D4104D3150E1B022B43120291
:1001F0000834654676462F0736093E432D09B61A60
:100200009D4104D3150F1B012B431201241D65468C
:100210007646AF07B6083E43AD08B61A9D4104D3F3
:10022000950F9B002B439200A41C65467646EF0772
:1002300076083E436D08B61A9D411AD392185B4169
:10024000641C16E00018764665464941B71A9D4180
:100250000191009009D36046B11A98418E468446B8
:10026000009801990025401C6941DD0752082A4386
:100270005B08641EE6D57246634603B0F0BDFFE737
:1002800000200146C046C0462A462346F5E701E065
:1002900004C0091F0429FBD28B0701D50280801CF2
:1002A000C90700D00270704700290BD0C30702D0E5
:1002B0000270401C491E022904D3830702D5028024
:1002C000801C891EE3E70022EEE70022DFE7002220
:1002D00003098B422CD3030A8B4211D300239C4683
:1002E0004EE003460B433CD4002243088B4231D3FB
:1002F00003098B421CD3030A8B4201D394463FE08F
:10030000C3098B4201D3CB01C01A524183098B42EE
:1003100001D38B01C01A524143098B4201D34B01D7
:10032000C01A524103098B4201D30B01C01A52413A
:10033000C3088B4201D3CB00C01A524183088B42C1
:1003400001D38B00C01A524143088B4201D34B00AA
:10035000C01A5241411A00D201465241104670471C
:100360005DE0CA0F00D04942031000D34042534021
:1003700000229C4603098B422DD3030A8B4212D3E1
:10038000FC22890112BA030A8B420CD38901921113
:100390008B4208D3890192118B4204D389013AD050
:1003A000921100E08909C3098B4201D3CB01C01A25
:1003B000524183098B4201D38B01C01A5241430938
:1003C0008B4201D34B01C01A524103098B4201D326
:1003D0000B01C01A5241C3088B4201D3CB00C01A93
:1003E000524183088B4201D38B00C01A5241D9D2AB
:1003F00043088B4201D34B00C01A5241411A00D22C
:100400000146634652415B10104601D34042002B27
:1004100000D54942704763465B1000D3404201B5A6
:100420000020C046C04602BD704770477047754601
:1004300000F024F8AE46050069465346C008C000E7
:10044000854618B020B5FFF78FFE60BC002749082D
:10045000B6460026C0C5C0C5C0C5C0C5C0C5C0C55C
:10046000C0C5C0C5403D49008D46704710B5044623
:10047000C046C0462046FFF766FE10BD00487047E4
:10048000EC00002001491820ABBEFEE72600020068
:1004900070470000F8B5002303240125BAE02E467A
:1004A0009E40B44632407CD00E79B607B60F012E7E
:1004B00001D0022E17D186682746B6465E00B740A7
:1004C00000967646BE43B646CF68009EB740764655
:1004D0003743876046686746BE430F79FF06FF0FC4
:1004E0009F40374347600E79F643B6070ED0C66883
:1004F0002746B4465E00B646B7406646BE43B4469D
:100500008F687646B74066463743C7600E79B607B0
:10051000B60F022E14D1DE08B60036180096366AE1
:100520005F07B446FE0E0F27B646B7406646BE4389
:10053000B4460F697646B74066463743009E376239
:1005400006682746B4465E00B646B7406646BE43D8
:100550000F79B446BF07BF0F7646B74066463743AC
:1005600007604E68B603B60F53D02D4FBE692E43B9
:10057000BE61BE699F08F607F60F2A4EBF00BE197E
:100580000096B6680F27B4469E07360FB646B740AA
:100590006646BE430927FF06B446B84202D100278B
:1005A00010E036E0204FB84201D101270AE01F4F8A
:1005B000B84201D1022705E01D4FB84201D10327FF
:1005C00000E005277646B74066463743009EB76091
:1005D000184EB6684F689643FF0200D51643154F74
:1005E000BE60FE684F689643BF0200D51643114FA8
:1005F000FE607E684F689643BF0300D516430D4FDB
:100600007E603E684F689643FF0300D51643094A53
:1006100016605B1C0A681646DE4000D03FE7F8BD56
:10062000001002400000014000040048000800489B
:10063000000C004800040140014880687047000039
:100640000000002070B5024640325378202B1CD1A8
:100650001378012B19D001231370242454700468DB
:1006600025689D432560046825681E03B543256001
:10067000046825680D43256000680168194301601E
:10068000202050700020107070BD022070BD70B529
:10069000024640325378202B1BD11378012B18D0FF
:1006A000012414702423537003681D68A5431D6042
:1006B00005682B680F263602B343090219432960E7
:1006C00000680168214301602020507000201070F4
:1006D00070BD022070BD000070B5040006D0254634
:1006E000403568780026002802D005E0012070BD62
:1006F0002E70204600F04AF82420687020680168B7
:100700004908490001600F21606809068843216893
:10071000086121688A680120C00382438A60E16819
:100720000129A16808D02122920211432268916018
:10073000E168022902D005E00143F7E701212268C0
:10074000C902516021684A680F4B1A434A60216808
:10075000CA688243CA60616920690843A1690902C5
:1007600008432168C860216AE0690843216808607D
:1007700020680168012211430160666420206870CE
:100780002663AE70002070BD0080000210B586B0F8
:10079000044614216846FFF798FD124920688842F4
:1007A0001ED1114C616901208004014361616169BE
:1007B00001400591C020009012200190002002907D
:1007C000032003900120049069460848FFF762FE69
:1007D000E169012040050143E161E16901400591C2
:1007E00006B010BD00540040001002400004004854
:1007F00002488168027889188160704700000020F3
:1008000010B506480168102211430160032000F072
:1008100007F800F027F8002010BD0000002002407B
:1008200070B504460D4D7D202978C000FFF74FFDBF
:1008300001460B480068FFF74AFD00F021FB002845
:1008400009D1042C07D200222146401E00F01EF8D8
:1008500000206C6070BD012070BD00000000002011
:100860000C00002008B5084881690122114381610C
:10087000816911400091C26901040A43C261C069E3
:100880000840009008BD00000010024010B500F0C4
:10089000E7FD10BDF8B505460068354CC00352D5DC
:1008A000E0690026C00007D4E16920040143E1614A
:1008B000E1690140012600912E480168C90510D464
:1008C0000168821511430160FFF7B6FE074604E098
:1008D000FFF7B2FEC01B642824D826480068C00574
:1008E000F6D5206A03273F02384020D06968394096
:1008F00081421CD0206A226AB843012109040A43BC
:100900002262226A8A4322622062C0070FD0FFF768
:1009100093FE009008E0FFF78FFE0099411A1648F9
:10092000814201D90320F8BD206A8007F3D5206AEF
:100930006968B84308432062002E04D0E1690120B1
:1009400000078143E1612878C00705D0206BA968C2
:1009500080088000084320632878800605D5206B36
:1009600010218843E968084320630020F8BD000097
:10097000001002400070004088130000F8B50F46D8
:10098000060059D03A4D2868C007C00FB84209D2B6
:10099000286840084000384328602868C007C00F16
:1009A000B84249D13068334C81070CD5400704D593
:1009B000606807210902084360606068F02188438D
:1009C000B168084360603078C00726D0706801289D
:1009D0000ED0216802280ED0890700292CDA616820
:1009E0008908890001436160FFF726FE00900DE051
:1009F00021688903F1E78901EFE7FFF71DFE009900
:100A0000411A1D48814201D90320F8BD60680C21BC
:100A10000840716889008842EFD12868C007C00F7C
:100A2000B8420BD92868400840003843286028683D
:100A3000C007C00FB84201D00120F8BD3078400790
:100A400006D56068072109028843F16808436060A1
:100A500000F028F86168094A0906090F515CC8408E
:100A6000074908600320FFF7DBFE0020F8BD000007
:100A7000002002400010024088130000FC1400080F
:100A80000C0000200448054900684968044A4905EB
:100A9000490F515CC84070470C0000200010024014
:100AA0000C15000810B5104A51680C200B46034085
:100AB0000E48042B17D0082B15D18B020C4C1B0FA2
:100AC000E45CD26A0A4B1207120F10339A5CC90316
:100AD00005D500231946FFF759FB214601E02046C2
:100AE000044900F0A4FC10BD0010024000127A007E
:100AF000DC14000800093D00FEB5040070D0207829
:100B0000DC4DC0074AD068680007800F012807D075
:100B100068680007800F022809D16868C00306D5FD
:100B2000286880033AD560680028E7D036E061681D
:100B3000012914D001208004002901D0052914D0F6
:100B40002A68012109048A432A60296881432960AF
:100B50006068002816D0FFF76FFD06460EE0286893
:100B60000121090408432860F2E72968014329604C
:100B7000F5E7FFF761FD801B64286ED828688003C5
:100B8000F7D50BE0FFF758FD064604E0FFF754FDEC
:100B9000801B6428F1D828688003F7D420780126C8
:100BA000800700283CDA68680007800F07D0686873
:100BB0000007800F022809D16868C00306D428689E
:100BC000800716D5E06801280AD112E0E068002805
:100BD000286816D030432860FFF72EFD074605E051
:100BE00043E1FFF729FDC01B0228C6D8286880070B
:100BF000F7D52868F82188432169C900084328608F
:100C00000EE0400840002860FFF716FD074604E0AC
:100C1000FFF712FDC01B0228AFD828688007F7D461
:100C20002078000722D5E0690028686A0ED030439A
:100C30006862FFF701FD074604E0FFF7FDFCC01BFB
:100C400002289AD8686A8007F7D50FE0400840006C
:100C50006862FFF7F1FC074605E09DE0FFF7ECFC5A
:100C6000C01B022889D8686A8007F7D42078042737
:100C70004007002860DA00200190E869C00008D42D
:100C8000E969B8060143E961E96901400120009181
:100C9000019079480168C90511D401688215114392
:100CA0000160FFF7C9FC009005E0FFF7C5FC009963
:100CB000401A642870D870480068C005F5D5A0684F
:100CC00001280AD0002801D0052810D0286A400841
:100CD00040002862286AB84301E0286A304328624D
:100CE000A068002812D0FFF7A7FC00900AE0286A4D
:100CF00038432862F1E7FFF79FFC0099411A5F48EB
:100D0000814249D8286A8007F5D50DE0FFF794FCA9
:100D1000009006E0FFF790FC0099411A5748814285
:100D20003AD8286A8007F5D40198002804D0E969E8
:100D3000012000078143E9612078C00635D560694C
:100D400001280CD0401D686B23D038436863686B62
:100D5000400840006863FFF76FFC064622E0686BBE
:100D600038436863686B30436863FFF765FC064689
:100D700004E0FFF761FC801B02285BD8686B8007EA
:100D8000F7D5686BF8218843A169C90008436863F7
:100D90000BE0B8436863F4E74CE0FFF74DFC801BC1
:100DA000022847D8686B8007F7D4206A00285ED0F5
:100DB00069680907890F022942D0012636060228F0
:100DC000286805D0B0432860FFF736FC044633E0BE
:100DD000B0432860FFF730FC074604E0FFF72CFC27
:100DE000C01B022826D828688001F7D4E86AE16A87
:100DF000000900010843E862616AA06A0843696863
:100E00003D221204914308436860286830432860FB
:100E1000FFF712FC044604E0FFF70EFC001B02285B
:100E200008D828688001F7D521E0FFF705FC001BF2
:100E3000022801D90320FEBD28688001F5D416E000
:100E40000128F8D06868E96A01221204636A024046
:100E50009A420AD10907E26A090F914205D10F218E
:100E600089040840A16A884201D00120FEBD00200B
:100E7000FEBD00000010024000700040881300001A
:100E8000094910B5401E884201D9012010BD074C08
:100E900060610321081F00F0E3FA0020A061072031
:100EA0002061002010BD0000FFFFFF0000E000E017
:100EB00010B5040003D0E06F002802D007E0012045
:100EC00010BD002178200155204600F027F824208D
:100ED000E06720680168490849000160204600F089
:100EE000D3F90128ECD0606A002802D0204600F037
:100EF000D3F8206841680122D20291434160206802
:100F000081680822914381602068016801221143B1
:100F10000160204600F026F910BD000010B586B033
:100F2000044614216846FFF7D0F912492068884228
:100F30001ED111488269012189030A4382618269B5
:100F40000A4005924269C9000A434261406908406B
:100F500005900C20009002200190002002900320B8
:100F600003900120049009206946C006FFF792FA19
:100F700006B010BD0038014000100240FEE700003E
:100F800010B5134811490160124941600021816088
:100F90000161416181610122C161C2600162FFF7AB
:100FA0009BFB002801D072B6FEE700210848FFF73E
:100FB00049FB002801D072B6FEE700210448FFF784
:100FC00066FB002801D072B6FEE710BD0054004059
:100FD000100000200E09002010B50C480A490160DD
:100FE000E1214902416000218160C16001618161AC
:100FF000C1610422016242614162FFF759FF00288A
:1010000001D072B6FEE710BD003801406400002038
:10101000FEE77047704710B5FFF7EAFB10BD30B52B
:1010200095B030216846FFF750F900240D941294D2
:1010300001200E940390139410200994022504902B
:101040000F9405200095C0040C9410940A901194FC
:1010500008950B946846FFF74FFD002801D072B643
:10106000FEE707200C900E9401210D950F940CA81B
:10107000FFF784FC002801D072B6FEE72120109013
:101080001294139410A8FFF705FC002801D072B643
:10109000FEE715B030BD704710B5818CC90707D089
:1010A00001684A6801235B049A43836A1A434A60D1
:1010B000818C890707D501684A6801231B049A437C
:1010C000C36A1A434A60818C490707D501684A6898
:1010D00001239B049A43036B1A434A60818C0907DE
:1010E00007D501684A680123DB039A43436B1A431F
:1010F0004A60818CC90607D50268916801231B03E9
:101100009943836B19439160818C890607D50168E7
:101110008A6801235B039A43C36B1A438A60818CFC
:10112000490612D503685A6801210905046C8A43EF
:1011300022435A60026C8A4207D102685168032335
:101140005B059943436C19435160818C090607D5AF
:1011500001684A680123DB04806C9A4302434A60B9
:1011600010BD0000FEB507460025803704467D60AF
:10117000FFF762FA01902068006826460007603693
:10118000002819DA2748009001210022490520464D
:10119000019B00F007F900280ED0EFF31080012129
:1011A00081F3108821680A6880239A430A6080F3DB
:1011B00010882020E06729E020680068400728D5D3
:1011C000184800900121002289052046019B00F06B
:1011D000E9F800281DD0EFF31080012181F3108879
:1011E00021680A68FF2321339A430A6080F310883C
:1011F000EFF31080012181F3108821688A6852087A
:1012000052008A6080F310882020386035760320F1
:10121000FEBD2020E06738602566656635760020D3
:10122000FEBD0000FFFFFF0110B5EFF310810122AA
:1012300082F3108802681368FF242134A3431360EB
:1012400081F31088EFF31081012282F31088026885
:1012500093685B085B00936081F31088016E01293D
:101260000BD1EFF31081012282F31088026813681A
:101270001024A343136081F31088202280210A5098
:1012800000210166816610BD70B504468068216941
:10129000E2690843616900251143084321680A682F
:1012A0003C4B1A4002430A6021684868032212033B
:1012B0009043E26810434860A169206A08432168AE
:1012C0008A680B231B029A4302438A603248006BF0
:1012D0008007800F16D0012818D0022818D00328C4
:1012E00012D010210122E369D2032C482C4E9342E4
:1012F0002AD100290ED0022913D004290DD00829A3
:101300003BD11FE00021EDE70221EBE70421E9E7F3
:101310000821E7E7FFF7B6FB01E0FFF7C3FB002872
:1013200032D0616840004A088018FEF7D0FF0146BD
:101330001039B14221D81A49491C01400007400F19
:1013400008431FE01046ECE7002906D002290BD025
:10135000042905D0082910D111E0FFF793FB01E023
:10136000FFF7A0FB00280FD061684A081018FEF7AD
:10137000AEFF01461039B14203D9012504E0104601
:10138000F2E780B22168C8600020A066E0662846C7
:1013900070BD0000F369FFFF0010024000127A00E8
:1013A000EFFF0000FFB5064681B0803605460446D3
:1013B00060350A9F2EE0781C2CD0FFF73DF9049988
:1013C000401AB84214D8002F12D02068016849078B
:1013D00020D5C169C94309070CD4082707622046F4
:1013E000FFF722FF776000202876012005B0F0BDCE
:1013F0000320FBE7C069C04300050BD4012021682E
:10140000C00208622046FFF70FFF20207060002016
:101410002876EDE72068C1690298884305D000214D
:1014200003988142C7D00020E0E70121F8E7F8B532
:10143000040C8BB2264682B25E430D0C1046370C6C
:101440005843360480190021794116466E43370C03
:1014500036048019794126466E438919F8BD00008B
:101460008307FF22DB0E9A408907090E9940002866
:1014700008DB830809489B001B1818689043084341
:10148000186070470007000F0838830804489B0065
:101490001B18D86990430843D861704700E400E006
:1014A00000ED00E008B5FFF7ABF9FFF7B8FD0A481B
:1014B0004269012149040A43426142690A4000929B
:1014C000426949000A434261406908400090FFF7C1
:1014D00083FDFFF755FDFEE70010024002030405FF
:1014E000060708090A0B0C0D0E0F10100102030469
:1014F00005060708090A0B0C0D0E0F10000000006E
:1015000000000000010203040607080900000000B3
:101510000102030434150008000000201000000040
:10152000F4000008441500081000002040070000E7
:10153000100100080100000004000000000000008D
:0415400000127A001B
:04000005080000B13E
:00000001FF
