:020000040800F2
:100000002808002055010008BD1A00082516000820
:1000100000000000000000000000000000000000E0
:10002000000000000000000000000000F71A0008B7
:100030000000000000000000F51A0008F91A00088E
:100040006701000800000000670100086701000860
:1000500067010008670100086701000867010008E0
:100060000000000067010008670100086701000840
:100070006701000867010008670100080000000030
:100080006701000800000000000000006701000890
:100090000000000067010008670100086701000810
:1000A0000000000067010008000000006701000870
:1000B00000F002F800F03EF80CA030C80838241810
:1000C0002D18A246671EAB4654465D46AC4201D190
:1000D00000F030F87E460F3E0FCCB6460126334284
:1000E00000D0FB1AA246AB4633431847F41F00006A
:1000F00014200000103A02D378C878C1FAD8520709
:1001000001D330C830C101D504680C6070470000CD
:100110000023002400250026103A01D378C1FBD823
:10012000520700D330C100D50B6070471FB51FBD0B
:1001300010B510BD00F07BF91146FFF7F7FF01F095
:1001400095FF00F093F903B4FFF7F2FF03BC00F052
:1001500099F900000748804707480047FEE7FEE797
:10016000FEE7FEE7FEE7FEE704480549054A064BC1
:1001700070470000791B0008B10000082802002029
:10018000280800202804002028040020FEB5054689
:1001900010460C46184373D0AE468C460020AD1A6C
:1001A00001469C4167D36646002701243D46B61AA6
:1001B0009D4102D313463A462124654676462F04D4
:1001C000360C3E432D0CB61A9D4104D3150C1B046E
:1001D0002B4312041034654676462F06360A3E43FA
:1001E0002D0AB61A9D4104D3150E1B022B43120291
:1001F0000834654676462F0736093E432D09B61A60
:100200009D4104D3150F1B012B431201241D65468C
:100210007646AF07B6083E43AD08B61A9D4104D3F3
:10022000950F9B002B439200A41C65467646EF0772
:1002300076083E436D08B61A9D411AD392185B4169
:10024000641C16E00018764665464941B71A9D4180
:100250000191009009D36046B11A98418E468446B8
:10026000009801990025401C6941DD0752082A4386
:100270005B08641EE6D57246634603B0F0BDFFE737
:1002800000200146C046C0462A462346F5E701E065
:1002900004C0091F0429FBD28B0701D50280801CF2
:1002A000C90700D00270704700290BD0C30702D0E5
:1002B0000270401C491E022904D3830702D5028024
:1002C000801C891EE3E70022EEE70022DFE7002220
:1002D00003098B422CD3030A8B4211D300239C4683
:1002E0004EE003460B433CD4002243088B4231D3FB
:1002F00003098B421CD3030A8B4201D394463FE08F
:10030000C3098B4201D3CB01C01A524183098B42EE
:1003100001D38B01C01A524143098B4201D34B01D7
:10032000C01A524103098B4201D30B01C01A52413A
:10033000C3088B4201D3CB00C01A524183088B42C1
:1003400001D38B00C01A524143088B4201D34B00AA
:10035000C01A5241411A00D201465241104670471C
:100360005DE0CA0F00D04942031000D34042534021
:1003700000229C4603098B422DD3030A8B4212D3E1
:10038000FC22890112BA030A8B420CD38901921113
:100390008B4208D3890192118B4204D389013AD050
:1003A000921100E08909C3098B4201D3CB01C01A25
:1003B000524183098B4201D38B01C01A5241430938
:1003C0008B4201D34B01C01A524103098B4201D326
:1003D0000B01C01A5241C3088B4201D3CB00C01A93
:1003E000524183088B4201D38B00C01A5241D9D2AB
:1003F00043088B4201D34B00C01A5241411A00D22C
:100400000146634652415B10104601D34042002B27
:1004100000D54942704763465B1000D3404201B5A6
:100420000020C046C04602BD704770477047754601
:1004300000F024F8AE46050069465346C008C000E7
:10044000854618B020B5FFF78FFE60BC002749082D
:10045000B6460026C0C5C0C5C0C5C0C5C0C5C0C55C
:10046000C0C5C0C5403D49008D46704710B5044623
:10047000C046C0462046FFF766FE10BD00487047E4
:10048000C401002001491820ABBEFEE7260002008F
:10049000704772B6FEE7000038B50446B0218030E0
:1004A000C1726425224601238B32982105480095AC
:1004B00000F0C2FA0823621C98210248009500F05F
:1004C00033FA38BDA0000020F8B5002506462846BE
:1004D0002F463118401CC0B24F728028F9D3012436
:1004E000610064230222094800F08EF93070002870
:1004F00002D03019477203E070196D1C4472EDB2DE
:10050000641CE4B2802CEBD32846F8BDA000002088
:10051000F8B5002303240125BAE02E469E40B446D8
:1005200032407CD00E79B607B60F012E01D0022ED4
:1005300017D186682746B6465E00B74000967646D5
:10054000BE43B646CF68009EB740764637438760C5
:1005500046686746BE430F79FF06FF0F9F4037434B
:1005600047600E79F643B6070ED0C6682746B446F4
:100570005E00B646B7406646BE43B4468F687646D0
:10058000B74066463743C7600E79B607B60F022EEE
:1005900014D1DE08B60036180096366A5F07B446F6
:1005A000FE0E0F27B646B7406646BE43B4460F69F7
:1005B0007646B74066463743009E37620668274650
:1005C000B4465E00B646B7406646BE430F79B446B1
:1005D000BF07BF0F7646B7406646374307604E6891
:1005E000B603B60F53D02D4FBE692E43BE61BE6910
:1005F0009F08F607F60F2A4EBF00BE190096B66890
:100600000F27B4469E07360FB646B7406646BE4330
:100610000927FF06B446B84202D1002710E036E0B1
:10062000204FB84201D101270AE01F4FB84201D143
:10063000022705E01D4FB84201D1032700E005273E
:100640007646B74066463743009EB760184EB66898
:100650004F689643FF0200D51643154FBE60FE68F3
:100660004F689643BF0200D51643114FFE607E6867
:100670004F689643BF0300D516430D4F7E603E681A
:100680004F689643FF0300D51643094A16605B1C6A
:100690000A681646DE4000D03FE7F8BD0010024071
:1006A000000001400004004800080048000C004819
:1006B00000040140014880687047000008000020E5
:1006C00070B5024640325378202B1CD11378012B91
:1006D00019D00123137024245470046825689D43A5
:1006E0002560046825681E03B543256004682568F5
:1006F0000D43256000680168194301602020507097
:100700000020107070BD022070BD70B502464032EE
:100710005378202B1BD11378012B18D0012414708F
:100720002423537003681D68A5431D6005682B686A
:100730000F263602B3430902194329600068016895
:1007400021430160202050700020107070BD0220F5
:1007500070BD000070B5040006D0254640356878AD
:100760000026002802D005E0012070BD2E70204632
:1007700000F094FA24206870206801684908490054
:1007800001600F21606809068843216808612168BB
:100790008A680120C00382438A60E1680129A16858
:1007A00008D021229202114322689160E168022957
:1007B00002D005E00143F7E701212268C902516038
:1007C00021684A680F4B1A434A602168CA6882430D
:1007D000CA60616920690843A16909020843216868
:1007E000C860216AE06908432168086020680168E0
:1007F0000122114301606664202068702663AE7098
:10080000002070BD00800002FFB50446002083B0C8
:100810002546403501906A78202A7FD12268926966
:10082000D24312047AD52A78012A77D001222A707D
:1008300024226A7060648F05BF0DE06801280AD029
:100840003748012138188902884321684860FFF73A
:1008500031FF06460CE03348F3E70698401C07D00A
:10086000FFF728FF811B0698814219D8002817D06E
:100870002168886989698006C00FC906C90F0843C5
:10088000EBD020688069069BC043C006009617D550
:1008900000222021204600F0A5FF002830D107E0EB
:1008A00020206870616C014361640020287027E09B
:1008B00021682020C86168700020287007B0F0BD52
:1008C00000222021204600F08DFF002818D1216849
:1008D0001020C86121682020C861019905988142D3
:1008E00014D12068416801229203114341600096AF
:1008F000002220212046069B00F074FF002802D031
:100900000120DBE70AE021682020C8610198401C33
:1009100001460190059881428FD3C1E70220CDE7BF
:100920000028000200200002FFB5054604464035BD
:10093000687881B0202878D12878012875D00120E6
:100940002870FFF7B7FE0746012200901923D10354
:10095000204600F047FF00283CD12220687010207C
:10096000A8700026666403986062049860856663D8
:10097000618D2F48FF2903D9FF22228500903BE09B
:10098000618D218500903DE02046029900F014FF22
:1009900016E000F059FF00281CD12068406A616A07
:1009A0000870606A401C6062208D401E81B2218503
:1009B000608D401E6085608D002801D000290CD01C
:1009C000608D0A9900283A462046E2D100F08AFF5D
:1009D00000281CD0012005B0F0BD00970022802126
:1009E00020460A9B00F0FEFE0028F3D1608DFF2810
:1009F00005D9FF222285009601231B06C4E7608DDE
:100A000020850096208D0123C2B25B06BCE72168D9
:100A10002020C86121684A68064B1A404A60687005
:100A2000AE702E700020D6E7FFE70220D3E700006B
:100A30000024008000E800FEFFB50546044640356E
:100A4000687881B0202878D12878012875D00120D5
:100A50002870FFF72FFE0746012200901923D103CB
:100A6000204600F0BFFE00283CD1212068701020F5
:100A7000A8700026666403986062049860856663C7
:100A8000618D2F48FF2903D9FF22228500903BE08A
:100A9000618D218500903DE02046029900F08CFE9A
:100AA00016E000F04AFF00281CD1606A2168007837
:100AB0008862606A401C6062608D401E6085208D87
:100AC000401E80B22085618D002901D000280CD005
:100AD000608D0A9900283A462046E2D100F002FFD4
:100AE00000281CD0012005B0F0BD00970022802115
:100AF00020460A9B00F076FE0028F3D1608DFF2887
:100B000005D9FF222285009601231B06C4E7608DCC
:100B100020850096208D0123C2B25B06BCE72168C8
:100B20002020C86121684A68064B1A404A606870F4
:100B3000AE702E700020D6E7FFE70220D3E700005A
:100B40000020008000E800FEFFB505460446403561
:100B5000687883B0202875D10C98002814D00D989F
:100B6000002811D0287801286CD001202870FFF7C8
:100B7000A1FD0746012200901923D103204600F071
:100B800031FE002874D103E00120400260646FE070
:100B9000222068704020A870002666640C9860626D
:100BA0000D98608566630E980090019704A90EC9A0
:100BB000204600F0D1FD002801D02E7058E0618D54
:100BC0003448FF2905D9FF22228501231B06009006
:100BD00006E0618D21850090208D0123C2B25B0665
:100BE0002046049900F0E8FD0097002204212046E9
:100BF0000E9B00F0F7FD00283AD12068406A616A38
:100C00000870606A401C6062208D401E81B22185A0
:100C1000608D401E6085608D00281FD000291DD189
:100C200000970022802120460E9B00F0DBFD00286B
:100C30001ED1608DFF2806D9FF22228501231B06C5
:100C4000009607E024E0608D20850096208D01232A
:100C5000C2B25B062046049900F0AEFD608D00280C
:100C6000C2D13A4620460E9900F03CFE002802D040
:100C7000012007B0F0BD20682021C16120684268D2
:100C8000054B1A4042606970AE702E700020F0E78C
:100C90000220EEE70024008000E800FE10B586B0D8
:100CA000044614216846FFF710FB12492068884269
:100CB0001ED1114C616901208004014361616169A9
:100CC00001400591C0200090122001900020029068
:100CD000032003900120049069460848FFF718FCA0
:100CE000E169012040050143E161E16901400591AD
:100CF00006B010BD0054004000100240000400483F
:100D000002488168027889188160704708000020D5
:100D100010B506480168102211430160032000F05D
:100D200007F800F027F8002010BD00000020024066
:100D300070B504460D4D7D202978C000FFF7C7FA35
:100D400001460B480068FFF7C2FA00F021FB0028BB
:100D500009D1042C07D200222146401E00F01EF8C3
:100D600000206C6070BD012070BD000008000020F4
:100D70000400002008B508488169012211438161FF
:100D8000816911400091C26901040A43C261C069CE
:100D90000840009008BD00000010024010B501F0AE
:100DA00043F910BDF8B505460068354CC00352D56F
:100DB000E0690026C00007D4E16920040143E16135
:100DC000E1690140012600912E480168C90510D44F
:100DD0000168821511430160FFF76CFC074604E0CF
:100DE000FFF768FCC01B642824D826480068C005AB
:100DF000F6D5206A03273F02384020D06968394081
:100E000081421CD0206A226AB843012109040A43A6
:100E10002262226A8A4322622062C0070FD0FFF753
:100E200049FC009008E0FFF745FC0099411A16487C
:100E3000814201D90320F8BD206A8007F3D5206ADA
:100E40006968B84308432062002E04D0E16901209C
:100E500000078143E1612878C00705D0206BA968AD
:100E600080088000084320632878800605D5206B21
:100E700010218843E968084320630020F8BD000082
:100E8000001002400070004088130000F8B50F46C3
:100E9000060059D03A4D2868C007C00FB84209D2A1
:100EA000286840084000384328602868C007C00F01
:100EB000B84249D13068334C81070CD5400704D57E
:100EC000606807210902084360606068F021884378
:100ED000B168084360603078C00726D07068012888
:100EE0000ED0216802280ED0890700292CDA61680B
:100EF0008908890001436160FFF7DCFB00900DE089
:100F000021688903F1E78901EFE7FFF7D3FB009937
:100F1000411A1D48814201D90320F8BD60680C21A7
:100F20000840716889008842EFD12868C007C00F67
:100F3000B8420BD928684008400038432860286828
:100F4000C007C00FB84201D00120F8BD307840077B
:100F500006D56068072109028843F168084360608C
:100F600000F028F86168094A0906090F515CC84079
:100F7000074908600320FFF7DBFE0020F8BD0000F2
:100F8000002002400010024088130000A820000842
:100F9000040000200448054900684968044A4905DE
:100FA000490F515CC8407047040000200010024007
:100FB000B820000810B5104A51680C200B460340B9
:100FC0000E48042B17D0082B15D18B020C4C1B0F8D
:100FD000E45CD26A0A4B1207120F10339A5CC90301
:100FE00005D500231946FFF7D1F8214601E0204638
:100FF000044901F000F810BD0010024000127A0010
:10100000C020000800093D00FEB5040070D0207823
:10101000DC4DC0074AD068680007800F012807D060
:1010200068680007800F022809D16868C00306D5E8
:10103000286880033AD560680028E7D036E0616808
:10104000012914D001208004002901D0052914D0E1
:101050002A68012109048A432A602968814329609A
:101060006068002816D0FFF725FB06460EE02868CA
:101070000121090408432860F2E729680143296037
:10108000F5E7FFF717FB801B64286ED828688003FC
:10109000F7D50BE0FFF70EFB064604E0FFF70AFB6F
:1010A000801B6428F1D828688003F7D420780126B3
:1010B000800700283CDA68680007800F07D068685E
:1010C0000007800F022809D16868C00306D4286889
:1010D000800716D5E06801280AD112E0E0680028F0
:1010E000286816D030432860FFF7E4FA074605E089
:1010F00043E1FFF7DFFAC01B0228C6D82868800743
:10110000F7D52868F82188432169C9000843286079
:101110000EE0400840002860FFF7CCFA074604E0E4
:10112000FFF7C8FAC01B0228AFD828688007F7D499
:101130002078000722D5E0690028686A0ED0304385
:101140006862FFF7B7FA074604E0FFF7B3FAC01B7F
:1011500002289AD8686A8007F7D50FE04008400057
:101160006862FFF7A7FA074605E09DE0FFF7A2FADD
:10117000C01B022889D8686A8007F7D42078042722
:101180004007002860DA00200190E869C00008D418
:10119000E969B8060143E961E9690140012000916C
:1011A000019079480168C90511D40168821511437D
:1011B0000160FFF77FFA009005E0FFF77BFA0099E6
:1011C000401A642870D870480068C005F5D5A0683A
:1011D00001280AD0002801D0052810D0286A40082C
:1011E00040002862286AB84301E0286A3043286238
:1011F000A068002812D0FFF75DFA00900AE0286A84
:1012000038432862F1E7FFF755FA0099411A5F4821
:10121000814249D8286A8007F5D50DE0FFF74AFAE0
:10122000009006E0FFF746FA0099411A57488142BC
:101230003AD8286A8007F5D40198002804D0E969D3
:10124000012000078143E9612078C00635D5606937
:1012500001280CD0401D686B23D038436863686B4D
:10126000400840006863FFF725FA064622E0686BF5
:1012700038436863686B30436863FFF71BFA0646C0
:1012800004E0FFF717FA801B02285BD8686B800721
:10129000F7D5686BF8218843A169C90008436863E2
:1012A0000BE0B8436863F4E74CE0FFF703FA801BF8
:1012B000022847D8686B8007F7D4206A00285ED0E0
:1012C00069680907890F022942D0012636060228DB
:1012D000286805D0B0432860FFF7ECF9044633E0F6
:1012E000B0432860FFF7E6F9074604E0FFF7E2F9AC
:1012F000C01B022826D828688001F7D4E86AE16A72
:10130000000900010843E862616AA06A084369684D
:101310003D221204914308436860286830432860E6
:10132000FFF7C8F9044604E0FFF7C4F9001B0228E0
:1013300008D828688001F7D521E0FFF7BBF9001B2A
:10134000022801D90320FEBD28688001F5D416E0EB
:101350000128F8D06868E96A01221204636A024031
:101360009A420AD10907E26A090F914205D10F2179
:1013700089040840A16A884201D00120FEBD0020F6
:10138000FEBD000000100240007000408813000005
:10139000094910B5401E884201D9012010BD074CF3
:1013A00060610321081F00F03FFE0020A0610720BC
:1013B0002061002010BD0000FFFFFF0000E000E002
:1013C000F0B502462032137F012B1BD00126167781
:1013D0000223537705686B68AC687027BB430F68BE
:1013E0001F436F600068084B984202D0074B984239
:1013F00004D1802349689C432143816056770020B3
:101400001077F0BD0220F0BD002C01400004004028
:1014100070B5040005D025462035687F002802D02D
:1014200006E0012070BD00202877204600F014F867
:1014300002206877211D206800F0A0FB01204034C5
:10144000A071A877E87720706070A070E0702071BC
:1014500060716877002070BD08B500680549884252
:1014600007D105488269C1140A4382618069084036
:10147000009008BD002C014000100240F8B5054660
:1014800004462035287F0026012817D00120287720
:1014900002206877226890687727FF23B8431B02F1
:1014A000984390600868502838D00EDC20284FD030
:1014B00006DC00284CD010281ED149E00220F8BDDF
:1014C000302845D0402817D13AE060282ED0702827
:1014D00019D001221203801A0FD090420CD1CB6890
:1014E0004A688968206800F085FB206881680122CD
:1014F00092031143816000E00126012068770020FB
:1015000028773046F8BDCB684A688968206800F0C3
:1015100071FB2168886838438860EEE7CA684968CB
:10152000206800F07AFB5021206806E0CA6849680C
:10153000206800F083FB6021206800F066FBDCE798
:10154000CA684968206800F068FB40212068F4E719
:10155000226801461046F0E710B5040003D0E06FA2
:10156000002802D007E0012010BD0021782001559D
:10157000204600F027F82420E06720680168490829
:1015800049000160204600F063FC0128ECD0606A4D
:10159000002802D0204600F064FB20684168012248
:1015A000D2029143416020688168082291438160A2
:1015B00020680168012211430160204600F0B6FB5B
:1015C00010BD000010B586B0044614216846FEF731
:1015D0007CFE1249206888421ED11148826901218F
:1015E00089030A43826182690A4005924269C900FF
:1015F0000A4342614069084005900C200090022097
:101600000190002002900320039001200490092003
:101610006946C006FEF77CFF06B010BD00380140E9
:1016200000100240FEE701688A69D243920701D4A4
:1016300000228A6200688169C943C90703D08169B1
:101640000122114381617047F7B50446006882B0FA
:10165000816900262746C906403735460092002991
:1016600045DA1021C16132E00398401C2FD0FFF70A
:1016700021F80099411A0398814201D8002826D107
:1016800020684168012292031140BA788369DB43E4
:101690001B0417D401239B03994213D0202A11D095
:1016A000416819434160FFF705F800900AE0FFF731
:1016B00001F801460098081A192803D9202005438B
:1016C000012604E020688069C0438006EFD42068CA
:1016D0008069C043800602D5002EC5D004E0002EEC
:1016E00002D121682020C861042005430126216819
:1016F0008869C20504D5012215431202CA61012678
:10170000410508D508210D43CA012168CA61012697
:10171000800502D40AE0800506D502200543216831
:101720000002C861012601E0002E0FD02046FFF71D
:101730007AFF20684168074A11404160606C284385
:101740006064202078700020B8703870304605B092
:10175000F0BD000000E800FEF8B504461646154846
:101760001D46DAB20090079F0023204600F024F8BF
:101770003A462046069900F0E0F8002818D128469D
:10178000F5B2012809D02168300A88623A4620461D
:10179000069900F0D2F800280AD1206885620097E7
:1017A000002240212046069B00F01CF8002800D0B3
:1017B0000120F8BD00200080890510B5890D1204B4
:1017C0001143029C194302682143490050684908AB
:1017D000630D034C234398430843506010BD000041
:1017E000FF63FF03F8B51E4617460D4604461EE08C
:1017F000701C1CD0FEF75EFF0699401AB04201D85B
:10180000002E14D120688169284688430DD000201D
:10181000B8420CD1616C2020014361644034607097
:101820000020A07020700120F8BD0120F0E72068A2
:1018300081692846884304D00020B842D8D00020CF
:10184000F8BD0120F9E70000F7B52026002705467E
:10185000044640353DE02046029A0199FFF7F4FE28
:10186000002801D00120FEBD20688069C0438006A9
:101870001BD420688169C943490702D4218D0029FE
:101880002CD18169C943C90604D41021C161042047
:10189000606400E067642068C66120684168104A9F
:1018A000114041606E70AF7011E0FEF703FF0299C6
:1018B000411A0198814201D800280AD12068806924
:1018C000C043400705D5606C304360646E702F7074
:1018D000C8E720688069C0434007BCD40020FEBD33
:1018E00000E800FE70B516460D4604461EE032467E
:1018F00029462046FFF7A8FE002801D0012070BD30
:10190000FEF7D8FE801BA84201D8002D0ED120681A
:101910008069C043800609D5616C20200143616461
:10192000403460700020A0702070E7E72068806974
:10193000C0438006DBD4002070BD70B516460D464E
:10194000044620E0324629462046FFF77DFE002867
:1019500001D0012070BD681C15D0FEF7ABFE801BC6
:10196000A84201D8002D0ED120688069C0438007AD
:1019700009D5616C2020014361644034607000200F
:10198000A0702070E5E720688069C0438007D9D443
:10199000002070BD08B508484269012149040A4386
:1019A000426142690A400092426949000A43426129
:1019B00040690840009008BD0010024010B513486F
:1019C000114901601249416000218160016141615A
:1019D00081610122C161C2600162FEF7BBFE002885
:1019E00001D0FEF756FD00210848FEF769FE0028E9
:1019F00001D0FEF74EFD00210448FEF786FE0028C8
:101A000001D0FEF746FD10BD00540040A0000020AC
:101A10000E09002010B586B00024009417480194E8
:101A20000294039404941449059401602F21846066
:101A300041600461446112498461C160FFF7E8FCC0
:101A4000002801D0FEF725FD012000030090694623
:101A50000A48FFF713FD002801D0FEF71AFD049491
:101A600004A906480594FFF7ABFC002801D0FEF757
:101A700010FD06B010BD0000002C0140F400002055
:101A8000FFFF000010B50C480A490160E12149023E
:101A9000416000218160C16001618161C1610422F6
:101AA000016242614162FFF757FD002801D0FEF755
:101AB000F0FC10BD003801403C010020FEE70000B2
:101AC0003EB501468031AA22CA720C4664218A3092
:101AD000012302910090019398210548FFF734F803
:101AE000A07A662801D001203EBD00203EBD000046
:101AF000A00000207047704710B5FFF701F910BD36
:101B000030B595B030216846FEF7DFFB00240D9418
:101B1000129401200E94039013941020099402252E
:101B200004900F9405200095C0040C9410940A9022
:101B3000119408950B946846FFF766FA002801D0C7
:101B400072B6FEE707200C900E9401210D950F94BC
:101B50000CA8FFF79BF9002801D072B6FEE7212000
:101B600010901294139410A8FFF71CF9002801D0CC
:101B700072B6FEE715B030BD7047000070B5026860
:101B8000174B184E984201D0B04203D17024A243A3
:101B90004C682243144C154D984208D0B04206D0F0
:101BA000134EB04203D0A04201D0A84204D1032674
:101BB0003602B243CE6832438026B2434E69324386
:101BC00002608A68C2620A688262984203D0A042B8
:101BD00001D0A84201D1096901630121416170BDB1
:101BE000002C014000040040004401400048014036
:101BF0000020004030B58468FF252D021B021343EE
:101C0000AC430B432343836030BD826870239A4307
:101C10000A4307210A438260704730B5036A046AA9
:101C20006408640004628469F025AC431201224315
:101C30000A24A3430B438261036230BD30B5036ABB
:101C40001024A34303628469036A0F252D03120342
:101C5000AC432243A024A3430901194382610162DA
:101C600030BD10B5818CC90707D001684A680123CF
:101C70005B049A43836A1A434A60818C890707D5BB
:101C800001684A6801231B049A43C36A1A434A60E5
:101C9000818C490707D501684A6801239B049A4350
:101CA000036B1A434A60818C090707D501684A68AB
:101CB0000123DB039A43436B1A434A60818CC906B4
:101CC00007D50268916801231B039943836B19436D
:101CD0009160818C890607D501688A6801235B03BE
:101CE0009A43C36B1A438A60818C490612D50368F4
:101CF0005A6801210905046C8A4322435A60026C28
:101D00008A4207D10268516803235B059943436CFB
:101D100019435160818C090607D501684A6801237F
:101D2000DB04806C9A4302434A6010BDFEB507464F
:101D30000025803704467D60FEF7BCFC01902068DA
:101D40000068264600076036002819DA2748009008
:101D50000121002249052046019B00F007F90028D7
:101D60000ED0EFF31080012181F3108821680A68FA
:101D700080239A430A6080F310882020E06729E0DE
:101D800020680068400728D51848009001210022EB
:101D900089052046019B00F0E9F800281DD0EFF3EB
:101DA0001080012181F3108821680A68FF23213304
:101DB0009A430A6080F31088EFF31080012181F3C9
:101DC000108821688A68520852008A6080F310885F
:101DD0002020386035760320FEBD2020E067386083
:101DE0002566656635760020FEBD0000FFFFFF0119
:101DF00010B5EFF31081012282F310880268136896
:101E0000FF242134A343136081F31088EFF3108182
:101E1000012282F31088026893685B085B0093607C
:101E200081F31088016E01290BD1EFF3108101229B
:101E300082F31088026813681024A343136081F3AF
:101E40001088202280210A5000210166816610BD81
:101E500070B5044680682169E2690843616900251C
:101E60001143084321680A683C4B1A4002430A6048
:101E700021684868032212039043E26810434860D7
:101E8000A169206A084321688A680B231B029A43D0
:101E900002438A603248006B8007800F16D0012809
:101EA00018D0022818D0032812D010210122E3698B
:101EB000D2032C482C4E93422AD100290ED002295D
:101EC00013D004290DD008293BD11FE00021EDE7F4
:101ED0000221EBE70421E9E70821E7E7FFF75AF8D9
:101EE00001E0FFF767F8002832D0616840004A0837
:101EF0008018FEF7ECF901461039B14221D81A4991
:101F0000491C01400007400F08431FE01046ECE762
:101F1000002906D002290BD0042905D0082910D1A8
:101F200011E0FFF737F801E0FFF744F800280FD081
:101F300061684A081018FEF7CAF901461039B14223
:101F400003D9012504E01046F2E780B22168C86099
:101F50000020A066E066284670BD0000F369FFFF20
:101F60000010024000127A00EFFF0000FFB50646A5
:101F700081B080360546044660350A9F2EE0781C05
:101F80002CD0FEF797FB0499401AB84214D8002FC2
:101F900012D020680168490720D5C169C9430907E3
:101FA0000CD4082707622046FFF722FF7760002045
:101FB0002876012005B0F0BD0320FBE7C069C043CF
:101FC00000050BD401202168C00208622046FFF7FB
:101FD0000FFF2020706000202876EDE72068C1699F
:101FE0000298884305D0002103988142C7D0002081
:101FF000E0E70121F8E7F8B5040C8BB2264682B27F
:102000005E430D0C1046370C5843360480190021EE
:10201000794116466E43370C3604801979412646BD
:102020006E438919F8BD00008307FF22DB0E9A403A
:102030008907090E9940002808DB830809489B009E
:102040001B18186890430843186070470007000F7A
:102050000838830804489B001B18D869904308433C
:10206000D861704700E400E000ED00E0FEF750FEAC
:10207000FFF746FDFFF78EFCFFF704FDFFF79EFC20
:10208000FFF7C8FC0648FEF71FFA064C207004480C
:10209000FFF716FD60700248FEF7FEF9FBE700004F
:1020A00014000020000000200000000000000000DC
:1020B00001020304060708090000000001020304EE
:1020C00002030405060708090A0B0C0D0E0F101079
:1020D0000102030405060708090A0B0C0D0E0F1078
:1020E000002100080000002014000000F400000897
:1020F000142100081400002014080000100100083A
:102100000000000000127A0001000000040000003E
:0421100000000000CB
:04000005080000B13E
:00000001FF
