:020000040800F2
:100000005820002065020008E93100089526000804
:10001000093100085B040008C73A0008000000002E
:10002000000000000000000000000000CD010008FA
:100030001B0500080000000011020008A933000899
:100040007F0200087F0200087F0200087F0200088C
:100050007F0200087F0200087F0200087F0200087C
:100060007F0200087F0200087F0200087F0200086C
:100070007F0200087F0200087F0200087F0200085C
:10008000D9040008E50400087F0200087F02000888
:10009000C53A00087F0200087F0200087F020008BE
:1000A0007F020008433400087F0200087F02000836
:1000B00045340008493400087F0200087F02000828
:1000C0007F0200087F0200087F0200087F0200080C
:1000D0007F0200088D3A0008913A00087F0200086C
:1000E0007F0200087F0200087F0200087F020008EC
:1000F0007F0200087F0200087F0200087F020008DC
:100100007F0200087F0200085D3400087F020008BB
:100110007F0200087F020008713400087F02000897
:100120007F0200087F0200087F0200087F020008AB
:1001300000F002F800F03AF80AA090E8000C8244BF
:100140008344AAF10107DA4501D100F02FF8AFF29C
:10015000090EBAE80F0013F0010F18BFFB1A43F0A5
:1001600001031847C0580000E0580000103A24BFAF
:1001700078C878C1FAD8520724BF30C830C144BF0C
:1001800004680C607047000000230024002500264E
:10019000103A28BF78C1FBD8520728BF30C148BFEA
:1001A0000B6070471FB51FBD10B510BD00F01BF9E7
:1001B0001146FFF7F7FF03F007FD00F039F903B42C
:1001C000FFF7F2FF03BC00F041F90000224B196871
:1001D0000868B0E8F00F80F30988BFF36F8F4FF025
:1001E000000080F311884EF00D0E704700000000F3
:1001F00006480068006880F3088862B661B6BFF3FD
:100200004F8FBFF36F8F00DF00BF00BF08ED00E02E
:10021000EFF30980BFF36F8F0F4B1A6820E9F00FDF
:10022000106008B54FF0500080F31188BFF34F8F76
:10023000BFF36F8F04F064FB4FF0000080F3118870
:10024000BDE8084019680868B0E8F00F80F3098835
:10025000BFF36F8F704700BF1C000020EFF30580D5
:10026000704700000948804709480047FEE7FEE75D
:10027000FEE7FEE7FEE7FEE7FEE7FEE7FEE7FEE756
:1002800004480549054A064B704700004134000800
:1002900031010008581A002058200020581C002066
:1002A000581C0020032A40F2308010F0030C00F0AC
:1002B000158011F8013BBCF1020F624498BF11F8A0
:1002C00001CB00F8013B38BF11F8013BA2F1040259
:1002D00098BF00F801CB38BF00F8013B11F00303D1
:1002E00000F02580083AC0F0088051F8043B083A35
:1002F00051F804CBA0E80810F5E7121D5CBF51F8D7
:10030000043B40F8043BAFF30080D20724BF11F850
:10031000013B11F801CB48BF11F8012B24BF00F8B5
:10032000013B00F801CB48BF00F8012B704710B526
:10033000203AC0F00B80B1E81850203AA0E81850DD
:10034000B1E81850A0E81850BFF4F5AF5FEA027C9E
:1003500024BFB1E81850A0E8185044BF18C918C00D
:10036000BDE810405FEA827C24BF51F8043B40F8AE
:10037000043B08BF7047D20728BF31F8023B48BF93
:1003800011F8012B28BF20F8023B48BF00F8012BD1
:1003900070474FF0000200B5134694469646203948
:1003A00022BFA0E80C50A0E80C50B1F12001BFF42E
:1003B000F7AF090728BFA0E80C5048BF0CC05DF894
:1003C00004EB890028BF40F8042B08BF704748BFE2
:1003D00020F8022B11F0804F18BF00F8012B704756
:1003E000704770477047754600F02CF8AE46050020
:1003F0006946534620F00700854618B020B5FFF740
:100400003FFFBDE820404FF000064FF000074FF0DF
:1004100000084FF0000B21F00701AC46ACE8C00922
:10042000ACE8C009ACE8C009ACE8C0098D4670472B
:1004300010B50446AFF300802046BDE81040FFF73A
:10044000BEBE000000487047F8190020014918207E
:10045000ABBEFEE7260002007047FEE71B4C1A4DBC
:1004600004F110070221184803F03EFB164803F080
:100470006DF91E211648226802F05CFF06462A79B3
:100480002221144802F022FB304405F0B1F820612B
:100490001E210F48626802F04DFF06466A791D2151
:1004A0000C4802F013FB304405F0A2F860613946B5
:1004B000012002F02BFE3946022002F027FE012027
:1004C00003F0F0FBCEE70000F40A0020800B0020D0
:1004D000A00B0020C00B0020014800F0E3B9000091
:1004E0006C0A0020014800F0DDB90000B00A0020CD
:1004F00030B590F840500124AC40C56B6C60046886
:1005000063604368102B036803D099600068C26081
:1005100030BD9A600068C16030BD704772B6FEE7BA
:1005200038B50446B02084F88B006425012304F11B
:100530008B0298210548009500F054FE0823621CA8
:1005400098210248009500F025FD38BD7007002075
:1005500010B502F0E4FE05F04BF8BDE8104001498B
:1005600004F048BF0000C344012003F09BFBFBE7FD
:1005700010B590F820300268012B07D0022B05D06F
:10058000416A41F480214162012010BDD2F800028D
:1005900040F00100C2F80002087D00F01F030120B6
:1005A0009840D2F81C328343C2F81C32CB69B3B9ED
:1005B000D2F80C328343C2F80C328C894B6864F356
:1005C0001F434C6902EBC404C4F840320C890B6829
:1005D00064F31F434C6902EBC404C4F84432CB6992
:1005E000012B16D1D2F80C320343C2F80C320C881E
:1005F0004B6864F31F434C6902EBC404C4F84032F7
:100600000C89CB6864F31F434C6902EBC404C4F843
:1006100044328B69002BD2F804320FD053EA000326
:10062000C2F804320B69002BD2F8143208D003430D
:10063000C2F81432096A012904D008E08343EFE7C5
:100640008343F5E7D2F81C120143C2F81C12D2F81A
:10065000000220F00100C2F80002002010BD70B5B9
:10066000040003D094F8200010B104E0012070BD14
:10067000204600F081F82068016841F00101016026
:1006800000F0BEFB0546052604E000F0B9FB401B68
:100690000A2811D820684068C007F6D02068016891
:1006A00021F00201016000F0ABFB05460BE000F019
:1006B000A7FB401B0A2806D9606A40F4003060623C
:1006C00084F82060D2E7206840688007EFD4207E5D
:1006D0000128206801683DD021F080010160607E22
:1006E00001282068016838D021F040010160A07E17
:1006F00001282068016833D021F020010160E07EEC
:100700000128206801682ED041F010010160207F8F
:1007100001282068016829D021F008010160607F6C
:1007200001282068016824D021F004010160D4E987
:1007300002010843D4E90412114308436168491EC9
:1007400008432168C86100206062012084F820000D
:10075000002070BD41F08001C0E741F04001C5E7D5
:1007600041F02001CAE721F01001CFE741F0080174
:10077000D4E741F00401D9E710B586B0002100911B
:1007800001910291039100681A49884230D11A48B8
:10079000C16941F00071C161C16901F0007104914A
:1007A000816941F0040181618069144C00F004000A
:1007B00004904FF4006000906946204600F01EFA55
:1007C000A014009002200190032003906946204667
:1007D00000F014FA00221146142000F059FE1420F3
:1007E00000F048FE06480068416941F0020141619D
:1007F00006B010BD00640040001002400008014037
:100800004807002070B5044690F82000012804D065
:10081000606A40F40020606218E0022084F8200042
:100820002068016821F00101016000F0E9FA054645
:100830000EE000BF00F0E4FA401B0A2808D9606A05
:1008400040F400306062052084F82000012070BD73
:1008500020684068C007EDD1606270BD10B590F8A7
:1008600021100022022905D00421816380F8202074
:10087000012010BD01680B6823F00E030B600168B6
:100880000B6823F001030B6090F84030C46B01212A
:1008900001FA03F3636080F8211080F820201046ED
:1008A00010BD00002DE9F05FC16B0A6801680B689C
:1008B000046C4FF0040808FA04F8844D844E854F08
:1008C000DFF814C2DFF81492DFF814A2DFF814B2D4
:1008D000DFF814E218EA020F65D05FEA437862D5C8
:1008E0000A68920603D40A6822F004020A60DFF85C
:1008F000F0814FF48062016808F1140813011402BA
:10090000414524D9A9420DD0B1420FD0B9421AD0E5
:10091000614515D0494515D0514501D1120312E06A
:10092000594501D104220EE0714501D140220AE06F
:100930006D4D1435A94206D06B4A2832914201D13F
:100940001A4600E022466749091F0A6029E0A942C9
:1009500013D0B14215D0B94220D061451BD04945D2
:100960001BD0514502D14FF4800217E0414502D11E
:100970004FF0806212E0594501D104220EE071452A
:1009800001D140220AE0584D1435A94206D0564AFA
:100990002832914201D11A4600E022464B490839DB
:1009A0004A60C16A71E04FF0020808FA04F818EAD8
:1009B000020F70D05FEA83786DD50A68920606D47C
:1009C0000A6822F00A020A60012180F82110DFF88B
:1009D00010814FF40072016808F114081301140229
:1009E000414524D9A9420DD0B1420FD0B9421AD005
:1009F000614515D0494515D0514501D1120312E08A
:100A0000594501D102220EE0714501D120220AE0B0
:100A1000354D1435A94206D0334A2832914201D1CE
:100A20001A4600E022462F49091F0A6029E0A94220
:100A300013D0B14215D0B94220D061451BD04945F1
:100A40001BD0514502D14FF4001217E0414502D1AD
:100A50004FF0007212E0594501D102220EE07145BB
:100A600001D120220AE0204D1435A94206D01E4AA9
:100A70002832914201D11A4600E022461349083932
:100A80004A60002180F82010816A00291CD0BDE84E
:100A9000F05F0847FFE70825A540154214D01A0764
:100AA00012D50A6822F00E020A6090F84020C36B4B
:100AB000012101FA02F25A60816380F821100021BD
:100AC00080F82010016BE0E7BDE8F09F08000240CD
:100AD0001C00024030000240440002405800024026
:100AE0006C000240080402401C04024030B560B1B2
:100AF0001A4B026814219A4209D2194B1344B3FBD2
:100B0000F1F18900016417490AE0012030BD134B5F
:100B10005B421344B3FBF1F1890001640F490839CA
:100B2000C163022180F82110136843F6F0718B43F2
:100B3000F0E901142143D0E902452C432143046923
:100B400021434469214384692143194311600021F1
:100B50004163012242770177084630BD0804024014
:100B6000F8FFFDBF0000024070B5044690F8200079
:100B7000002501280CD0012084F8200094F8216081
:100B80000020012E06D084F820000225284670BDE2
:100B9000022070BD022684F82160A06320680668E8
:100BA00026F0010606602046FFF7A2FCE06A002856
:100BB0002068016802D041F00E0106E021F0040136
:100BC00001602068016841F00A0101602068016845
:100BD00041F001010160D9E770B5044600F010F959
:100BE0000546601C02D004480078044400F008F96F
:100BF000401BA042FAD370BD0C0000202DE9F84F35
:100C0000DFF8C8910024A9F1040B23460F2709F14E
:100C1000040AABF1040ED1E00125A54006EA050265
:100C2000AA4276D1DFF8A8C14E68A6EB0C0866454B
:100C30002BD00DDC032E34D005DC36B3012E19D0B9
:100C4000022E2FD11BE0112E16D0122E2AD119E020
:100C5000B8F5881F19D006DCB8F5803F15D0B8F577
:100C6000801F1FD111E0B8F5001F0ED0B8F5041F8A
:100C700018D10AE0CB6815E0CB681B1D12E0CB68E9
:100C800008330FE0CB680C330CE08B682BB1012BE1
:100C90004FF0080303D0456104E0042302E005613E
:100CA00000E00023FF2A01D8064601E000F1040617
:100CB0004FEA840501D9A5F12005D6F8008007FA8E
:100CC00005FC28EA0C0803FA05F548EA0508C6F809
:100CD00000804D68ED0070D53E4DAE6946F00106CE
:100CE000AE61AD6924F0030605F0010500953A4DAB
:100CF00006EB050CDCF80850A607360F07FA06F8D5
:100D000025EA0805DFF8D480404503D14FF00008FC
:100D100025E052E0DFF8C880404502D14FF00108DD
:100D20001DE0DFF8C080404502D14FF0020816E018
:100D3000DFF8B480404502D14FF003080FE0DFF840
:100D4000AC80404502D14FF0040808E0DFF8A080F5
:100D5000404502D14FF0050801E04FF0060808FABF
:100D600006F848EA0508CCF808804D68D9F8006014
:100D7000ED024D4601D5164300E096432E604D68C6
:100D8000DAF80060AD02554601D5164300E09643FF
:100D90002E604D68DBF80060AD035D4601D516435B
:100DA00000E096432E604D68DEF80060ED03754666
:100DB00001D5164300E096432E60641C0A6816466F
:100DC000E2407FF429AFBDE8F88F0000080401403D
:100DD0000000111000100240000001400008014016
:100DE000000C0140001001400014014000180140B7
:100DF000001C01400AB1016170470904FBE70000D3
:100E000001488068704700000C00002070B50400A5
:100E100025D094F83D00002520B984F83C502046A8
:100E200000F076FA242084F83D002068016821F063
:100E3000010101602068016841F4004101602068FF
:100E4000016821F40041016000F0C2FC4D4A616874
:100E5000914201D84C4900E04C49884201D201201E
:100E600070BD4B492368B0FBF1F15E6826F03F0688
:100E70000E435E606368934206D94FF496735943FC
:100E80004FF47A73B1FBF3F12368491C1E6A26F014
:100E90003F06314319626168914210D84900401EF3
:100EA000B0FBF1F2521CC2F30B02042A01D204205F
:100EB00022E0B0FBF1F0401CC0F30B001CE0A26884
:100EC000F2B301EBC10303EB0116431EB3FBF6F3D0
:100ED0005B1C43F480431B0549D092B301EBC10274
:100EE00002EB0111401EB0FBF1F0401CC0F30B00FF
:100EF00040F4804040F400402168CA694CF6FF731A
:100F00009A431043C861D4E907100143206802687E
:100F100022F0C00211430160D4E9030101432068BB
:100F2000826848F2FF339A4311438160D4E9050196
:100F300008432168CA6822F0FF021043C86001E03C
:100F40000EE016E02068016841F0010101602564AF
:100F5000202084F83D00256384F83E50002070BDB9
:100F600001EB4106431EB3FBF6F35B1CB3E7012024
:100F7000C2E701EB4101401EB0FBF1F0401CC0F3A1
:100F80000B00B7E7A086010080841E0000093D0029
:100F900040420F002DE9F84F0025DDF828909846D3
:100FA00017468A4604460095FFF72AFF064694F83E
:100FB0003D0020287AD11923012286492046009637
:100FC00001F070FC0028F5D194F83C0001286DD0A8
:100FD000012084F83C0020680168C90703D101683A
:100FE00041F0010101602068016821F400610160A5
:100FF000222084F83D00102084F83E0025646762BA
:10100000A4F82A80608D20857348E06233464A4602
:101010005146204601F056FB00287CD1208DDFF898
:10102000BC81202768B1012814D0022820680168FB
:101030001ED041F4806101602068416980690090A0
:10104000BBE02068416981690091016841F4007149
:101050000160B2E02068016821F48061016072B62D
:101060002068416981690091016841F400710AE0DA
:1010700041F40061016072B62068416981690091A4
:10108000016821F48061016062B696E0032865D8AA
:1010900001280CD002284B464FF000024146204662
:1010A00000960BD001F0FEFBA8BB0CE090E03246AE
:1010B0004946204601F09CFC68BB71E001F0F2FB60
:1010C00048BB72B633E02068016821F4806101609A
:1010D00072B620680069616A0870606A401C6062CC
:1010E000208D401E2085608D401E60853C4846F264
:1010F000A8110068B0FBF1F0C0EBC00000EB80006D
:101100000090401E009007D020684069C04340070F
:101110000DD50098F5E727E044F8305F6773A573B5
:10112000206940F02000206162B625731CE0206831
:10113000016841F40071016020680069616A08700B
:10114000606A401C6062218D491E2185618D491EA7
:10115000618562B621680969017025E03246494619
:10116000204601F045FC10B10120BDE8F88F206851
:101170000069616A0870606A401C6062208D401ED0
:1011800081B22185608D401E608520684269D2430E
:10119000520712D4032903D1016821F48061016050
:1011A00020680069616A0870606A401C6062208D76
:1011B000401E2085608D401E6085208D00287FF4B4
:1011C00065AF84F83D7084F83E5084F83C50CCE71D
:1011D0000220CAE7020010000000FFFF0400010027
:1011E000180000202DE9F84F1F4690468A46044615
:1011F000DDF82890FFF704FE054694F83D0020280E
:101200007FD11923012240492046009501F04AFB75
:10121000002876D194F83C00012872D0012084F88F
:101220003C0020680168C90703D1016841F0010151
:1012300001602068016821F400610160212084F8C8
:101240003D00102084F83E0000262664C4F8248067
:101250006785608D20852D48E0622B464A465146C1
:10126000204601F0A5FA90B9206841698069009094
:1012700036E02A464946204601F0F2FB50B1206C88
:10128000042804D12068016841F400710160012044
:10129000BDE8F88F606A216800780861606A401CC8
:1012A0006062618D491E6185218D491E89B221854B
:1012B00022685369DB435B070BD451B1007810619E
:1012C000606A401C6062608D401E6085208D401EFB
:1012D00020852A464946204601F0B8FA0028CED19A
:1012E000208D0028C5D154F83D0B016841F40071F0
:1012F0000160202004F81E09E67766770020C7E722
:10130000FFE70220C4E70000020010000000FFFF1A
:1013100030B585B000210091019102910391214DDA
:101320000368214C122103222048AB421DD1A3693E
:1013300043F00803A361A369039203F00803049335
:101340001302CDE900316946FFF758FC184841689F
:1013500041F0E06141F002014160E06940F40010B9
:10136000E061E06900F4001019E0124DAB4217D1C2
:10137000A36943F00803A361A369039203F0080380
:1013800004934FF44063CDE900316946FFF736FC22
:10139000E06940F48000E061E06900F480000490BE
:1013A00005B030BD0054004000100240000C014068
:1013B0000000014000580040024881680278114452
:1013C000816070470C000020074810B5016841F0AB
:1013D00010010160032000F07BF80F2000F006F8F8
:1013E00000F024F8002010BD0020024070B50D4D23
:1013F00004464FF47A712878B1FBF0F00A49096885
:10140000B1FBF0F000F03BFC48B9102C07D20022F1
:101410002146501E00F03CF800206C6070BD012099
:1014200070BD00000C000020180000200F4808B517
:10143000816941F001018161816901F0010100913F
:10144000C16941F08051C161C069002200F0805043
:1014500000900F21901E00F01BF80548416821F014
:10146000E06141F00071416008BD000000100240E1
:1014700000000140002809DB00F01F02012191401B
:101480004009800000F1E020C0F800117047000022
:10149000F0B40E4B1B680C46C3F30223C3F10705DF
:1014A000042D00D90425191D072901D2002300E0CD
:1014B000DB1E012606FA05F1491E214099409E4097
:1014C000761E16403143F0BC02F0FEBA0CED00E08F
:1014D000064900F0070208684FF6FF03184040EA8B
:1014E0000220034A10430860704700000CED00E042
:1014F0000000FA05014901200862704700000E4211
:1015000010B501460020284C04292FD00BDC0129FE
:1015100030D0022929D100F06BF96168C1F3813123
:10152000491C49001FE0082920D010291DD16168FD
:101530002268D20119D51D48C1F38342C903805CDA
:101540000AD56168194AC1F34041921E515C184A9C
:10155000B2FBF1F1484301E0164948436168490292
:1015600003D440000321B0FBF1F010BDBDE81040F2
:1015700000F04EB9226AC2F30121012903D192077A
:1015800001D5C80310BD022905D1626A920702D5B0
:1015900049F6404010BD0329FCD121688903F9D5E3
:1015A0004FF2244010BD000000100240D85900083E
:1015B00000127A0000093D002DE9F8430546007845
:1015C000354CC00754D0E0690026C00008D4E0695B
:1015D00040F08050E061E069012600F0805000900A
:1015E0002E480168C90512D40168804641F4807113
:1015F0000160FFF705FC074605E000BFFFF700FCB0
:10160000C01B642823D8D8F80000C005F6D5206A8E
:1016100010F4407021D0A98801F4407181421CD09F
:10162000206A1F49012220F440700A6000220A60EB
:101630002062C00711D0FFF7E3FB074641F288386C
:1016400008E000BFFFF7DCFBC11B414502D90320C6
:10165000BDE8F883206A8007F4D5206A696820F421
:101660004070084320621EB1E06920F08050E061C4
:101670002878800705D56068A96820F440400843B1
:1016800060602878C00605D56068696920F480002C
:10169000084360600020DBE700100240007000405B
:1016A000400442422DE9F0470F46050061D0434E09
:1016B000306800F00700B84209D2306820F0070017
:1016C00038433060306800F00700B84251D12868D4
:1016D0003B4C810712D5400703D5606840F4E060B9
:1016E00060602878000703D5606840F4605060604F
:1016F0006068A96820F0F000084360602878C0079F
:1017000028D06868012810D02168022810D08907E5
:1017100000292EDA616821F0030101436160FFF7BF
:101720006FFB804641F288390DE021688903EFE7BD
:101730008901EDE7FFF764FBA0EB0801494502D9F9
:101740000320BDE8F0876068696800F00C00B0EB2A
:10175000810FEFD1306800F00700B8420BD9306834
:1017600020F0070038433060306800F00700B842CE
:1017700001D00120E5E72878400705D56068E968D1
:1017800020F4E060084360602878000706D56068B0
:10179000296920F4605040EAC100606000F038F828
:1017A0006168084AC1F30311515CC84006490860EA
:1017B00006480068FFF71AFE0020C2E7002002403A
:1017C00000100240E8590008180000201000002016
:1017D0000448054900684968044AC1F30221515C84
:1017E000C84070471800002000100240F859000857
:1017F0000448054900684968044AC1F3C221515CA4
:10180000C84070471800002000100240F859000836
:101810000E4A51680E4801F00C03042B11D0082B1E
:101820000FD10C48C1F38343C903C05C0AD551688A
:10183000084AC1F34041921E515C054A5043B0FB37
:10184000F1F070470449484370470000001002401F
:1018500000127A00C659000800093D002DE9F84F32
:10186000040070D02078C04DC00749D06868C0F32C
:101870008100012807D06868C0F38100022809D1DF
:101880006868C00306D52868800339D560680028D9
:10189000E7D035E06068B0F5803F0BD010B1B0F50F
:1018A000A02F11D0286820F480302860286820F408
:1018B000802002E0286840F480302860606890B1A1
:1018C000FFF79EFA06460AE0286840F48020286068
:1018D000F0E700BFFFF794FA801B642873D82868EC
:1018E0008003F7D50CE0FFF78BFA064605E000BF52
:1018F000FFF786FA801B6428F0D828688003F7D4A5
:1019000020789A4E80074FF001094FF0000839D532
:10191000686810F00C0F07D06868C0F381000228D7
:1019200009D16868C00306D42868800714D52069E7
:10193000012808D110E02069B0B1C6F80090FFF787
:101940005FFA074605E00AE1FFF75AFAC01B0228D2
:10195000C4D828688007F7D52868616920F0F800A6
:1019600040EAC10028600DE0C6F80080FFF748FAA1
:10197000074604E0FFF744FAC01B022823D8286872
:101980008007F7D4207800072CD57948A169D9B110
:10199000C0F80090FFF734FA074604E0FFF730FA8A
:1019A000C01B02280FD8686A8007F7D571484FF42A
:1019B000FA510068B0FBF1F0009000BF0098411EA2
:1019C0000091FAD20EE080E0C0F80080FFF718FA2C
:1019D000074604E0FFF714FAC01B022875D8686AAE
:1019E0008007F7D42078400760D5E8690027C00059
:1019F00008D4E86940F08050E861E869012700F008
:101A0000805000905C480168C90513D40168834682
:101A100041F480710160FFF7F3F9824606E000BFF0
:101A2000FFF7EEF9A0EB0A0064284ED8DBF80000BF
:101A3000C005F5D5E06801280AD008B1052813D003
:101A4000286A20F001002862286A20F0040002E0E1
:101A5000286A40F001002862E06841F2883B98B1B2
:101A6000FFF7CEF982460BE0286A40F004002862B6
:101A7000EEE700BFFFF7C4F9A0EB0A0159455AD8B9
:101A8000286A8007F6D50CE0FFF7BAF9824605E030
:101A9000FFF7B6F9A0EB0A0159454CD8286A800730
:101AA000F6D41FB1E86920F08050E861E06988B39E
:101AB0006968C1F38101022944D00228C6F8608018
:101AC00004D0FFF79DF9044638E034E0FFF798F9B9
:101AD000074604E0FFF794F9C01B02282BD82868BA
:101AE0008001F7D4206AB0F5803F05D16868A1680D
:101AF00020F4003008436860D4E9080108436968AD
:101B000021F4741108436860C6F86090FFF778F913
:101B1000044606E025E000BFFFF772F9001B02282B
:101B200009D828688001F7D51BE000BFFFF768F9E6
:101B3000001B022802D90320BDE8F88F2868800125
:101B4000F4D40EE00128F7D06868226A00F48031EE
:101B5000914204D1616A00F47010884201D00120E2
:101B6000EAE70020E8E700000010024000004242DF
:101B700080044242180000200070004070B504004C
:101B800003D0607C002610B105E0012070BD2674F2
:101B9000204600F03DF802206074204600F052F824
:101BA000042550BB204601F085FB30BB206841680E
:101BB00021F007014160A06820B11448016821F0BC
:101BC000010101601148001F0168A26821F46071E1
:101BD000114301606068411C04D10120FFF790FCB3
:101BE00058B1401E2268C0F303419160216880B261
:101BF000C860204601F078FB08B16574C5E7E6735C
:101C000001206073A0736074002070BD306C0040D0
:101C100008B50068084988420DD1FFF76BFC0748FA
:101C2000C16941F00061C161C069054900F000600F
:101C300000900120086008BD00280040001002400C
:101C40003C04424270B504000AD02068416821F08B
:101C500008014160FFF7D4F805464FF47A7608E0B2
:101C6000012070BDFFF7CCF8401BB04201D9032022
:101C700070BD206840680007F4D5002070BD10B525
:101C8000401EB0F1807F01D3012010BD4FF0E02451
:101C900060610F21601701F017FF0020A06107208D
:101CA0002061002010BD10B590F83C20012A22D000
:101CB000012280F83C20CA688C6822F440722243DA
:101CC0004C6822F4806222430C6822F400622243B2
:101CD0000C6922F4805222434C6922F400522243C0
:101CE000C969002322F480420A4301684A6480F8EB
:101CF0003C30002010BD022010BD000070B590F8EF
:101D00003C20012A2CD0012480F83C40022280F89B
:101D10003D2003685A689D6822F070060A683243C5
:101D20005A60104B02689A420ED00F4B9A420BD069
:101D3000B2F1804F08D00D4B9A4205D00C4B9A421D
:101D400002D00C4B9A4204D1496825F08003194314
:101D5000916080F83D40002180F83C10084670BD3D
:101D6000022070BD002C01400034014000040040FE
:101D700000080040000C004010B5040003D094F8A7
:101D80003D0010B107E0012010BD002084F83C00A8
:101D9000204600F01FF8022084F83D00211D206835
:101DA00001F088FB012084F8460084F83E0084F8A6
:101DB0003F0084F8400084F8410084F8420084F831
:101DC000430084F8440084F8450084F83D00002076
:101DD00010BD000008B5114A01681148914211D1A7
:101DE000C16941F01001C161C069002200F010001A
:101DF000009003213620FFF74BFBBDE8084036205A
:101E0000FFF738BB074A914207D1816941F400517D
:101E10008161806900F40050009008BD001000400E
:101E2000001002400034014090F83D10012901D01B
:101E300001207047022180F83D100168CA6842F015
:101E40000102CA6000680E4988420ED00D498842DE
:101E50000BD0B0F1804F08D00B49884205D00B4918
:101E6000884202D00A49884204D1816801F0070102
:101E7000062903D0016841F001010160002070478C
:101E8000002C0140003401400004004000080040E4
:101E9000000C004070B5044690F83C000025012875
:101EA00017D0012684F83C60022084F83D002068A9
:101EB000826822F0770222F47F428260086850280C
:101EC00038D00DDC20284FD005DC90B3102811D17C
:101ED0004AE0022070BD302846D040280AD13BE0BD
:101EE00060282FD070280DD0B0F5805F03D0B0F5FA
:101EF000005F12D0012584F83D60002084F83C008A
:101F0000284670BDCB68D1E90121206801F025FB8E
:101F10002068816841F0770109E0CB68D1E90121AF
:101F2000206801F01AFB2068816841F480418160DB
:101F3000E1E719E0CA684968206801F0E3FB502135
:101F4000206806E0CA684968206801F0ECFB60215F
:101F5000206801F00CFBCEE7CA684968206801F0F0
:101F6000D1FB40212068F4E7226801461046F0E7E3
:101F70002DE9F0410D46040003D094F83D0018B15E
:101F800008E00120BDE8F081002084F83C002046F4
:101F900000F040F8022084F83D002068816844F297
:101FA000070291438160211D206801F083FA2268B5
:101FB00090689169166A2B68AF69034340F2033059
:101FC000814341EA0721A868EF6908434FF6FC41C5
:101FD0008843E96840EA0720014328692F6A000125
:101FE00040EA0730084369686D6926F0220646EA30
:101FF0000515294393602268906154F8460B0162ED
:10200000012004F81F09E0752076E0762077A0759E
:102010000020B7E770B586B00025009501950295C0
:1020200003950068544B5549554A98421DD188691B
:1020300040F400608861886900F400600490886959
:1020400040F0040088618869694600F0040004904B
:102050004FF4407000901046FEF7D0FD00220221A0
:102060001920FFF715FA192061E0464E464CB0F1F1
:10207000804F27D0454B98425DD1C86940F002009F
:10208000C861C86900F002000490886940F0080047
:1020900088618869694600F008000490302000904B
:1020A0003046FEF7ABFD606820F4406040F0E06031
:1020B00040F400606060002202211D20FFF7E8F973
:1020C0001D2034E0C86940F00100C861C86900F013
:1020D00001000490886940F004008861886900F07C
:1020E00004000490886940F00800886188696946A6
:1020F00000F0080004904FF4004000901046FEF7F6
:102100007DFD0820CDE90005694630460295FEF7C1
:1021100075FD606820F4407040F0E06040F480702D
:102120006060002202211C20FFF7B2F91C20FFF79B
:10213000A1F906B070BD164B9842FAD1C86940F0BB
:102140000800C861C86900F008000490886940F080
:10215000040088618869694600F004000490032047
:1021600000901046FEF74AFD002202213220FFF7C0
:102170008FF93220DBE70000002C01400010024004
:1021800000080140000C0140000001400004004034
:10219000000C004070B590F83E60044690F83F5047
:1021A00090F8423090F84320022021B104290ED04B
:1021B000012E1BD114E0012E18D1012B16D184F869
:1021C0003E0084F8420001220021206820E0012D19
:1021D0000CD1012A0AD184F83F0084F8430014E0AE
:1021E000012D03D1012B01D1012A01D0012070BDA5
:1021F00084F83E0084F83F0084F8420084F84300ED
:1022000001220021206801F09BF9012204212068AD
:1022100001F096F92068016841F001010160002099
:1022200070BD000000B585B00021009101910291C0
:10223000039100680B49884212D10B48816941F033
:10224000100181618069694600F0100004904FF42C
:10225000707000900220019003900448FEF7CEFCBD
:1022600005B000BD003401400010024000100140E4
:1022700070B5044690F83C0000260D4601280FD0AA
:10228000012084F83C006AB1042A1DD0082A2FD00E
:102290000C2A3FD00126002084F83C00304670BD57
:1022A000022070BD206801F06BF92068816941F05F
:1022B000080181612068816921F004018161206841
:1022C00081692A69114311E0206801F089F92068C9
:1022D000816941F4006181612068816921F4806134
:1022E0008161206881692A6941EA02218161D2E71E
:1022F000206801F0ABF92068C16941F00801C161B3
:102300002068C16921F00401C1612068C1692A699E
:10231000114311E0206801F0CDF92068C16941F452
:102320000061C1612068C16921F48061C1612068D8
:10233000C1692A6941EA0221C161ACE710B5040014
:1023400003D094F83D0010B107E0012010BD00203B
:1023500084F83C00204600F01EF8022084F83D007E
:10236000211D206801F0A6F8012084F8460084F8B9
:102370003E0084F83F0084F8400084F8410084F86F
:10238000420084F8430084F8440084F8450084F84F
:102390003D00002010BD704710B50446022249B12F
:1023A00004290ED0082913D094F84100012816D032
:1023B000012010BD94F83E000128F9D184F83E2098
:1023C0000FE094F83F000128F2D184F83F2008E0A4
:1023D00094F840000128EBD184F8402001E084F813
:1023E00041200122206801F0ABF813492068134A0C
:1023F000884201D0904203D1436C43F400434364CC
:10240000206888420DD090420BD0B0F1804F08D0A8
:102410000B49884205D00B49884202D00A498842BC
:1024200004D1816801F00701062903D0016841F059
:1024300001010160002010BD002C0140003401406A
:102440000004004000080040000C0040704710B538
:1024500004460068406994F84110C0F3C010212977
:1024600011D180B12068143050E8001F21F08001A4
:1024700040E80012002AF5D1A06B08B1FEF7EEF992
:10248000204601F051FA2068406994F84210C0F3E8
:102490008010222911D180B12068143050E8001F2B
:1024A00021F0400140E80012002AF5D1E06B08B1AC
:1024B000FEF7D4F9204601F010FA002010BD704755
:1024C00070B5040004D094F84100002510B106E076
:1024D000012070BD84F84050204600F023F82420ED
:1024E00084F841002068C16821F40051C160204691
:1024F00001F028FA2068016921F490410161206807
:10250000416921F02A0141612068C16841F400510C
:10251000C1606564202084F8410084F8420065634E
:10252000002070BD2DE9F04186B000240094019494
:10253000029403940646474D03684748022103224C
:102540008027AB422DD1836943F480438361836943
:1025500003F480430493836943F008038361806933
:102560003E4D00F0080004904020CDE900010392A8
:1025700069462846FEF742FBCDE9007469462846C5
:102580000294FEF73BFB3648416841F0E06141F0C0
:1025900004014160002201212520FEF779FF25205A
:1025A00052E0304DAB4251D1C36943F40033C361B3
:1025B000C36903F400330493836943F00403836124
:1025C0008069294D00F0040004900420CDE9000149
:1025D000039269462846FEF711FB0820CDE9000466
:1025E000694628460294FEF709FB214D1F484FF427
:1025F0000058C5E90004C5E902472C616C61C5E9D2
:1026000006482846FEF772FA08B1FDF787FFF56322
:102610006E62174D15484435143001C5102091C520
:10262000134845F8104944306C61C5E90648FEF787
:102630005DFA08B1FDF772FFB56300220121262083
:102640006E62FEF725FF2620FEF714FF06B0BDE8F8
:10265000F08100000038014000100240000C0140F1
:102660000000014000440040000801406C000240AE
:102670006C0A002090F84230202B01D002207047D5
:1026800021B11AB10023036301F0B8B901207047EA
:1026900070477047FEE701684A69D24352050FD47C
:1026A0006FF480624A61002140F8301F202242739B
:1026B0008173026942F004020261017301207047D4
:1026C000002070472DE9F84F0446C06A1E46934625
:1026D0000D4621680A6842F480620A60082807D023
:1026E000012805D010F5803F02D0206B112804D1BD
:1026F0002068016841F4807101604FF001195B4668
:10270000002249462046009600F0CCF84FF40078AD
:1027100040B120680068C00501D5C4F8408003209E
:10272000BDE8F88F2069DFF884A0B0F5804F0FD0A6
:102730000620216800EAD51747F0F000086133460B
:102740005A460AF10601204600F0F4F858BB03E0AF
:10275000E8B240F001001CE02168E8B208613346AD
:102760005A465146204600F0E5F8E0B92068416934
:1027700081690091016841F4807101605B4600222B
:1027800049462046009600F08DF80028C1D147F058
:10279000F1002168086133465A465146204600F050
:1027A000C9F80028BCD00120BAE7000002000100EF
:1027B000F8B50446C06A1E460D461746082807D0DD
:1027C000012805D010F5803F02D0206B122804D1DB
:1027D0002068016841F480710160134600224FF0C7
:1027E00001112046009600F05DF840B120680068B5
:1027F000C00502D54FF4007020640320F8BD2069A5
:10280000B0F5804F0ED00620216800EAD51040F0C8
:10281000F000086133463A460B49204600F08AF83A
:1028200078B902E005F0FE0000E0E8B22168086136
:10283000054933463A46891F204600F07BF80028B8
:10284000DCD00120F8BD00000800010070B516467C
:102850000D4604461EE02046FFF71DFF08B101208B
:1028600070BD681C16D0FEF7CBFA801BA84200D8BA
:1028700085B920684069C04340070BD5002044F863
:10288000300F20216173A073216941F02001216183
:102890002073E4E720684069C0434007DBD4002090
:1028A00070BD00002DE9F047984617460D460446D6
:1028B000C1F30746DDF820902AE000BFB8F1FF3FE2
:1028C00026D0FEF79DFAA0EB0901414502D8B8F1E8
:1028D000000F1DD12068012E16D0806925EA000066
:1028E0000004000C12D00020B84211D1002044F89E
:1028F000300F20216173A073216941F02001216113
:1029000020730120BDE8F0874069E7E70120EBE78D
:102910002068012E0AD0806925EA00000004000C1E
:1029200006D00020B842C9D00020EBE74069F3E7A9
:102930000120F7E72DE9F047984616460D46044674
:102940004FF000094FF0200AC1F3074723E0206849
:102950004069C043400515D42068016841F4007106
:10296000016021686FF480604861C4F8309084F899
:102970003DA084F83E90216C41F00401216484F86C
:102980003C9021E0701C06D0FEF73AFAA0EB08005C
:10299000B04203D816B1012F1FD021E02068012FCB
:1029A00015D0806925EA00000004000C18D000BF93
:1029B00044F8309F84F80DA084F80E90216941F00E
:1029C0002001216184F80C900120BDE8F087406966
:1029D00025EA00000004000CEAD12068406901E00B
:1029E0002068806925EA00000004000CAFD1ECE704
:1029F0002DE9F041002590460E460446202728E0A8
:102A00004069C043C0060CD454F8301B6FF010006E
:102A1000486144F810596777A577206A20622577C6
:102A200014E0FEF7EDF9A0EB0800B04200D886B93B
:102A300020684069C04340060BD544F8305F677397
:102A4000A573206940F02000206125730120BDE8B6
:102A5000F08120684169C9434906D1D40020F6E7D6
:102A600070B516460D4604461EE02046FFF713FEDD
:102A700008B1012070BD681C16D0FEF7C1F9801B9B
:102A8000A84200D885B920684069C04300060BD52C
:102A9000002044F8300F20216173A073216941F0B8
:102AA000200121612073E4E720684069C0430006EB
:102AB000DBD4002070BD00000348FDF731FD01208C
:102AC00001F0F0F8F8E70000F40A00202DE9F041E9
:102AD00004460026881A02F08BFD0546E060294670
:102AE000304602F019FC06462946084602F0CAFEA6
:102AF00007463046616900F083FB06463846A16907
:102B000000F07EFB07462946206802F0BDFD8046A6
:102B10003146606802F0B8FD06463946A06802F00A
:102B2000B3FD07462846216900F06AFB314640465E
:102B300002F0F2FB394602F0EFFBE16900F060FBC6
:102B4000BDE8F04102F018BD10B516488AB014492E
:102B5000016010210024C0E90114C46004614461D3
:102B6000047644768476C47604774477FDF777FD5F
:102B700008B1FDF7D3FC0120CDE9050402940394CC
:102B80000790089000940194694604940548FDF765
:102B9000EFFC002801D0FDF7C1FC0AB010BD000019
:102BA00000640040480700200D4808B5416941F025
:102BB000010141614069002200F0010000900521FF
:102BC0001020FEF765FC1020FEF754FC00220521C2
:102BD0001120FEF75DFCBDE808401120FEF74ABC5D
:102BE0000010024010B596B01C2211496846FDF74E
:102BF0009EFB0021684601F061F80E4C0C491C2236
:102C000020601C3107A8FDF792FB002107A801F006
:102C100055F8074960601C2238310EA8FDF787FB84
:102C200000210EA801F04AF8A06016B010BD000007
:102C300070590008000000202DE9F04385B0002401
:102C400025480094019402940394816941F0200185
:102C50008161816901F020010491816941F01001D5
:102C60008161816901F010010491816941F00401E1
:102C70008161816901F004010491816941F00801D9
:102C800081618069DFF8548000F008000490002220
:102C90000F214046FEF7AEF8DFF844904FF470473E
:102CA000002239464846FEF7A5F80F2001250226E6
:102CB000CDE90005CDE9024669464046FDF79EFF95
:102CC00000970396CDE9015469464846FDF796FF03
:102CD00005B0BDE8F0830000001002400010014084
:102CE000000C01400D4810B50B4901600C494160D2
:102CF00000214FF480428160C0E90312416181618B
:102D0000C1610162FEF782F8002803D0BDE81040DF
:102D1000FDF704BC10BD0000005400407007002007
:102D2000A08601000D4810B50B4901600C494160B7
:102D300000214FF480428160C0E90312416181614A
:102D4000C1610162FEF762F8002803D0BDE81040BF
:102D5000FDF7E4BB10BD000000580040C407002090
:102D6000A08601000A4810B5084901604FF0FF3104
:102D700041604FF480718160FEF700FF002803D0AE
:102D8000BDE81040FDF7CABB10BD000000280040A0
:102D90001808002010B58CB024216846FDF7F9FA18
:102DA00000241648099414490A94C0E900144FF607
:102DB000FF71C0E902410461446184610320CDE9EF
:102DC00000040120CDE902040494CDE905400794F4
:102DD00069460A480894FFF7CBF808B1FDF79EFB57
:102DE000099409A905480A94FEF788FF002801D034
:102DF000FDF794FB0CB010BD002C01402C08002006
:102E000010B58CB024216846FDF7C3FA002415489C
:102E100009944FF080410A94C0E900144FF6FF7105
:102E2000C0E90241046184610320CDE9000401206E
:102E3000CDE902040494CDE90540079469460948A8
:102E40000894FFF795F808B1FDF768FB099409A904
:102E500004480A94FEF752FF002801D0FDF75EFBFC
:102E60000CB010BD7408002030B58BB0242168462A
:102E7000FDF78FFA00241A4D099418480A94C5E901
:102E800000044FF6FF70C5E902402C61AC610320DD
:102E9000CDE900040120CDE902040494CDE9054008
:102EA0000794694628460894FFF762F808B1FDF7D1
:102EB00035FB099409A90A480A94FEF71FFF08B1D7
:102EC000FDF72CFB2868C16841F00101C1603C217D
:102ED0000348FFF75FF90BB030BD0000000400406D
:102EE000BC08002010B58CB024216846FDF751FACB
:102EF00000241648099414490A94C0E900144FF6B6
:102F0000FF71C0E90241046184610320CDE900043E
:102F10000120CDE902040494CDE9054007946946F7
:102F20000A480894FFF724F808B1FDF7F7FA099466
:102F300009A906480A94FEF7E1FE002801D0FDF732
:102F4000EDFA0CB010BD0000000C00400409002098
:102F50001CB500240F4800940D49019401606321C1
:102F6000C0E9011441F61F41C16080218161FEF773
:102F700003FF08B1FDF7D2FA0094694605480194B1
:102F8000FEF7BCFE002801D0FDF7C8FA1CBD00000A
:102F9000001000404C09002010B596B000240F949A
:102FA00010941194129413941C2168461494FDF704
:102FB000F0F9202107A8FDF7ECF934483249016007
:102FC0004721C0E9011440F2F311C0E90314446140
:102FD0008461FEF7D1FE08B1FDF7A0FA4FF48050EE
:102FE0000F900FA92948FEF755FF08B1FDF796FA93
:102FF0002648FFF7A3F908B1FDF790FA139413A937
:1030000022481494FEF77AFE08B1FDF787FA602093
:10301000CDE90004029403940494059400226946C7
:103020001A480694FFF724F908B1FDF777FA04224D
:1030300069461648FFF71CF908B1FDF76FFA082238
:1030400069461248FFF714F908B1FDF767FA0C2238
:1030500069460E48FFF70CF908B1FDF75FFA0794CF
:10306000089409944FF400500A94CDE90B4007A945
:1030700006480E94FEF717FE08B1FDF74FFA034815
:10308000FFF7D0F816B010BD0034014094090020BD
:103090000C4810B50A4901604FF4E131416000214C
:1030A00081600C22C160C0E904128161C161FFF737
:1030B00007FA002803D0BDE81040FDF72FBA10BD75
:1030C00000380140DC09002010B50E4C0C480C21E2
:1030D00020604FF4E13060600020A060E060C4E94F
:1030E0000401A061E0612046FFF7EAF908B1FDF7AD
:1030F00015FA2068C16841F01001C16010BD0000E0
:1031000000440040240A0020FEE7000070B50C4691
:10311000334D344A4FF4000101280ED0022823D049
:10312000032838D004281ED1E06888424ADB0421F5
:10313000012000F077F8E0684DE02068884205DB68
:103140000121084600F06EF8206808E090420AD39A
:103150000121002000F066F8206880F0004002F0B5
:1031600027FA2968486370BD6068884205DB022140
:10317000012000F057F8606808E09042F3D3022184
:10318000002000F04FF8606880F0004002F010FA74
:103190002968886370BDA068884205DB032101208F
:1031A00000F040F8A06808E09042F3D3032100202B
:1031B00000F038F8A06880F0004002F0F9F92968C2
:1031C000C86370BD9042FCD30421002000F02AF8AF
:1031D000E06880F0004002F0EBF92968086470BDF7
:1031E0009409002000008080FEE770B50DF1100CFE
:1031F0009CE87000456180E80E00C0E9066470BD7F
:1032000070B50E46054681F0004402F009FB01D27C
:10321000354605E02046294602F002FB00D225464D
:10322000284670BD70B5214C01290FD002291DD050
:103230001F4C03292AD0042937D109034D0048B374
:1032400000222046FDF7D6FD012228E030B1002201
:1032500001212046FDF7CEFD012205E001221146A5
:103260002046FDF7C7FD0022022119E030B10022FF
:1032700004212046FDF7BEFD012205E001220421C4
:103280002046FDF7B7FD0022082109E04FF48051E8
:103290004D00D4E701222046FDF7ACFD002229466F
:1032A0002046BDE87040FDF7A5BD70BD001001408F
:1032B000000C014070B50446FDF7A2FD05464FF431
:1032C0007A7606E0FDF79CFD401BB04201D9032051
:1032D00070BD206840688006F4D52068416841F0E0
:1032E00010014160002070BD70B50446006841685F
:1032F00021F010014160FDF783FD05464FF47A7619
:1033000007E000BFFDF77CFD401BB04201D9032060
:1033100070BD206840688006F4D5002070BD01684B
:10332000486AB0F5704F02DBA0F57F40FF380022FD
:103330004A6270472DE9F04104460026881A02F0DF
:1033400057F90546E0602946304601F0E5FF06469C
:103350002946084602F096FA074630466169FFF7AB
:103360004FFF06463846A169FFF74AFF0746294640
:10337000206802F089F905463146606802F084F958
:1033800006463946A06802F07FF9074631462846CE
:1033900001F0C2FF394601F0BFFFE169FFF730FFDE
:1033A000BDE8F04102F0E8B810B5FEF705F801F00D
:1033B000F3FD012803D0BDE8104001F023BB10BD90
:1033C00070B596B028216846FCF7E3FF14210AA8DF
:1033D000FCF7DFFF18210FA8FCF7DBFF0920012411
:1033E00000904FF48030002504940694CDE9010547
:1033F0000226CDE907604FF4E01009906846FEF719
:103400002DFA08B172B6FEE70F20CDE90A064FF497
:103410008060CDE90C5002210AA80E95FEF742F912
:1034200008B172B6FEE74FF40070CDE90F400FA867
:10343000FEF7C2F8002801D072B6FEE716B070BDE4
:10344000704770477047000003480168016821F029
:10345000010101607047000010040040034801684A
:10346000016821F00101016070470000100C00406C
:1034700070B50C4C20680069C043C0070CD10A48E5
:10348000FDF766F802F078F8084D28600848FDF767
:103490005FF802F071F8686021686FF00100086160
:1034A00070BD00004C090020BC080020800B0020EB
:1034B00004090020F0B502681C4B1D4D1D4E1E4F27
:1034C0001E4C4FF0804C984209D0A04207D0604576
:1034D00005D0A84203D0B04201D0B84204D122F0B6
:1034E000700E4A6842EA0E02984209D0A04207D004
:1034F000604505D0A84203D0B04201D0B84203D104
:1035000022F44075CA682A434D6922F080022A439A
:1035100002608A68C2620A688262984201D0A04250
:1035200001D10969016301214161F0BD002C014015
:103530000004004000080040000C0040003401403E
:1035400010B501F01F030121046A99408C43046205
:10355000016A9A401143016210BD10B5846842EAC5
:10356000032224F47F440A432243826010BD826810
:1035700022F070020A4342F00701816070470000A8
:10358000F0B5036A026A22F00102026242688469AD
:10359000124E24F073050C682C4323F002058B684F
:1035A0002B430D4DA84201D0B04205D123F00807AE
:1035B000CB683B4323F00403A84201D0B04205D1BD
:1035C0004D6922F4407215438A692A43426084613E
:1035D000496841630362F0BD002C014000340140A2
:1035E000F0B5026A036A23F010030362436884693A
:1035F0000D6824F4E64444EA05248D6822F0200294
:1036000042EA05120F4D104EA84201D0B04206D139
:10361000CF6822F0800242EA071222F04002A8425C
:1036200001D0B04207D14D6923F4406343EA8503DA
:103630008D6943EA8503436084614968816302625E
:10364000F0BD0000002C014000340140F0B5026ADA
:10365000036A23F4807303624368C46922F400722E
:1036600024F073050C68124E2C438D6842EA052243
:103670000E4DA84201D0B04206D1CF6822F40062BC
:1036800042EA072222F48062A84201D0B04207D168
:103690004D6923F4405343EA05138D6943EA05134A
:1036A0004360C4614968C1630262F0BD002C0140FF
:1036B0000034014030B5046A026A22F4805202628A
:1036C0004268C3690D6823F4E64343EA05238D6825
:1036D00024F4005444EA0534084DA84202D0084DB1
:1036E000A84204D14D6922F4804242EA8512426028
:1036F000C36149680164046230BD0000002C0140D0
:103700000034014010B5036A046A24F00104046225
:10371000846924F0F00444EA021423F00A020A4304
:103720008461026210BD10B5036A046A24F01004BB
:103730000462846923F0A00324F4704444EA023252
:1037400043EA01118261016210BD00007CB50446AC
:10375000007A244D6FF02706372818D91EE031462D
:1037600021482A68FFF7E6FD01F042FF009028217A
:103770001D486A68FFF7DEFD01F03AFF01906946D7
:103780000120FFF7C3FC69460220FFF7BFFC207948
:103790002828E4D260792828E1D27CBD60783728D7
:1037A00018D97CBD282110482A68FFF7C3FD01F015
:1037B0001FFF009031460C486A68FFF7BBFD01F01F
:1037C00017FF019069460120FFF7A0FC694602201F
:1037D000FFF79CFC20792828E4D260792828E1D2E0
:1037E0007CBD0000800B0020A00B002070B5446A57
:1037F0002068406994F84110C0F3C01000252129C9
:1038000004D118B1E584204600F08EF820684069A4
:1038100094F84210C0F38010222904D118B1E58534
:10382000204600F05AF8606C40F0100060642046BA
:10383000FEF745FE70BD10B50146406A096809688B
:103840004FF0000289062ED4C28501680C3151E880
:10385000003F23F4807341E80034002CF5D1016867
:10386000143151E8003F23F0010341E80034002CFB
:10387000F5D10168143151E8003F23F0400341E8DD
:103880000034002CF5D1202180F84210016B012971
:1038900009D101680C3151E8003F23F0100341E8E1
:1038A0000034002CF5D14263016B012902D0FEF7F0
:1038B000EFFE10BD818DFEF7C9FD10BD10B5406A49
:1038C00001214163016B012902D0FEF7E2FE10BD28
:1038D000818D4908FEF7BAFD10BD01680C3151E831
:1038E000002F22F4907241E80023002BF5D10168EB
:1038F000143151E8002F22F0010241E80023002B8F
:10390000F5D1016B012909D101680C3151E8002F73
:1039100022F0100241E80023002BF5D1202180F88D
:10392000421000210163704701680C3151E8002FFB
:1039300022F0C00241E80023002BF5D1202180F8BD
:103940004110704770B5044600680169E26821F4CF
:103950004051114301612169A0680843616908432E
:103960002168CA6841F20C639A430243CA60206826
:103970004169A26921F44071114341611E492068E7
:10398000884202D1FDF734FF01E0FDF721FF00EB93
:10399000C00101EB0012606864218000B2FBF0F30B
:1039A000B3FBF1F36FF018067343B2FBF0F5B2FB13
:1039B000F0F605EB8305322303EB0515B5FBF1F5B6
:1039C000B6FBF1F605F0F00505EB0615B2FBF0F6D7
:1039D000B2FBF0F0B0FBF1F06FF01802504306EBD1
:1039E000800003EB0010B0FBF1F0216800F00F0045
:1039F0002844886070BD00000038014038B58162FD
:103A000004468285002013466064222284F8422006
:103A1000E56B1B4AAA62E56B1A4AEA62E56B1A4A31
:103A20002A63E26B50630A462168E06B091DFDF7CB
:103A30009BF82068016840680090206948B12068C0
:103A40000C3050E8001F41F4807140E80012002A59
:103A5000F5D12068143050E8001F41F0010140E822
:103A60000012002AF5D12068143050E8001F41F000
:103A7000400140E80012002AF5D1002038BD0000C6
:103A800037380008BD380008ED37000870470000DF
:103A900038B50A4C20680068C043C0060CD47825AD
:103AA0002046FEF7D4FC2A4605492046FEF7E2FDF3
:103AB000206801684068009038BD0000240A00209A
:103AC000980000207047FEE70907090E002804DB74
:103AD00000F1E02080F80014704700F00F0000F1C2
:103AE000E02080F8141D70472DE9FC410546007A5E
:103AF0000F463C2843D86878462840D8304C0021EF
:103B000030482268FFF716FC01F072FD009000219A
:103B10002C486268FFF70EFC01F06AFD01906946CF
:103B20000120FFF7F3FA69460220FFF7EFFA64205D
:103B3000FDF752F86FF02706012F1AD0022F1ED181
:103B400037E031461F482268FFF7F4FB01F050FDD3
:103B5000009032211B486268FFF7ECFB01F048FD42
:103B6000019069460120FFF7D1FA69460220FFF76C
:103B7000CDFA28792828E4D268792828E1D2BDE84E
:103B8000FC8132210F482268FFF7D4FB01F030FDA1
:103B9000009031460B486268FFF7CCFB01F028FD2E
:103BA000019069460120FFF7B1FA69460220FFF74C
:103BB000ADFA28792828E4D268792828E1D2DEE70E
:103BC000800B0020A00B00200EB5FDF7FDFB274861
:103BD0002749CDE90010002302901A4625492648BE
:103BE000FFF703FB25482649CDE90010002302908A
:103BF0001A4624492448FFF7F8FAFFF7E1FBFFF7DC
:103C00001BF8FEF7D1FFFEF79FFFFFF76BF8FFF7FA
:103C100089F8FFF7A7F8FFF7BDF8FFF7F1F8FFF70E
:103C200023F9FFF75FF9FFF7B7F9FFF731FAFFF76D
:103C30004BFAFFF78DF91548FCF7E4FD0021144815
:103C4000FEF7AAFB04211248FEF7A6FB0821104844
:103C5000FEF7A2FB0C210E48FEF79EFB0D48FEF777
:103C6000E3F8FEF7BFFF00F024F8FEE7000048424B
:103C70000000FA4300004040A00B0020000020415B
:103C800000002042CDCC4C3FC00B00204807002054
:103C9000940900204C09002001460020842900D00E
:103CA000C81C704710B500B9012000F075FD002058
:103CB00010BD10B500F0D8FD002010BD7FB50D4639
:103CC00004464169B0F9080081B1A16971B1FFF7FB
:103CD000E3FFD4E905128DE80700D4E900102B4674
:103CE000226901F02EF9039004B070BDFFF7D4FFF4
:103CF00003A9CDE90001208A2B4682B2D4E9001045
:103D000001F0F2F8012801D00020EDE70398EBE77D
:103D10002DE9F041184C0F46054666692068001DE4
:103D200000F00AFC38B9206890F82C100120884077
:103D3000A1698143A161681C07D137B12168BDE841
:103D4000F0410E48091D00F047BC20683544B542DB
:103D50004560216805D2A068BDE8F041091D00F06A
:103D600023BC6068091D00F01FFC206B854200D257
:103D70002563BDE8F08100001C000020FC0C002041
:103D80002DE9F041054600F033FC2E4C2069401C23
:103D9000206120682C4F10B1E06940B32DE0256010
:103DA0002069012829D1002606EB860007EB800058
:103DB00000F0ECFB761C072EF6D323488C3000F085
:103DC000E5FB2148A03000F0E1FB1F48B43000F0D3
:103DD000DDFB1D48C83000F0D9FB1B48DC3000F08B
:103DE000D5FB19488C3060601430A06005E0206875
:103DF000E96AC06A884200D82560E06A401CE06237
:103E0000E96A0120A26988401043A06101EB8100AA
:103E100007EB8000291D00F0DFFB00F009FCE069E2
:103E200000280CD02068E96AC06A884207D2074996
:103E30004FF080500860BFF34F8FBFF36F8FBDE826
:103E4000F08100001C000020200C002004ED00E0A8
:103E500038B500F0CDFB104CA068C8B90F4800F091
:103E600095FB0E48143000F091FB0C482060143094
:103E700060600A4B00202833009003F148020C21B7
:103E80000A2000F0D5FDA06010B105A100F04EFCA5
:103E9000BDE8384000F0CCBB58000020100D0020D9
:103EA000546D72510000000030B4026C0B46002AC1
:103EB0000BD0C1681144C1604468A14201D30168BC
:103EC000C16030BC1846FCF7EDB930BC70472DE935
:103ED000F041856B174604460026026C82B1C7B1DB
:103EE000E068FCF7DFF9E168206C091AE1602268FC
:103EF000914202D26168081AE060022F16D017E0E2
:103F00002068A8B9606801F0BFF80646002060602C
:103F10000EE0A068FCF7C6F9216CA0680844A06018
:103F20006168884204D32068A06001E005B16D1E7D
:103F30006D1CA5633046BDE8F08110B5044690F8CD
:103F4000510058B101280CD002280FD0502080F326
:103F50001188BFF34F8FBFF36F8FFEE7206B00F028
:103F60007BFB2046BDE8104000F076BB10BD000092
:103F700010484FF44061420706D0C01D0D4920F0A3
:103F80000700411AC1F540610B4A00230144C2E910
:103F900000030839103A21F0070111604B600B60F3
:103FA0000B1AC0E9001393604FF000405360D060DB
:103FB00070470000F80D00207C000020144E154CC6
:103FC000A6F1C8074FF08058DFF84C9012E000BF10
:103FD00000F00EFBF068C568281D00F0ADFA2069FE
:103FE000401E2061E068401EE06000F021FB284692
:103FF000FFF7A3FFE0680028EAD138680128F9D963
:10400000C9F80080BFF34F8FBFF36F8FF2E7000056
:10401000E80C00201C00002004ED00E0034600989E
:1040200029B10260C0E90F31012100F035BD006007
:10403000F8E72DE9F0479A46DDE9098481466FF0FB
:104040000303206B03EB82021044089D20F0070657
:10405000700707D0502080F31188BFF34F8FBFF354
:104060006F8FFEE723180A5C83F834200A5C12B1D4
:10407000401C1028F6D3002784F84370072D00D386
:104080000625E562C4E91157201D00F08AFA04F103
:10409000180000F086FA2461C5F107006462A0618F
:1040A000E76484F8507052464946304600F032FAD0
:1040B0002060B8F1000F01D0C8F80040BDE8F087DB
:1040C00030B5114900E011460A688242FBD34B68C3
:1040D0005C18844203D1406818444860084643682D
:1040E0001C18944209D1084C103C2468A24209D003
:1040F00052681A4442600A6812680260814200D025
:10410000086030BD0460F9E77C00002070B5002431
:1041100041600B4D0061914206D8D11A82699142EB
:1041200006D2011D686807E09A4203D2994201D382
:10413000012403E0011D286800F036FA204670BD16
:104140005800002010B5044600F052FAA06B28B1C8
:104150005FF0000400F06CFA204610BD0124F9E77E
:1041600030B587B02C4D4EE0049800284BDB069C00
:10417000606910B1201D00F0DFF902A800F0B8F866
:10418000024604980A283ED2DFE800F00505053D06
:10419000263705053D260598A169034601442046BA
:1041A000FFF7B4FF00B3616A20468847E069012841
:1041B00029D1002000900598A169002342181946D2
:1041C000204601F079F878B9502080F31188BFF3C8
:1041D0004F8FBFF36F8FFEE70598A06128B181185C
:1041E00013462046FFF792FF0DE0502080F3118820
:1041F000BFF34F8FBFF36F8FFEE794F8280010B91D
:10420000204600F029FA002204A9A86800F096FDD3
:104210000028A9D107B030BD580000202DE9FC418D
:104220000F46054600F064FB01A800F061F8044663
:10423000019818B100F0AEFFBDE8FC81224EAFB18D
:1042400070680068A8B30027291B3A46B06800F0E0
:1042500081FA00F09FFF0028EED11C494FF08050FA
:104260000860BFF34F8FBFF36F8FE5E7A542EBD830
:1042700000F090FF30682746C068C468201D00F039
:104280005BF9E069012810D1A0692B4641193A4633
:104290002046FFF73BFF40B1002003460146009057
:1042A0002A46204601F008F820B1616A2046884776
:1042B000C2E707E0502080F31188BFF34F8FBFF3B0
:1042C0006F8FFEE70127BFE75800002004ED00E0F4
:1042D00006484168096829B14168C968C9684968E0
:1042E000016370474FF0FF31FAE700001C00002027
:1042F00070B5054600F05EFE064E04463069844205
:1043000003D200F009F8012000E0002028602046D8
:10431000346170BD58000020F8B5194D1FE0C06829
:10432000C4680668201D00F007F9616A20468847C6
:10433000E069012813D1A0693044B04206D9246154
:104340006060211D286800F02FF908E00020034676
:10435000014600903246204600F0AEFF38B1286892
:1043600001680029DBD16968C5E90010F8BD50205B
:1043700080F31188BFF34F8FBFF36F8FFEE700000C
:104380005800002008484068401C4FF0500080F35F
:10439000118804D0BFF34F8FBFF36F8FFEE7BFF3D9
:1043A0004F8FBFF36F8FFEE784000020074C20681B
:1043B000016841B1C0680021D0F80000FFF72EFF6E
:1043C000FFF7CEFEF3E701210020F7E758000020B9
:1043D0002DE9F041044600F00BF994F9455004F141
:1043E000240609E0606A48B1304600F099FE08B141
:1043F00000F000FA6D1E6DB2002DF3DC4FF0FF36B9
:1044000084F8456000F014F900F0F2F894F9445093
:1044100004F1100709E0206948B1384600F080FE39
:1044200008B100F0E7F96D1E6DB2002DF3DC84F8E1
:104430004460BDE8F04100F0FBB800002DE9F04118
:104440000546002700F054FA314E306808B9FFF7EE
:104450008FFDF06805424BD1C5B3083568070ED013
:1044600005F00700C0F108000544680707D0502098
:1044700080F31188BFF34F8FBFF36F8FFEE72DB32B
:104480007068854234D82248103001460C6801E03B
:1044900020460C466168A94202D221680029F7D162
:1044A00031688C4224D00768216801606068083751
:1044B000411B10290FD96019420708D0502080F302
:1044C0001188BFF34F8FBFF36F8FFEE710E041609D
:1044D0006560FFF7F5FD61687068401A7060B2684A
:1044E000904200D2B060F06801430020C4E90001AE
:1044F00000F050FE780707D0502080F31188BFF3FA
:104500004F8FBFF36F8FFEE73846BDE8F0810000A4
:104510006C00002010B5031F4FF080741C601B1F3F
:1045200021F001011960191F024B0B60143940384A
:104530000A6010BD85430008D0E9013201699A6024
:10454000D0E901235A604A68824201D182684A60F8
:10455000002202610868401E086008687047000079
:10456000034B036003F15400086080201060704723
:10457000A0000020044B036003F1540008604FF4D6
:104580008070106070470000F402002000F1080104
:104590004FF0FF32C0E90112C160016100210160EA
:1045A000704700210161704730B50B685A1C02D07A
:1045B00000F1080202E0026904E02246546825681E
:1045C0009D42FAD953684B6099608A6051600861D6
:1045D0000168491C016030BD42684A6093688B6085
:1045E00093685960916008610168491C01607047D7
:1045F000502080F31188BFF34F8FBFF36F8F0A49AC
:104600004868401C486001280CD10848006810F038
:10461000FF0F07D0502080F31188BFF34F8FBFF3F7
:104620006F8FFEE7704700008400002004ED00E07B
:104630000849486828B1401E486001D180F31188BC
:104640007047502080F31188BFF34F8FBFF36F8FF7
:10465000FEE700008400002070B5002827D0144D2C
:10466000A0F108046168E868014207D1502080F396
:104670001188BFF34F8FBFF36F8FFEE722683AB107
:10468000502080F31188BFF34F8FBFF36F8FFEE789
:104690008143616000F02CF96068696808446860D3
:1046A0002046FFF70DFDBDE8704000F073BD70BD02
:1046B0006C0000204FF0E02000210161816105497C
:1046C0004FF47A720968B1FBF2F1491E416107218A
:1046D000016170471800002010B5FBF7BFFD1149BC
:1046E00010280ED300F1E02090F8F0030A789042F1
:1046F00007D2502080F31188BFF34F8FBFF36F8F25
:10470000FEE709480068896800F4E060884207D93C
:10471000502080F31188BFF34F8FBFF36F8FFEE7F8
:1047200010BD0000840000200CED00E010B5084B27
:10473000002200BF53F832401CB1521C082AF9D3A2
:1047400010BD43F8321003EBC201486010BD0000F9
:10475000E00B002070B515460E460446FFF748FFF3
:1047600094F944100020491C01D184F8440094F9C4
:104770004510491C01D184F84500FFF759FFA06B93
:1047800028B92A46314604F1240000F051F82046A9
:10479000BDE87040FFF71CBE10B5020014D00F48F2
:1047A000806B38B1502080F31188BFF34F8FBFF377
:1047B0006F8FFEE700F09CF800211046FFF7A8FA83
:1047C00000F0E8FC002807D105494FF08050086050
:1047D000BFF34F8FBFF36F8F10BD00001C00002090
:1047E00004ED00E002498A6A02604969416070474D
:1047F0001C00002001490120486270471C00002075
:1048000010B50C4650B1094909681831FFF7CCFEC4
:104810002046BDE810400121FFF77ABA502080F30E
:104820001188BFF34F8FBFF36F8FFEE71C0000208E
:1048300070B514460D4668B10A4909681831FFF78A
:10484000CBFE0CB14FF0FF3521462846BDE8704045
:10485000FFF75EBA502080F31188BFF34F8FBFF38C
:104860006F8FFEE71C00002030B587B00024039452
:1048700005AA04A903A80494FFF772FEDDE9030169
:104880000094CDE90110002315A11748059A00F006
:1048900058FB164D002868631FD000F0DDFC01288E
:1048A00009D0401C19D1502080F31188BFF34F8FDD
:1048B000BFF36F8FFEE7502080F31188BFF34F8F57
:1048C000BFF36F8F4FF0FF3028630120E8616C6108
:1048D00007B0BDE8304000F041B807B030BD00007F
:1048E00049444C4500000000BD3F00081C0000206A
:1048F0000248816B491C8163704700001C00002046
:104900001448816B11B1012141627047002141625D
:104910008169B1FA81F1C1F11F0101EB81020E49F8
:1049200051F822306BB101EB820101F108034A68B2
:1049300052684A609A4201D152684A60D168016067
:104940007047502080F31188BFF34F8FBFF36F8FF4
:10495000FEE700001C000020200C00201CB52649AA
:1049600008780190FF20087008788DF800009DF805
:1049700000009DF8002000F0F000904207D0502089
:1049800080F31188BFF34F8FBFF36F8FFEE79DF861
:1049900000001A4B00F0500018700720986005E0E6
:1049A0009DF8002052008DF80020401E9DF8002048
:1049B0001206F5D49860032807D0502080F31188A0
:1049C000BFF34F8FBFF36F8FFEE74FF440709860D7
:1049D000019808700A48016841F47001016001689B
:1049E00041F070410160FFF765FE00205860FBF761
:1049F000FFFB00201CBD000000E400E0840000205C
:104A000020ED00E010B5502080F31188BFF34F8FE8
:104A1000BFF36F8F00F0D4FA18B104494FF0805003
:104A20000860002080F3118810BD000004ED00E054
:104A300038B5049D18B153B1CAB181B120E05020FE
:104A400080F31188BFF34F8FBFF36F8FFEE75020C5
:104A500080F31188BFF34F8FBFF36F8FFEE75020B5
:104A600080F31188BFF34F8FBFF36F8FFEE739B12B
:104A7000502080F31188BFF34F8FBFF36F8FFEE795
:104A800048241C46012384F846302B460094FFF747
:104A9000C5FA204638BD000070B50D46040025D08B
:104AA000FFF7A6FDD4E90F20216802FB0011616029
:104AB0000021A1632168A1600A46D4E90F01401ECC
:104AC00000FB0121E16021464FF0FF3001F8440F67
:104AD000487004F110008DB1FFF758FD04F1240077
:104AE000FFF754FDFFF7A4FD012070BD502080F3B7
:104AF0001188BFF34F8FBFF36F8FFEE72169002945
:104B0000F0D000F00DFB0028ECD004494FF08050AD
:104B10000860BFF34F8FBFF36F8FE3E704ED00E052
:104B20002DE9FF4782B01D468A464FF00008040079
:104B300003D0BAF1000F08D011E0502080F31188A3
:104B4000BFF34F8FBFF36F8FFEE7206C38B150205B
:104B500080F31188BFF34F8FBFF36F8FFEE7022DF5
:104B60000AD1E06B012807D0502080F31188BFF3F1
:104B70004F8FBFF36F8FFEE700F00EFA3F4F4FF0FD
:104B800000094FF0805648B9049838B1502080F39E
:104B90001188BFF34F8FBFF36F8FFEE7FFF728FD3C
:104BA000A06BE16B884207D3022D05D00498D0B1E9
:104BB000B8F1000F1AD01EE02A4651462046FFF7F2
:104BC00086F9616A19B104F1240000F0A9FA20B154
:104BD0003E60BFF34F8FBFF36F8FFFF729FD0120BA
:104BE00006B0BDE8F087FFF723FD22E06846FFF737
:104BF000F9FD4FF00108FFF71BFDFFF779FEFFF706
:104C0000F7FC94F94400401C01D184F8449094F9D5
:104C10004500401C01D184F84590FFF709FD04A927
:104C2000684600F027F930B12046FFF7D1FB00F0CD
:104C3000B1FA0020D4E7FFF7DBFCA06BE16B884200
:104C400013D1FFF7F5FC04F110000499FFF7D8FD2C
:104C50002046FFF7BDFB00F09DFA00289ED13E6084
:104C6000BFF34F8FBFF36F8F98E7FFF7E1FC20464C
:104C7000FFF7AEFB00F08EFA90E7000004ED00E0D5
:104C80002DE9F0471F4690468946040003D0B9F14C
:104C9000000F08D011E0502080F31188BFF34F8F30
:104CA000BFF36F8FFEE7206C38B1502080F311887E
:104CB000BFF34F8FBFF36F8FFEE7022F0AD1E06B78
:104CC000012807D0502080F31188BFF34F8FBFF326
:104CD0006F8FFEE7FFF700FD5020EFF3118680F3A2
:104CE0001188BFF34F8FBFF36F8FA06BE16B8842CA
:104CF00006D3022F04D0002086F31188BDE8F08788
:104D000094F945503A4649462046FFF7E0F8681CBA
:104D100004D06D1C84F845500120EDE7606A00283E
:104D2000FAD004F1240000F0FBF90028F4D0B8F127
:104D3000000FF1D00121C8F80010EDE72DE9F74789
:104D4000002683B08A46040003D0BAF1000F08D0D1
:104D500011E0502080F31188BFF34F8FBFF36F8FA6
:104D6000FEE7206C38B1502080F31188BFF34F8FDD
:104D7000BFF36F8FFEE700F00FF9DFF8F4804FF01C
:104D800000094FF0805748B9059838B1502080F39A
:104D90001188BFF34F8FBFF36F8FFEE7FFF728FC3B
:104DA000A56BC5B151462046FFF77EF86D1EA56381
:104DB000206950B104F1100000F0B2F928B1C8F830
:104DC0000070BFF34F8FBFF36F8FFFF731FC0120EF
:104DD00006B0BDE8F087059808B11EB106E0FFF700
:104DE00027FC27E06846FFF7FDFC0126FFF720FCC3
:104DF000FFF77EFDFFF7FCFB94F94400401C01D156
:104E000084F8449094F94500401C01D184F8459001
:104E1000FFF70EFC05A9684600F02CF80028204694
:104E20000AD0FFF7D5FA00F0B5F92046FFF78AF966
:104E30000028B3D00020CBE7FFF784F990B104F14C
:104E400024000599FFF7DCFC2046FFF7C1FA00F0CB
:104E5000A1F90028A2D1C8F80070BFF34F8FBFF3AB
:104E60006F8F9BE72046FFF7B3FA00F093F995E7C1
:104E700004ED00E02DE9F0410C46050011D0C4B16D
:104E8000FFF7B6FB174B5A696E682068911B471CE9
:104E900017D02F689B6A9F4219D0964217D80124D9
:104EA00010E0502080F31188BFF34F8FBFF36F8F56
:104EB000FEE7502080F31188BFF34F8FBFF36F8F51
:104EC000FEE70024FFF7B4FB2046BDE8F0818842EE
:104ED00005D9401A20602846FFF784FCF1E700203E
:104EE0002060DCE71C0000202DE9FF5F8346DDE940
:104EF0000E87994616468A469000FFF79FFA0500EE
:104F00001CD05420FFF79AFA040014D00020256327
:104F100084F85100CDE90240CDE900874B46324686
:104F200051465846FFF785F82046FEF729FF012035
:104F300004B0BDE8F09F2846FFF78EFB4FF0FF302E
:104F4000F6E7F0B585B0DDE90B640A9DA6B1DCB1EA
:104F5000542700972663022684F85160002604AF88
:104F6000CDE90246CDE90057FFF763F82046FEF78A
:104F700007FF049805B0F0BD502080F31188BFF3FF
:104F80004F8FBFF36F8FFEE7502080F31188BFF380
:104F90004F8FBFF36F8FFEE70548C16919B1806B72
:104FA00018B10020704701207047022070470000B0
:104FB0001C00002001484069704700001C000020D0
:104FC0002DE9F0412E4C0027A06B40B1206A401C17
:104FD0002062606A00B101273846BDE8F081666949
:104FE000761C666113D16068006838B1502080F388
:104FF0001188BFF34F8FBFF36F8FFEE76068A16822
:105000006160A060A06A401CA062FFF761F9206B9C
:10501000DFF87080864209D36068006880B16068FC
:10502000C068C568686886420DD220632068C06A7F
:1050300000EB800158F821000128CAD90127C8E7F0
:105040004FF0FF30F1E7281DFFF776FAA86A18B194
:1050500005F11800FFF770FAE86A0121A2698140A2
:105060001143A16100EB800108EB8100291DFFF7CE
:10507000B3FAE86A2168C96A8842CDD30127CBE731
:105080001C000020200C002070B504004FF000012F
:1050900040D0214D2868844207D0502080F31188E9
:1050A000BFF34F8FBFF36F8FFEE7A06C38B1401E88
:1050B000A064636CE26A9A422CD040B12AE050208E
:1050C00080F31188BFF34F8FBFF36F8FFEE7201D72
:1050D000FFF732FA114A012150B9E06A00EB800370
:1050E00052F8233023B9AB6901FA00F08343AB6176
:1050F000606CE062C0F10700A061E06AAB698140CA
:105100001943A96100EB800002EB8000211DFFF72D
:1051100063FA0121084670BD1C000020200C00200D
:105120002DE9F041C068C468ACB104F1180007462D
:10513000FFF702FA154DA86B0126A0B139461448B5
:10514000FFF74AFAE06A2968C96A88421CD9012037
:105150006E62BDE8F081502080F31188BFF34F8F5D
:10516000BFF36F8FFEE7201DFFF7E6F9E16AAA693A
:1051700006FA01F01043A86101EB81000449B4393B
:1051800001EB8000211DDBE70020E2E71C0000208E
:10519000D40C00202DE9F0472C4D00242746A86BA5
:1051A00038B1FFF725FAA86B401EA863A86B40B181
:1051B00046E0502080F31188BFF34F8FBFF36F8F0D
:1051C000FEE72969224E0120D1B3A6F1B409804639
:1051D0003068E8B1F068C46804F11800FFF7ACF972
:1051E000201DFFF7A9F9E06AAA6908FA00F1114346
:1051F000A96100EB800109EB8100211DFFF7ECF9AB
:10520000E06A2968C96A8842E2D3C5F82480DFE7EA
:105210000CB1FFF75DF82C6A44B14646FFF7D0FEAB
:1052200000B16E62641EF9D100202862686A38B14C
:105230000849012738070860BFF34F8FBFF36F8F0E
:10524000FFF7F6F93846BDE8F08700001C000020A3
:10525000D40C002004ED00E010B586B0FEF7F8FD98
:10526000114CA068B8B100200390049005AA04A9CD
:1052700003A8FFF77FF9DDE9032102208DE807008D
:1052800000230AA10B48059AFFF75BFEE06010B10E
:1052900006B0012010BD502080F31188BFF34F8F5E
:1052A000BFF36F8FFEE7000058000020546D72209E
:1052B00053766300AD430008FEB51E461346020058
:1052C000089D4FF0000014D0124CA768002F0FD09B
:1052D000CDE900130292062915DAFFF75DFE0228D8
:1052E0004FF000030DD000226946A068FFF718FCBC
:1052F000FEBD502080F31188BFF34F8FBFF36F8F37
:10530000FEE72A46F0E70023324669463846FFF7B3
:10531000B7FCFEBD5800002090EA010F48BF81F0A5
:10532000004100F1B682421A3CBF801A89184FEA48
:10533000D0524FF07F4C1CEA410FA2EBD15318BF63
:105340009CEA026F00F03B804FF0004C4CEA0020DA
:105350004CEA012121FA03FC10EB0C0C1ED202F1E5
:10536000FF325FEA1C2040EBC25038BF70471CF090
:105370007F0F4FEA400C18BFBCF17F4F38BF70471A
:10538000C3F12003994008BF20F00100BCF17F4F1A
:1053900038BF7047A0F1C04000F03DBA4FEA3C0072
:1053A000000A40EBC25028BF1CF0FF0F4FEA400C30
:1053B000E6D018BFBCF17F4F38BF7047EAE79CEAE0
:1053C000026F05D010EA5C0F08BF00F00040704784
:1053D00010B500F0DAF900BF64FBBE3E401058BFC4
:1053E000C0F14040491058BFC1F140418142EFF344
:1053F000008070474FF47F0C1CEAD0121EBF1CEADD
:10540000D11392EA0C0F93EA0C0F00F0858090EA1A
:10541000010F48BF42F4807240F4000C41F40000D8
:105420002CF07F4120F07F4000B58142A2EB0302C7
:105430000FF2081CACEB504EC0F100009EF800E0EB
:105440004FEA4E0E00FB0EFC38BF49004FEA2C1C01
:1054500002F5FA020CFB0EF34FEACE1E4FEA112CB6
:105460004FEAC1210EEB635E42EB22420EFB0CFCC5
:105470004FEA1C5300FB03114FEA112C4FEA013194
:105480000EFB0CFC4FEADC4C00FB0C11C14228BFA8
:1054900009184CEB03335DF804EB10EB410143EBCF
:1054A000C250B2F57C0F38BF704729D512F0F00F0B
:1054B0001CBF00F1C04000F00040704700818283B3
:1054C0008485868788898B8C8D8E8F919293959613
:1054D00097999A9C9D9FA0A2A3A5A7A8AAACAEB09D
:1054E000B2B3B5B7B9BCBEC0C2C5C7C9CCCED1D4A2
:1054F000D7D9DCDFE2E6E9ECF0F3F7FAFE000000D2
:105500004FEA400C0CF1807CBCF17E4F28BF704705
:10551000B0F1C04000F07FB990EA010F0CEAD1135E
:1055200048BF42F48072624538BF634507D213F426
:105530007F0F16D080EA010000F00040704710B5E0
:1055400000F023F9097EFC3E00F005B880EA010076
:1055500000F00040704780EA010000F0004000F0D9
:105560005AB912F47F0F04BF0248704780EA010065
:1055700000F051B90000C07F41000B0ED3F19E0234
:1055800008D950F400034FEA032323FA02F048BF7E
:105590004042704710B500F0F8F800BF49922480EF
:1055A000002070476FF0004282EA20007047000040
:1055B000C10DD1F19E0206DB4FEA002343F0004308
:1055C00023FA02F07047004207D54FEA4001B1F1DB
:1055D000FE4F02D24FF00000704710B500F0D5F832
:1055E00049922480002070476FEA20007047000035
:1055F00010F0004148BF4042B0FA80F310FA03F2C5
:10560000C3F19D030BD051EAC35101EB12205306A5
:1056100038BF704700F1010008BF20F0010070475B
:1056200050EA010C00F113801CF5000F58BFBCF5C7
:10563000000F01D48842704707D710F5000F58BFFC
:1056400011F5000F15D488427047894270471CF548
:10565000000F04D5BCF5000FF7D5814270474FF01D
:10566000807C1CEB400F38BF1CEB410F01D2814204
:10567000704710B500F089F8922449004FF00050AF
:105680004FF08051FFF7AABE4FF47F0C1CEAD012F6
:105690001EBF1CEAD11392EA0C0F93EA0C0F00F024
:1056A000478090EA010F48BF42F480724FF0004CEF
:1056B0004CEA00204CEA012102EB0302A0FB01139B
:1056C000A2F50002002918BF43F001035B0028BFC8
:1056D0004FEA330342EB22425FEA132C4CEBC250F9
:1056E0002EBFBCEB436FB2F57C0F70474FEA036CE3
:1056F000BCF1004F08BF20F00100B2F57C0F38BFAD
:1057000070470BD582F0FF0212F5803FC8BF70478B
:1057100000F1C040D8BF00F00040704700F5000C19
:105720005FEA4C0C48BF7047B0F1C04000F073B85E
:1057300090EA010F0CEAD11348BF42F4807262452F
:1057400038BF634504D280EA010000F00040704792
:1057500010B500F01AF800BF8900013E00F007B84C
:1057600000F009B85FEA410C5FEA1C6C08D080EADF
:10577000010000F050B85FEA400C5FEA1C6CF6D103
:105780004FF00040A0F5800070470EF1020E2EF0A1
:10579000030E5EF8044B244204D44FEA4102B2F1F6
:1057A0007F4F11D84FEA4003B3F17F4F0CD80ED191
:1057B0004FEAD07CB2F17F4F0CEB4C0C0CF1020C99
:1057C00008BF4CEBD17C04E04FF0080C01E04FEA3D
:1057D000D17C0CEB4C0324FA03F404F00704B4F17D
:1057E000040C06D20EEB840CBDE810404CF0010C0A
:1057F0006047DFE80CF0070802024FF00040A0F518
:10580000800010BD0846420018BFD2F1807288BFE8
:1058100000F0004010BDFF2141EAD050C0057047A4
:1058200051EA000C00F113801CF5000F58BFBCF5C5
:10583000000F01D48142704707D711F5000F58BF00
:1058400010F5000F15D481427047894270471CF54E
:10585000000F04D5BCF5000FF7D5884270474FF014
:10586000807C1CEB410F38BF1CEB400F01D28842FB
:10587000704780EA010081EA000180EA0100FFF739
:10588000F8BE000090EA010F48BF81F000413FF5EB
:105890004AAD421A04D882F00042A0EB0200114443
:1058A0004FEAD0524FF07F4C1CEA410FA2EBD1538C
:1058B00018BF9CEA026F4AD04FF0004C4CEA00201F
:1058C0004CEA012121FA03FCB0EB0C0C0FD412F0CE
:1058D000FE0F36D05FEA4C001DD5001240EBC250DF
:1058E00038BF70471CF03F0F18BF70470BE0A2F1A4
:1058F00001025FEA1C2040EBC25038BF70471CF029
:105900007F0F18BF7047C3F12003994014BF401E9A
:1059100020F00100704780084FEA122308BF70474B
:10592000B0FA80FCA2EB0C02CCF1280C60FA0CF06F
:1059300093EA122F04BF00EBC25070474FEAC370C6
:105940007047130A5FEADC1008BF7047F6E79CEA6D
:10595000026F04D010EA5C0F08BF0020704710B53A
:10596000FFF713FF40DFF63E81F000407047000074
:10597000185A00085D040008010000000000000043
:10598000800000000000000000000000005A000835
:105990006905000800000000000000008000000011
:1059A00000000000000000000C5A0008B92A00089E
:1059B0000200000000000000800000000000000065
:1059C00000000000010202030405060708090A0B93
:1059D0000C0D0E0F10100102020304050607080942
:1059E0000A0B0C0D0E0F101000000000000000004C
:1059F0000102030406070809000000000102030475
:105A000047696D62616C5461736B0000496E666F2B
:105A10005461736B000000004368617373697354D1
:105A200061736B00445A00080000002090000000E1
:105A30006C010008D45A000890000020C81F000024
:105A400088010008000000000000000000000000C5
:105A50000100000010000000000000000024F4001D
:105A60000000000000000000000000000000000036
:105A70000000000000000000000000000000000026
:105A80000000000000000000000000000000000016
:105A90000000000000000000000000000000000006
:105AA00000000000000000000000000000000000F6
:105AB00000000000000000000000000000000000E6
:105AC000000000000000000000000000AAAAAAAA2E
:045AD00000000000D2
:0400000508000131BD
:00000001FF
